{
	"contracts/DDE.sol": {
		"DDE": {
			"abi": [
				{
					"inputs": [],
					"stateMutability": "nonpayable",
					"type": "constructor"
				},
				{
					"anonymous": false,
					"inputs": [
						{
							"indexed": true,
							"internalType": "address",
							"name": "owner",
							"type": "address"
						},
						{
							"indexed": true,
							"internalType": "address",
							"name": "spender",
							"type": "address"
						},
						{
							"indexed": false,
							"internalType": "uint256",
							"name": "value",
							"type": "uint256"
						}
					],
					"name": "Approval",
					"type": "event"
				},
				{
					"anonymous": false,
					"inputs": [
						{
							"indexed": true,
							"internalType": "address",
							"name": "from",
							"type": "address"
						},
						{
							"indexed": false,
							"internalType": "uint256",
							"name": "value",
							"type": "uint256"
						}
					],
					"name": "Burn",
					"type": "event"
				},
				{
					"anonymous": false,
					"inputs": [
						{
							"indexed": true,
							"internalType": "address",
							"name": "borrower",
							"type": "address"
						},
						{
							"indexed": false,
							"internalType": "uint256",
							"name": "value",
							"type": "uint256"
						}
					],
					"name": "CollateralAdded",
					"type": "event"
				},
				{
					"anonymous": false,
					"inputs": [
						{
							"indexed": true,
							"internalType": "address",
							"name": "borrower",
							"type": "address"
						},
						{
							"indexed": false,
							"internalType": "uint256",
							"name": "value",
							"type": "uint256"
						},
						{
							"indexed": false,
							"internalType": "uint256",
							"name": "collateral",
							"type": "uint256"
						}
					],
					"name": "Loan",
					"type": "event"
				},
				{
					"anonymous": false,
					"inputs": [
						{
							"indexed": true,
							"internalType": "address",
							"name": "to",
							"type": "address"
						},
						{
							"indexed": false,
							"internalType": "uint256",
							"name": "value",
							"type": "uint256"
						}
					],
					"name": "Mint",
					"type": "event"
				},
				{
					"anonymous": false,
					"inputs": [
						{
							"indexed": true,
							"internalType": "address",
							"name": "borrower",
							"type": "address"
						},
						{
							"indexed": false,
							"internalType": "uint256",
							"name": "value",
							"type": "uint256"
						}
					],
					"name": "Repayment",
					"type": "event"
				},
				{
					"anonymous": false,
					"inputs": [
						{
							"indexed": true,
							"internalType": "address",
							"name": "from",
							"type": "address"
						},
						{
							"indexed": true,
							"internalType": "address",
							"name": "to",
							"type": "address"
						},
						{
							"indexed": false,
							"internalType": "uint256",
							"name": "value",
							"type": "uint256"
						}
					],
					"name": "Transfer",
					"type": "event"
				},
				{
					"anonymous": false,
					"inputs": [
						{
							"indexed": false,
							"internalType": "uint256",
							"name": "referencePrice",
							"type": "uint256"
						}
					],
					"name": "updateReferencePrice",
					"type": "event"
				},
				{
					"inputs": [
						{
							"internalType": "uint256",
							"name": "collateral",
							"type": "uint256"
						}
					],
					"name": "addCollateral",
					"outputs": [],
					"stateMutability": "nonpayable",
					"type": "function"
				},
				{
					"inputs": [
						{
							"internalType": "address",
							"name": "",
							"type": "address"
						},
						{
							"internalType": "address",
							"name": "",
							"type": "address"
						}
					],
					"name": "allowance",
					"outputs": [
						{
							"internalType": "uint256",
							"name": "",
							"type": "uint256"
						}
					],
					"stateMutability": "view",
					"type": "function"
				},
				{
					"inputs": [
						{
							"internalType": "address",
							"name": "spender",
							"type": "address"
						},
						{
							"internalType": "uint256",
							"name": "value",
							"type": "uint256"
						}
					],
					"name": "approve",
					"outputs": [
						{
							"internalType": "bool",
							"name": "",
							"type": "bool"
						}
					],
					"stateMutability": "nonpayable",
					"type": "function"
				},
				{
					"inputs": [
						{
							"internalType": "address",
							"name": "",
							"type": "address"
						}
					],
					"name": "balanceOf",
					"outputs": [
						{
							"internalType": "uint256",
							"name": "",
							"type": "uint256"
						}
					],
					"stateMutability": "view",
					"type": "function"
				},
				{
					"inputs": [
						{
							"internalType": "address",
							"name": "",
							"type": "address"
						}
					],
					"name": "balances",
					"outputs": [
						{
							"internalType": "uint256",
							"name": "",
							"type": "uint256"
						}
					],
					"stateMutability": "view",
					"type": "function"
				},
				{
					"inputs": [
						{
							"internalType": "address",
							"name": "from",
							"type": "address"
						},
						{
							"internalType": "uint256",
							"name": "value",
							"type": "uint256"
						}
					],
					"name": "burn",
					"outputs": [],
					"stateMutability": "nonpayable",
					"type": "function"
				},
				{
					"inputs": [
						{
							"internalType": "address",
							"name": "",
							"type": "address"
						}
					],
					"name": "collateralBalance",
					"outputs": [
						{
							"internalType": "uint256",
							"name": "",
							"type": "uint256"
						}
					],
					"stateMutability": "view",
					"type": "function"
				},
				{
					"inputs": [],
					"name": "collateralRatio",
					"outputs": [
						{
							"internalType": "uint256",
							"name": "",
							"type": "uint256"
						}
					],
					"stateMutability": "view",
					"type": "function"
				},
				{
					"inputs": [
						{
							"internalType": "uint256",
							"name": "value",
							"type": "uint256"
						},
						{
							"internalType": "uint256",
							"name": "collateral",
							"type": "uint256"
						}
					],
					"name": "lend",
					"outputs": [],
					"stateMutability": "nonpayable",
					"type": "function"
				},
				{
					"inputs": [
						{
							"internalType": "address",
							"name": "",
							"type": "address"
						}
					],
					"name": "loanBalance",
					"outputs": [
						{
							"internalType": "uint256",
							"name": "",
							"type": "uint256"
						}
					],
					"stateMutability": "view",
					"type": "function"
				},
				{
					"inputs": [
						{
							"internalType": "address",
							"name": "to",
							"type": "address"
						},
						{
							"internalType": "uint256",
							"name": "value",
							"type": "uint256"
						}
					],
					"name": "mint",
					"outputs": [],
					"stateMutability": "nonpayable",
					"type": "function"
				},
				{
					"inputs": [],
					"name": "name",
					"outputs": [
						{
							"internalType": "string",
							"name": "",
							"type": "string"
						}
					],
					"stateMutability": "view",
					"type": "function"
				},
				{
					"inputs": [],
					"name": "owner",
					"outputs": [
						{
							"internalType": "address",
							"name": "",
							"type": "address"
						}
					],
					"stateMutability": "view",
					"type": "function"
				},
				{
					"inputs": [
						{
							"internalType": "uint256",
							"name": "value",
							"type": "uint256"
						}
					],
					"name": "repayLoan",
					"outputs": [],
					"stateMutability": "nonpayable",
					"type": "function"
				},
				{
					"inputs": [],
					"name": "symbol",
					"outputs": [
						{
							"internalType": "string",
							"name": "",
							"type": "string"
						}
					],
					"stateMutability": "view",
					"type": "function"
				},
				{
					"inputs": [],
					"name": "totalSupply",
					"outputs": [
						{
							"internalType": "uint256",
							"name": "",
							"type": "uint256"
						}
					],
					"stateMutability": "view",
					"type": "function"
				},
				{
					"inputs": [
						{
							"internalType": "address",
							"name": "to",
							"type": "address"
						},
						{
							"internalType": "uint256",
							"name": "value",
							"type": "uint256"
						}
					],
					"name": "transfer",
					"outputs": [
						{
							"internalType": "bool",
							"name": "",
							"type": "bool"
						}
					],
					"stateMutability": "nonpayable",
					"type": "function"
				},
				{
					"inputs": [
						{
							"internalType": "address",
							"name": "from",
							"type": "address"
						},
						{
							"internalType": "address",
							"name": "to",
							"type": "address"
						},
						{
							"internalType": "uint256",
							"name": "value",
							"type": "uint256"
						}
					],
					"name": "transferFrom",
					"outputs": [
						{
							"internalType": "bool",
							"name": "",
							"type": "bool"
						}
					],
					"stateMutability": "nonpayable",
					"type": "function"
				}
			],
			"devdoc": {
				"kind": "dev",
				"methods": {},
				"version": 1
			},
			"evm": {
				"assembly": "    /* \"contracts/DDE.sol\":188:3907  contract DDE{... */\n  mstore(0x40, 0x80)\n    /* \"contracts/DDE.sol\":202:251  string public name = \"Digital Deflazionitic Euro\" */\n  mload(0x40)\n  dup1\n  0x40\n  add\n  0x40\n  mstore\n  dup1\n  0x1a\n  dup2\n  mstore\n  0x20\n  add\n  0x4469676974616c204465666c617a696f6e69746963204575726f000000000000\n  dup2\n  mstore\n  pop\n  0x00\n  swap1\n  dup2\n  tag_1\n  swap2\n  swap1\n  tag_2\n  jump\t// in\ntag_1:\n  pop\n    /* \"contracts/DDE.sol\":253:281  string public symbol = \"DDE\" */\n  mload(0x40)\n  dup1\n  0x40\n  add\n  0x40\n  mstore\n  dup1\n  0x03\n  dup2\n  mstore\n  0x20\n  add\n  0x4444450000000000000000000000000000000000000000000000000000000000\n  dup2\n  mstore\n  pop\n  0x01\n  swap1\n  dup2\n  tag_3\n  swap2\n  swap1\n  tag_2\n  jump\t// in\ntag_3:\n  pop\n    /* \"contracts/DDE.sol\":312:324  1000 * 10**5 */\n  0x05f5e100\n    /* \"contracts/DDE.sol\":283:324  uint256 public totalSupply = 1000 * 10**5 */\n  0x02\n  sstore\n    /* \"contracts/DDE.sol\":730:731  1 */\n  0x01\n    /* \"contracts/DDE.sol\":697:731  uint256 public collateralRatio = 1 */\n  0x09\n  sstore\n    /* \"contracts/DDE.sol\":1344:1418  constructor() {... */\n  callvalue\n  dup1\n  iszero\n  tag_4\n  jumpi\n  0x00\n  dup1\n  revert\ntag_4:\n  pop\n    /* \"contracts/DDE.sol\":1384:1395  totalSupply */\n  sload(0x02)\n    /* \"contracts/DDE.sol\":1360:1369  balanceOf */\n  0x04\n    /* \"contracts/DDE.sol\":1360:1381  balanceOf[msg.sender] */\n  0x00\n    /* \"contracts/DDE.sol\":1370:1380  msg.sender */\n  caller\n    /* \"contracts/DDE.sol\":1360:1381  balanceOf[msg.sender] */\n  0xffffffffffffffffffffffffffffffffffffffff\n  and\n  0xffffffffffffffffffffffffffffffffffffffff\n  and\n  dup2\n  mstore\n  0x20\n  add\n  swap1\n  dup2\n  mstore\n  0x20\n  add\n  0x00\n  keccak256\n    /* \"contracts/DDE.sol\":1360:1395  balanceOf[msg.sender] = totalSupply */\n  dup2\n  swap1\n  sstore\n  pop\n    /* \"contracts/DDE.sol\":1405:1415  msg.sender */\n  caller\n    /* \"contracts/DDE.sol\":1397:1402  owner */\n  0x03\n  0x00\n    /* \"contracts/DDE.sol\":1397:1415  owner = msg.sender */\n  0x0100\n  exp\n  dup2\n  sload\n  dup2\n  0xffffffffffffffffffffffffffffffffffffffff\n  mul\n  not\n  and\n  swap1\n  dup4\n  0xffffffffffffffffffffffffffffffffffffffff\n  and\n  mul\n  or\n  swap1\n  sstore\n  pop\n    /* \"contracts/DDE.sol\":188:3907  contract DDE{... */\n  jump(tag_7)\n    /* \"#utility.yul\":7:106   */\ntag_8:\n    /* \"#utility.yul\":59:65   */\n  0x00\n    /* \"#utility.yul\":93:98   */\n  dup2\n    /* \"#utility.yul\":87:99   */\n  mload\n    /* \"#utility.yul\":77:99   */\n  swap1\n  pop\n    /* \"#utility.yul\":7:106   */\n  swap2\n  swap1\n  pop\n  jump\t// out\n    /* \"#utility.yul\":112:292   */\ntag_9:\n    /* \"#utility.yul\":160:237   */\n  0x4e487b7100000000000000000000000000000000000000000000000000000000\n    /* \"#utility.yul\":157:158   */\n  0x00\n    /* \"#utility.yul\":150:238   */\n  mstore\n    /* \"#utility.yul\":257:261   */\n  0x41\n    /* \"#utility.yul\":254:255   */\n  0x04\n    /* \"#utility.yul\":247:262   */\n  mstore\n    /* \"#utility.yul\":281:285   */\n  0x24\n    /* \"#utility.yul\":278:279   */\n  0x00\n    /* \"#utility.yul\":271:286   */\n  revert\n    /* \"#utility.yul\":298:478   */\ntag_10:\n    /* \"#utility.yul\":346:423   */\n  0x4e487b7100000000000000000000000000000000000000000000000000000000\n    /* \"#utility.yul\":343:344   */\n  0x00\n    /* \"#utility.yul\":336:424   */\n  mstore\n    /* \"#utility.yul\":443:447   */\n  0x22\n    /* \"#utility.yul\":440:441   */\n  0x04\n    /* \"#utility.yul\":433:448   */\n  mstore\n    /* \"#utility.yul\":467:471   */\n  0x24\n    /* \"#utility.yul\":464:465   */\n  0x00\n    /* \"#utility.yul\":457:472   */\n  revert\n    /* \"#utility.yul\":484:804   */\ntag_11:\n    /* \"#utility.yul\":528:534   */\n  0x00\n    /* \"#utility.yul\":565:566   */\n  0x02\n    /* \"#utility.yul\":559:563   */\n  dup3\n    /* \"#utility.yul\":555:567   */\n  div\n    /* \"#utility.yul\":545:567   */\n  swap1\n  pop\n    /* \"#utility.yul\":612:613   */\n  0x01\n    /* \"#utility.yul\":606:610   */\n  dup3\n    /* \"#utility.yul\":602:614   */\n  and\n    /* \"#utility.yul\":633:651   */\n  dup1\n    /* \"#utility.yul\":623:704   */\n  tag_33\n  jumpi\n    /* \"#utility.yul\":689:693   */\n  0x7f\n    /* \"#utility.yul\":681:687   */\n  dup3\n    /* \"#utility.yul\":677:694   */\n  and\n    /* \"#utility.yul\":667:694   */\n  swap2\n  pop\n    /* \"#utility.yul\":623:704   */\ntag_33:\n    /* \"#utility.yul\":751:753   */\n  0x20\n    /* \"#utility.yul\":743:749   */\n  dup3\n    /* \"#utility.yul\":740:754   */\n  lt\n    /* \"#utility.yul\":720:738   */\n  dup2\n    /* \"#utility.yul\":717:755   */\n  sub\n    /* \"#utility.yul\":714:798   */\n  tag_34\n  jumpi\n    /* \"#utility.yul\":770:788   */\n  tag_35\n  tag_10\n  jump\t// in\ntag_35:\n    /* \"#utility.yul\":714:798   */\ntag_34:\n    /* \"#utility.yul\":535:804   */\n  pop\n    /* \"#utility.yul\":484:804   */\n  swap2\n  swap1\n  pop\n  jump\t// out\n    /* \"#utility.yul\":810:951   */\ntag_12:\n    /* \"#utility.yul\":859:863   */\n  0x00\n    /* \"#utility.yul\":882:885   */\n  dup2\n    /* \"#utility.yul\":874:885   */\n  swap1\n  pop\n    /* \"#utility.yul\":905:908   */\n  dup2\n    /* \"#utility.yul\":902:903   */\n  0x00\n    /* \"#utility.yul\":895:909   */\n  mstore\n    /* \"#utility.yul\":939:943   */\n  0x20\n    /* \"#utility.yul\":936:937   */\n  0x00\n    /* \"#utility.yul\":926:944   */\n  keccak256\n    /* \"#utility.yul\":918:944   */\n  swap1\n  pop\n    /* \"#utility.yul\":810:951   */\n  swap2\n  swap1\n  pop\n  jump\t// out\n    /* \"#utility.yul\":957:1050   */\ntag_13:\n    /* \"#utility.yul\":994:1000   */\n  0x00\n    /* \"#utility.yul\":1041:1043   */\n  0x20\n    /* \"#utility.yul\":1036:1038   */\n  0x1f\n    /* \"#utility.yul\":1029:1034   */\n  dup4\n    /* \"#utility.yul\":1025:1039   */\n  add\n    /* \"#utility.yul\":1021:1044   */\n  div\n    /* \"#utility.yul\":1011:1044   */\n  swap1\n  pop\n    /* \"#utility.yul\":957:1050   */\n  swap2\n  swap1\n  pop\n  jump\t// out\n    /* \"#utility.yul\":1056:1163   */\ntag_14:\n    /* \"#utility.yul\":1100:1108   */\n  0x00\n    /* \"#utility.yul\":1150:1155   */\n  dup3\n    /* \"#utility.yul\":1144:1148   */\n  dup3\n    /* \"#utility.yul\":1140:1156   */\n  shl\n    /* \"#utility.yul\":1119:1156   */\n  swap1\n  pop\n    /* \"#utility.yul\":1056:1163   */\n  swap3\n  swap2\n  pop\n  pop\n  jump\t// out\n    /* \"#utility.yul\":1169:1562   */\ntag_15:\n    /* \"#utility.yul\":1238:1244   */\n  0x00\n    /* \"#utility.yul\":1288:1289   */\n  0x08\n    /* \"#utility.yul\":1276:1286   */\n  dup4\n    /* \"#utility.yul\":1272:1290   */\n  mul\n    /* \"#utility.yul\":1311:1408   */\n  tag_40\n    /* \"#utility.yul\":1341:1407   */\n  0xffffffffffffffffffffffffffffffffffffffffffffffffffffffffffffffff\n    /* \"#utility.yul\":1330:1339   */\n  dup3\n    /* \"#utility.yul\":1311:1408   */\n  tag_14\n  jump\t// in\ntag_40:\n    /* \"#utility.yul\":1429:1468   */\n  tag_41\n    /* \"#utility.yul\":1459:1467   */\n  dup7\n    /* \"#utility.yul\":1448:1457   */\n  dup4\n    /* \"#utility.yul\":1429:1468   */\n  tag_14\n  jump\t// in\ntag_41:\n    /* \"#utility.yul\":1417:1468   */\n  swap6\n  pop\n    /* \"#utility.yul\":1501:1505   */\n  dup1\n    /* \"#utility.yul\":1497:1506   */\n  not\n    /* \"#utility.yul\":1490:1495   */\n  dup5\n    /* \"#utility.yul\":1486:1507   */\n  and\n    /* \"#utility.yul\":1477:1507   */\n  swap4\n  pop\n    /* \"#utility.yul\":1550:1554   */\n  dup1\n    /* \"#utility.yul\":1540:1548   */\n  dup7\n    /* \"#utility.yul\":1536:1555   */\n  and\n    /* \"#utility.yul\":1529:1534   */\n  dup5\n    /* \"#utility.yul\":1526:1556   */\n  or\n    /* \"#utility.yul\":1516:1556   */\n  swap3\n  pop\n    /* \"#utility.yul\":1245:1562   */\n  pop\n  pop\n    /* \"#utility.yul\":1169:1562   */\n  swap4\n  swap3\n  pop\n  pop\n  pop\n  jump\t// out\n    /* \"#utility.yul\":1568:1645   */\ntag_16:\n    /* \"#utility.yul\":1605:1612   */\n  0x00\n    /* \"#utility.yul\":1634:1639   */\n  dup2\n    /* \"#utility.yul\":1623:1639   */\n  swap1\n  pop\n    /* \"#utility.yul\":1568:1645   */\n  swap2\n  swap1\n  pop\n  jump\t// out\n    /* \"#utility.yul\":1651:1711   */\ntag_17:\n    /* \"#utility.yul\":1679:1682   */\n  0x00\n    /* \"#utility.yul\":1700:1705   */\n  dup2\n    /* \"#utility.yul\":1693:1705   */\n  swap1\n  pop\n    /* \"#utility.yul\":1651:1711   */\n  swap2\n  swap1\n  pop\n  jump\t// out\n    /* \"#utility.yul\":1717:1859   */\ntag_18:\n    /* \"#utility.yul\":1767:1776   */\n  0x00\n    /* \"#utility.yul\":1800:1853   */\n  tag_45\n    /* \"#utility.yul\":1818:1852   */\n  tag_46\n    /* \"#utility.yul\":1827:1851   */\n  tag_47\n    /* \"#utility.yul\":1845:1850   */\n  dup5\n    /* \"#utility.yul\":1827:1851   */\n  tag_16\n  jump\t// in\ntag_47:\n    /* \"#utility.yul\":1818:1852   */\n  tag_17\n  jump\t// in\ntag_46:\n    /* \"#utility.yul\":1800:1853   */\n  tag_16\n  jump\t// in\ntag_45:\n    /* \"#utility.yul\":1787:1853   */\n  swap1\n  pop\n    /* \"#utility.yul\":1717:1859   */\n  swap2\n  swap1\n  pop\n  jump\t// out\n    /* \"#utility.yul\":1865:1940   */\ntag_19:\n    /* \"#utility.yul\":1908:1911   */\n  0x00\n    /* \"#utility.yul\":1929:1934   */\n  dup2\n    /* \"#utility.yul\":1922:1934   */\n  swap1\n  pop\n    /* \"#utility.yul\":1865:1940   */\n  swap2\n  swap1\n  pop\n  jump\t// out\n    /* \"#utility.yul\":1946:2215   */\ntag_20:\n    /* \"#utility.yul\":2056:2095   */\n  tag_50\n    /* \"#utility.yul\":2087:2094   */\n  dup4\n    /* \"#utility.yul\":2056:2095   */\n  tag_18\n  jump\t// in\ntag_50:\n    /* \"#utility.yul\":2117:2208   */\n  tag_51\n    /* \"#utility.yul\":2166:2207   */\n  tag_52\n    /* \"#utility.yul\":2190:2206   */\n  dup3\n    /* \"#utility.yul\":2166:2207   */\n  tag_19\n  jump\t// in\ntag_52:\n    /* \"#utility.yul\":2158:2164   */\n  dup5\n    /* \"#utility.yul\":2151:2155   */\n  dup5\n    /* \"#utility.yul\":2145:2156   */\n  sload\n    /* \"#utility.yul\":2117:2208   */\n  tag_15\n  jump\t// in\ntag_51:\n    /* \"#utility.yul\":2111:2115   */\n  dup3\n    /* \"#utility.yul\":2104:2209   */\n  sstore\n    /* \"#utility.yul\":2022:2215   */\n  pop\n    /* \"#utility.yul\":1946:2215   */\n  pop\n  pop\n  pop\n  jump\t// out\n    /* \"#utility.yul\":2221:2294   */\ntag_21:\n    /* \"#utility.yul\":2266:2269   */\n  0x00\n    /* \"#utility.yul\":2221:2294   */\n  swap1\n  jump\t// out\n    /* \"#utility.yul\":2300:2489   */\ntag_22:\n    /* \"#utility.yul\":2377:2409   */\n  tag_55\n  tag_21\n  jump\t// in\ntag_55:\n    /* \"#utility.yul\":2418:2483   */\n  tag_56\n    /* \"#utility.yul\":2476:2482   */\n  dup2\n    /* \"#utility.yul\":2468:2474   */\n  dup5\n    /* \"#utility.yul\":2462:2466   */\n  dup5\n    /* \"#utility.yul\":2418:2483   */\n  tag_20\n  jump\t// in\ntag_56:\n    /* \"#utility.yul\":2353:2489   */\n  pop\n    /* \"#utility.yul\":2300:2489   */\n  pop\n  pop\n  jump\t// out\n    /* \"#utility.yul\":2495:2681   */\ntag_23:\n    /* \"#utility.yul\":2555:2675   */\ntag_58:\n    /* \"#utility.yul\":2572:2575   */\n  dup2\n    /* \"#utility.yul\":2565:2570   */\n  dup2\n    /* \"#utility.yul\":2562:2576   */\n  lt\n    /* \"#utility.yul\":2555:2675   */\n  iszero\n  tag_60\n  jumpi\n    /* \"#utility.yul\":2626:2665   */\n  tag_61\n    /* \"#utility.yul\":2663:2664   */\n  0x00\n    /* \"#utility.yul\":2656:2661   */\n  dup3\n    /* \"#utility.yul\":2626:2665   */\n  tag_22\n  jump\t// in\ntag_61:\n    /* \"#utility.yul\":2599:2600   */\n  0x01\n    /* \"#utility.yul\":2592:2597   */\n  dup2\n    /* \"#utility.yul\":2588:2601   */\n  add\n    /* \"#utility.yul\":2579:2601   */\n  swap1\n  pop\n    /* \"#utility.yul\":2555:2675   */\n  jump(tag_58)\ntag_60:\n    /* \"#utility.yul\":2495:2681   */\n  pop\n  pop\n  jump\t// out\n    /* \"#utility.yul\":2687:3230   */\ntag_24:\n    /* \"#utility.yul\":2788:2790   */\n  0x1f\n    /* \"#utility.yul\":2783:2786   */\n  dup3\n    /* \"#utility.yul\":2780:2791   */\n  gt\n    /* \"#utility.yul\":2777:3223   */\n  iszero\n  tag_63\n  jumpi\n    /* \"#utility.yul\":2822:2860   */\n  tag_64\n    /* \"#utility.yul\":2854:2859   */\n  dup2\n    /* \"#utility.yul\":2822:2860   */\n  tag_12\n  jump\t// in\ntag_64:\n    /* \"#utility.yul\":2906:2935   */\n  tag_65\n    /* \"#utility.yul\":2924:2934   */\n  dup5\n    /* \"#utility.yul\":2906:2935   */\n  tag_13\n  jump\t// in\ntag_65:\n    /* \"#utility.yul\":2896:2904   */\n  dup2\n    /* \"#utility.yul\":2892:2936   */\n  add\n    /* \"#utility.yul\":3089:3091   */\n  0x20\n    /* \"#utility.yul\":3077:3087   */\n  dup6\n    /* \"#utility.yul\":3074:3092   */\n  lt\n    /* \"#utility.yul\":3071:3120   */\n  iszero\n  tag_66\n  jumpi\n    /* \"#utility.yul\":3110:3118   */\n  dup2\n    /* \"#utility.yul\":3095:3118   */\n  swap1\n  pop\n    /* \"#utility.yul\":3071:3120   */\ntag_66:\n    /* \"#utility.yul\":3133:3213   */\n  tag_67\n    /* \"#utility.yul\":3189:3211   */\n  tag_68\n    /* \"#utility.yul\":3207:3210   */\n  dup6\n    /* \"#utility.yul\":3189:3211   */\n  tag_13\n  jump\t// in\ntag_68:\n    /* \"#utility.yul\":3179:3187   */\n  dup4\n    /* \"#utility.yul\":3175:3212   */\n  add\n    /* \"#utility.yul\":3162:3173   */\n  dup3\n    /* \"#utility.yul\":3133:3213   */\n  tag_23\n  jump\t// in\ntag_67:\n    /* \"#utility.yul\":2792:3223   */\n  pop\n  pop\n    /* \"#utility.yul\":2777:3223   */\ntag_63:\n    /* \"#utility.yul\":2687:3230   */\n  pop\n  pop\n  pop\n  jump\t// out\n    /* \"#utility.yul\":3236:3353   */\ntag_25:\n    /* \"#utility.yul\":3290:3298   */\n  0x00\n    /* \"#utility.yul\":3340:3345   */\n  dup3\n    /* \"#utility.yul\":3334:3338   */\n  dup3\n    /* \"#utility.yul\":3330:3346   */\n  shr\n    /* \"#utility.yul\":3309:3346   */\n  swap1\n  pop\n    /* \"#utility.yul\":3236:3353   */\n  swap3\n  swap2\n  pop\n  pop\n  jump\t// out\n    /* \"#utility.yul\":3359:3528   */\ntag_26:\n    /* \"#utility.yul\":3403:3409   */\n  0x00\n    /* \"#utility.yul\":3436:3487   */\n  tag_71\n    /* \"#utility.yul\":3484:3485   */\n  0x00\n    /* \"#utility.yul\":3480:3486   */\n  not\n    /* \"#utility.yul\":3472:3477   */\n  dup5\n    /* \"#utility.yul\":3469:3470   */\n  0x08\n    /* \"#utility.yul\":3465:3478   */\n  mul\n    /* \"#utility.yul\":3436:3487   */\n  tag_25\n  jump\t// in\ntag_71:\n    /* \"#utility.yul\":3432:3488   */\n  not\n    /* \"#utility.yul\":3517:3521   */\n  dup1\n    /* \"#utility.yul\":3511:3515   */\n  dup4\n    /* \"#utility.yul\":3507:3522   */\n  and\n    /* \"#utility.yul\":3497:3522   */\n  swap2\n  pop\n    /* \"#utility.yul\":3410:3528   */\n  pop\n    /* \"#utility.yul\":3359:3528   */\n  swap3\n  swap2\n  pop\n  pop\n  jump\t// out\n    /* \"#utility.yul\":3533:3828   */\ntag_27:\n    /* \"#utility.yul\":3609:3613   */\n  0x00\n    /* \"#utility.yul\":3755:3784   */\n  tag_73\n    /* \"#utility.yul\":3780:3783   */\n  dup4\n    /* \"#utility.yul\":3774:3778   */\n  dup4\n    /* \"#utility.yul\":3755:3784   */\n  tag_26\n  jump\t// in\ntag_73:\n    /* \"#utility.yul\":3747:3784   */\n  swap2\n  pop\n    /* \"#utility.yul\":3817:3820   */\n  dup3\n    /* \"#utility.yul\":3814:3815   */\n  0x02\n    /* \"#utility.yul\":3810:3821   */\n  mul\n    /* \"#utility.yul\":3804:3808   */\n  dup3\n    /* \"#utility.yul\":3801:3822   */\n  or\n    /* \"#utility.yul\":3793:3822   */\n  swap1\n  pop\n    /* \"#utility.yul\":3533:3828   */\n  swap3\n  swap2\n  pop\n  pop\n  jump\t// out\n    /* \"#utility.yul\":3833:5228   */\ntag_2:\n    /* \"#utility.yul\":3950:3987   */\n  tag_75\n    /* \"#utility.yul\":3983:3986   */\n  dup3\n    /* \"#utility.yul\":3950:3987   */\n  tag_8\n  jump\t// in\ntag_75:\n    /* \"#utility.yul\":4052:4070   */\n  0xffffffffffffffff\n    /* \"#utility.yul\":4044:4050   */\n  dup2\n    /* \"#utility.yul\":4041:4071   */\n  gt\n    /* \"#utility.yul\":4038:4094   */\n  iszero\n  tag_76\n  jumpi\n    /* \"#utility.yul\":4074:4092   */\n  tag_77\n  tag_9\n  jump\t// in\ntag_77:\n    /* \"#utility.yul\":4038:4094   */\ntag_76:\n    /* \"#utility.yul\":4118:4156   */\n  tag_78\n    /* \"#utility.yul\":4150:4154   */\n  dup3\n    /* \"#utility.yul\":4144:4155   */\n  sload\n    /* \"#utility.yul\":4118:4156   */\n  tag_11\n  jump\t// in\ntag_78:\n    /* \"#utility.yul\":4203:4270   */\n  tag_79\n    /* \"#utility.yul\":4263:4269   */\n  dup3\n    /* \"#utility.yul\":4255:4261   */\n  dup3\n    /* \"#utility.yul\":4249:4253   */\n  dup6\n    /* \"#utility.yul\":4203:4270   */\n  tag_24\n  jump\t// in\ntag_79:\n    /* \"#utility.yul\":4297:4298   */\n  0x00\n    /* \"#utility.yul\":4321:4325   */\n  0x20\n    /* \"#utility.yul\":4308:4325   */\n  swap1\n  pop\n    /* \"#utility.yul\":4353:4355   */\n  0x1f\n    /* \"#utility.yul\":4345:4351   */\n  dup4\n    /* \"#utility.yul\":4342:4356   */\n  gt\n    /* \"#utility.yul\":4370:4371   */\n  0x01\n    /* \"#utility.yul\":4365:4983   */\n  dup2\n  eq\n  tag_81\n  jumpi\n    /* \"#utility.yul\":5027:5028   */\n  0x00\n    /* \"#utility.yul\":5044:5050   */\n  dup5\n    /* \"#utility.yul\":5041:5118   */\n  iszero\n  tag_82\n  jumpi\n    /* \"#utility.yul\":5093:5102   */\n  dup3\n    /* \"#utility.yul\":5088:5091   */\n  dup8\n    /* \"#utility.yul\":5084:5103   */\n  add\n    /* \"#utility.yul\":5078:5104   */\n  mload\n    /* \"#utility.yul\":5069:5104   */\n  swap1\n  pop\n    /* \"#utility.yul\":5041:5118   */\ntag_82:\n    /* \"#utility.yul\":5144:5211   */\n  tag_83\n    /* \"#utility.yul\":5204:5210   */\n  dup6\n    /* \"#utility.yul\":5197:5202   */\n  dup3\n    /* \"#utility.yul\":5144:5211   */\n  tag_27\n  jump\t// in\ntag_83:\n    /* \"#utility.yul\":5138:5142   */\n  dup7\n    /* \"#utility.yul\":5131:5212   */\n  sstore\n    /* \"#utility.yul\":5000:5222   */\n  pop\n    /* \"#utility.yul\":4335:5222   */\n  jump(tag_80)\n    /* \"#utility.yul\":4365:4983   */\ntag_81:\n    /* \"#utility.yul\":4417:4421   */\n  0x1f\n    /* \"#utility.yul\":4413:4422   */\n  not\n    /* \"#utility.yul\":4405:4411   */\n  dup5\n    /* \"#utility.yul\":4401:4423   */\n  and\n    /* \"#utility.yul\":4451:4488   */\n  tag_84\n    /* \"#utility.yul\":4483:4487   */\n  dup7\n    /* \"#utility.yul\":4451:4488   */\n  tag_12\n  jump\t// in\ntag_84:\n    /* \"#utility.yul\":4510:4511   */\n  0x00\n    /* \"#utility.yul\":4524:4732   */\ntag_85:\n    /* \"#utility.yul\":4538:4545   */\n  dup3\n    /* \"#utility.yul\":4535:4536   */\n  dup2\n    /* \"#utility.yul\":4532:4546   */\n  lt\n    /* \"#utility.yul\":4524:4732   */\n  iszero\n  tag_87\n  jumpi\n    /* \"#utility.yul\":4617:4626   */\n  dup5\n    /* \"#utility.yul\":4612:4615   */\n  dup10\n    /* \"#utility.yul\":4608:4627   */\n  add\n    /* \"#utility.yul\":4602:4628   */\n  mload\n    /* \"#utility.yul\":4594:4600   */\n  dup3\n    /* \"#utility.yul\":4587:4629   */\n  sstore\n    /* \"#utility.yul\":4668:4669   */\n  0x01\n    /* \"#utility.yul\":4660:4666   */\n  dup3\n    /* \"#utility.yul\":4656:4670   */\n  add\n    /* \"#utility.yul\":4646:4670   */\n  swap2\n  pop\n    /* \"#utility.yul\":4715:4717   */\n  0x20\n    /* \"#utility.yul\":4704:4713   */\n  dup6\n    /* \"#utility.yul\":4700:4718   */\n  add\n    /* \"#utility.yul\":4687:4718   */\n  swap5\n  pop\n    /* \"#utility.yul\":4561:4565   */\n  0x20\n    /* \"#utility.yul\":4558:4559   */\n  dup2\n    /* \"#utility.yul\":4554:4566   */\n  add\n    /* \"#utility.yul\":4549:4566   */\n  swap1\n  pop\n    /* \"#utility.yul\":4524:4732   */\n  jump(tag_85)\ntag_87:\n    /* \"#utility.yul\":4760:4766   */\n  dup7\n    /* \"#utility.yul\":4751:4758   */\n  dup4\n    /* \"#utility.yul\":4748:4767   */\n  lt\n    /* \"#utility.yul\":4745:4924   */\n  iszero\n  tag_88\n  jumpi\n    /* \"#utility.yul\":4818:4827   */\n  dup5\n    /* \"#utility.yul\":4813:4816   */\n  dup10\n    /* \"#utility.yul\":4809:4828   */\n  add\n    /* \"#utility.yul\":4803:4829   */\n  mload\n    /* \"#utility.yul\":4861:4909   */\n  tag_89\n    /* \"#utility.yul\":4903:4907   */\n  0x1f\n    /* \"#utility.yul\":4895:4901   */\n  dup10\n    /* \"#utility.yul\":4891:4908   */\n  and\n    /* \"#utility.yul\":4880:4889   */\n  dup3\n    /* \"#utility.yul\":4861:4909   */\n  tag_26\n  jump\t// in\ntag_89:\n    /* \"#utility.yul\":4853:4859   */\n  dup4\n    /* \"#utility.yul\":4846:4910   */\n  sstore\n    /* \"#utility.yul\":4768:4924   */\n  pop\n    /* \"#utility.yul\":4745:4924   */\ntag_88:\n    /* \"#utility.yul\":4970:4971   */\n  0x01\n    /* \"#utility.yul\":4966:4967   */\n  0x02\n    /* \"#utility.yul\":4958:4964   */\n  dup9\n    /* \"#utility.yul\":4954:4968   */\n  mul\n    /* \"#utility.yul\":4950:4972   */\n  add\n    /* \"#utility.yul\":4944:4948   */\n  dup9\n    /* \"#utility.yul\":4937:4973   */\n  sstore\n    /* \"#utility.yul\":4372:4983   */\n  pop\n  pop\n  pop\n    /* \"#utility.yul\":4335:5222   */\ntag_80:\n  pop\n    /* \"#utility.yul\":3925:5228   */\n  pop\n  pop\n  pop\n    /* \"#utility.yul\":3833:5228   */\n  pop\n  pop\n  jump\t// out\n    /* \"contracts/DDE.sol\":188:3907  contract DDE{... */\ntag_7:\n  dataSize(sub_0)\n  dup1\n  dataOffset(sub_0)\n  0x00\n  codecopy\n  0x00\n  return\nstop\n\nsub_0: assembly {\n        /* \"contracts/DDE.sol\":188:3907  contract DDE{... */\n      mstore(0x40, 0x80)\n      callvalue\n      dup1\n      iszero\n      tag_1\n      jumpi\n      0x00\n      dup1\n      revert\n    tag_1:\n      pop\n      jumpi(tag_2, lt(calldatasize, 0x04))\n      shr(0xe0, calldataload(0x00))\n      dup1\n      0x95d89b41\n      gt\n      tag_21\n      jumpi\n      dup1\n      0xa9059cbb\n      gt\n      tag_22\n      jumpi\n      dup1\n      0xa9059cbb\n      eq\n      tag_16\n      jumpi\n      dup1\n      0xab7b1c89\n      eq\n      tag_17\n      jumpi\n      dup1\n      0xb4eae1cb\n      eq\n      tag_18\n      jumpi\n      dup1\n      0xbcc46e83\n      eq\n      tag_19\n      jumpi\n      dup1\n      0xdd62ed3e\n      eq\n      tag_20\n      jumpi\n      jump(tag_2)\n    tag_22:\n      dup1\n      0x95d89b41\n      eq\n      tag_12\n      jumpi\n      dup1\n      0x9aae66f9\n      eq\n      tag_13\n      jumpi\n      dup1\n      0x9dc29fac\n      eq\n      tag_14\n      jumpi\n      dup1\n      0xa1bf2840\n      eq\n      tag_15\n      jumpi\n      jump(tag_2)\n    tag_21:\n      dup1\n      0x27e235e3\n      gt\n      tag_23\n      jumpi\n      dup1\n      0x27e235e3\n      eq\n      tag_7\n      jumpi\n      dup1\n      0x40c10f19\n      eq\n      tag_8\n      jumpi\n      dup1\n      0x70a08231\n      eq\n      tag_9\n      jumpi\n      dup1\n      0x8da5cb5b\n      eq\n      tag_10\n      jumpi\n      dup1\n      0x9110df85\n      eq\n      tag_11\n      jumpi\n      jump(tag_2)\n    tag_23:\n      dup1\n      0x06fdde03\n      eq\n      tag_3\n      jumpi\n      dup1\n      0x095ea7b3\n      eq\n      tag_4\n      jumpi\n      dup1\n      0x18160ddd\n      eq\n      tag_5\n      jumpi\n      dup1\n      0x23b872dd\n      eq\n      tag_6\n      jumpi\n    tag_2:\n      0x00\n      dup1\n      revert\n        /* \"contracts/DDE.sol\":202:251  string public name = \"Digital Deflazionitic Euro\" */\n    tag_3:\n      tag_24\n      tag_25\n      jump\t// in\n    tag_24:\n      mload(0x40)\n      tag_26\n      swap2\n      swap1\n      tag_27\n      jump\t// in\n    tag_26:\n      mload(0x40)\n      dup1\n      swap2\n      sub\n      swap1\n      return\n        /* \"contracts/DDE.sol\":2525:2697  function approve(address spender, uint256 value) external returns (bool) {... */\n    tag_4:\n      tag_28\n      0x04\n      dup1\n      calldatasize\n      sub\n      dup2\n      add\n      swap1\n      tag_29\n      swap2\n      swap1\n      tag_30\n      jump\t// in\n    tag_29:\n      tag_31\n      jump\t// in\n    tag_28:\n      mload(0x40)\n      tag_32\n      swap2\n      swap1\n      tag_33\n      jump\t// in\n    tag_32:\n      mload(0x40)\n      dup1\n      swap2\n      sub\n      swap1\n      return\n        /* \"contracts/DDE.sol\":283:324  uint256 public totalSupply = 1000 * 10**5 */\n    tag_5:\n      tag_34\n      tag_35\n      jump\t// in\n    tag_34:\n      mload(0x40)\n      tag_36\n      swap2\n      swap1\n      tag_37\n      jump\t// in\n    tag_36:\n      mload(0x40)\n      dup1\n      swap2\n      sub\n      swap1\n      return\n        /* \"contracts/DDE.sol\":2699:3054  function transferFrom(address from, address to, uint256 value) external returns (bool) {... */\n    tag_6:\n      tag_38\n      0x04\n      dup1\n      calldatasize\n      sub\n      dup2\n      add\n      swap1\n      tag_39\n      swap2\n      swap1\n      tag_40\n      jump\t// in\n    tag_39:\n      tag_41\n      jump\t// in\n    tag_38:\n      mload(0x40)\n      tag_42\n      swap2\n      swap1\n      tag_33\n      jump\t// in\n    tag_42:\n      mload(0x40)\n      dup1\n      swap2\n      sub\n      swap1\n      return\n        /* \"contracts/DDE.sol\":483:526  mapping(address => uint256) public balances */\n    tag_7:\n      tag_43\n      0x04\n      dup1\n      calldatasize\n      sub\n      dup2\n      add\n      swap1\n      tag_44\n      swap2\n      swap1\n      tag_45\n      jump\t// in\n    tag_44:\n      tag_46\n      jump\t// in\n    tag_43:\n      mload(0x40)\n      tag_47\n      swap2\n      swap1\n      tag_37\n      jump\t// in\n    tag_47:\n      mload(0x40)\n      dup1\n      swap2\n      sub\n      swap1\n      return\n        /* \"contracts/DDE.sol\":1420:1572  function mint(address to, uint256 value) public {... */\n    tag_8:\n      tag_48\n      0x04\n      dup1\n      calldatasize\n      sub\n      dup2\n      add\n      swap1\n      tag_49\n      swap2\n      swap1\n      tag_30\n      jump\t// in\n    tag_49:\n      tag_50\n      jump\t// in\n    tag_48:\n      stop\n        /* \"contracts/DDE.sol\":437:481  mapping(address => uint256) public balanceOf */\n    tag_9:\n      tag_51\n      0x04\n      dup1\n      calldatasize\n      sub\n      dup2\n      add\n      swap1\n      tag_52\n      swap2\n      swap1\n      tag_45\n      jump\t// in\n    tag_52:\n      tag_53\n      jump\t// in\n    tag_51:\n      mload(0x40)\n      tag_54\n      swap2\n      swap1\n      tag_37\n      jump\t// in\n    tag_54:\n      mload(0x40)\n      dup1\n      swap2\n      sub\n      swap1\n      return\n        /* \"contracts/DDE.sol\":357:377  address public owner */\n    tag_10:\n      tag_55\n      tag_56\n      jump\t// in\n    tag_55:\n      mload(0x40)\n      tag_57\n      swap2\n      swap1\n      tag_58\n      jump\t// in\n    tag_57:\n      mload(0x40)\n      dup1\n      swap2\n      sub\n      swap1\n      return\n        /* \"contracts/DDE.sol\":3056:3411  function lend(uint256 value, uint256 collateral) external {... */\n    tag_11:\n      tag_59\n      0x04\n      dup1\n      calldatasize\n      sub\n      dup2\n      add\n      swap1\n      tag_60\n      swap2\n      swap1\n      tag_61\n      jump\t// in\n    tag_60:\n      tag_62\n      jump\t// in\n    tag_59:\n      stop\n        /* \"contracts/DDE.sol\":253:281  string public symbol = \"DDE\" */\n    tag_12:\n      tag_63\n      tag_64\n      jump\t// in\n    tag_63:\n      mload(0x40)\n      tag_65\n      swap2\n      swap1\n      tag_27\n      jump\t// in\n    tag_65:\n      mload(0x40)\n      dup1\n      swap2\n      sub\n      swap1\n      return\n        /* \"contracts/DDE.sol\":594:640  mapping(address => uint256) public loanBalance */\n    tag_13:\n      tag_66\n      0x04\n      dup1\n      calldatasize\n      sub\n      dup2\n      add\n      swap1\n      tag_67\n      swap2\n      swap1\n      tag_45\n      jump\t// in\n    tag_67:\n      tag_68\n      jump\t// in\n    tag_66:\n      mload(0x40)\n      tag_69\n      swap2\n      swap1\n      tag_37\n      jump\t// in\n    tag_69:\n      mload(0x40)\n      dup1\n      swap2\n      sub\n      swap1\n      return\n        /* \"contracts/DDE.sol\":1629:1845  function burn(address from, uint256 value) public {... */\n    tag_14:\n      tag_70\n      0x04\n      dup1\n      calldatasize\n      sub\n      dup2\n      add\n      swap1\n      tag_71\n      swap2\n      swap1\n      tag_30\n      jump\t// in\n    tag_71:\n      tag_72\n      jump\t// in\n    tag_70:\n      stop\n        /* \"contracts/DDE.sol\":642:694  mapping(address => uint256) public collateralBalance */\n    tag_15:\n      tag_73\n      0x04\n      dup1\n      calldatasize\n      sub\n      dup2\n      add\n      swap1\n      tag_74\n      swap2\n      swap1\n      tag_45\n      jump\t// in\n    tag_74:\n      tag_75\n      jump\t// in\n    tag_73:\n      mload(0x40)\n      tag_76\n      swap2\n      swap1\n      tag_37\n      jump\t// in\n    tag_76:\n      mload(0x40)\n      dup1\n      swap2\n      sub\n      swap1\n      return\n        /* \"contracts/DDE.sol\":2279:2523  function transfer(address to, uint256 value) external returns (bool) {... */\n    tag_16:\n      tag_77\n      0x04\n      dup1\n      calldatasize\n      sub\n      dup2\n      add\n      swap1\n      tag_78\n      swap2\n      swap1\n      tag_30\n      jump\t// in\n    tag_78:\n      tag_79\n      jump\t// in\n    tag_77:\n      mload(0x40)\n      tag_80\n      swap2\n      swap1\n      tag_33\n      jump\t// in\n    tag_80:\n      mload(0x40)\n      dup1\n      swap2\n      sub\n      swap1\n      return\n        /* \"contracts/DDE.sol\":3413:3633  function repayLoan(uint256 value) external {... */\n    tag_17:\n      tag_81\n      0x04\n      dup1\n      calldatasize\n      sub\n      dup2\n      add\n      swap1\n      tag_82\n      swap2\n      swap1\n      tag_83\n      jump\t// in\n    tag_82:\n      tag_84\n      jump\t// in\n    tag_81:\n      stop\n        /* \"contracts/DDE.sol\":697:731  uint256 public collateralRatio = 1 */\n    tag_18:\n      tag_85\n      tag_86\n      jump\t// in\n    tag_85:\n      mload(0x40)\n      tag_87\n      swap2\n      swap1\n      tag_37\n      jump\t// in\n    tag_87:\n      mload(0x40)\n      dup1\n      swap2\n      sub\n      swap1\n      return\n        /* \"contracts/DDE.sol\":3635:3905  function addCollateral(uint256 collateral) external {... */\n    tag_19:\n      tag_88\n      0x04\n      dup1\n      calldatasize\n      sub\n      dup2\n      add\n      swap1\n      tag_89\n      swap2\n      swap1\n      tag_83\n      jump\t// in\n    tag_89:\n      tag_90\n      jump\t// in\n    tag_88:\n      stop\n        /* \"contracts/DDE.sol\":528:592  mapping(address => mapping(address => uint256)) public allowance */\n    tag_20:\n      tag_91\n      0x04\n      dup1\n      calldatasize\n      sub\n      dup2\n      add\n      swap1\n      tag_92\n      swap2\n      swap1\n      tag_93\n      jump\t// in\n    tag_92:\n      tag_94\n      jump\t// in\n    tag_91:\n      mload(0x40)\n      tag_95\n      swap2\n      swap1\n      tag_37\n      jump\t// in\n    tag_95:\n      mload(0x40)\n      dup1\n      swap2\n      sub\n      swap1\n      return\n        /* \"contracts/DDE.sol\":202:251  string public name = \"Digital Deflazionitic Euro\" */\n    tag_25:\n      0x00\n      dup1\n      sload\n      tag_96\n      swap1\n      tag_97\n      jump\t// in\n    tag_96:\n      dup1\n      0x1f\n      add\n      0x20\n      dup1\n      swap2\n      div\n      mul\n      0x20\n      add\n      mload(0x40)\n      swap1\n      dup2\n      add\n      0x40\n      mstore\n      dup1\n      swap3\n      swap2\n      swap1\n      dup2\n      dup2\n      mstore\n      0x20\n      add\n      dup3\n      dup1\n      sload\n      tag_98\n      swap1\n      tag_97\n      jump\t// in\n    tag_98:\n      dup1\n      iszero\n      tag_99\n      jumpi\n      dup1\n      0x1f\n      lt\n      tag_100\n      jumpi\n      0x0100\n      dup1\n      dup4\n      sload\n      div\n      mul\n      dup4\n      mstore\n      swap2\n      0x20\n      add\n      swap2\n      jump(tag_99)\n    tag_100:\n      dup3\n      add\n      swap2\n      swap1\n      0x00\n      mstore\n      keccak256(0x00, 0x20)\n      swap1\n    tag_101:\n      dup2\n      sload\n      dup2\n      mstore\n      swap1\n      0x01\n      add\n      swap1\n      0x20\n      add\n      dup1\n      dup4\n      gt\n      tag_101\n      jumpi\n      dup3\n      swap1\n      sub\n      0x1f\n      and\n      dup3\n      add\n      swap2\n    tag_99:\n      pop\n      pop\n      pop\n      pop\n      pop\n      dup2\n      jump\t// out\n        /* \"contracts/DDE.sol\":2525:2697  function approve(address spender, uint256 value) external returns (bool) {... */\n    tag_31:\n        /* \"contracts/DDE.sol\":2592:2596  bool */\n      0x00\n        /* \"contracts/DDE.sol\":2633:2638  value */\n      dup2\n        /* \"contracts/DDE.sol\":2600:2609  allowance */\n      0x06\n        /* \"contracts/DDE.sol\":2600:2621  allowance[msg.sender] */\n      0x00\n        /* \"contracts/DDE.sol\":2610:2620  msg.sender */\n      caller\n        /* \"contracts/DDE.sol\":2600:2621  allowance[msg.sender] */\n      0xffffffffffffffffffffffffffffffffffffffff\n      and\n      0xffffffffffffffffffffffffffffffffffffffff\n      and\n      dup2\n      mstore\n      0x20\n      add\n      swap1\n      dup2\n      mstore\n      0x20\n      add\n      0x00\n      keccak256\n        /* \"contracts/DDE.sol\":2600:2630  allowance[msg.sender][spender] */\n      0x00\n        /* \"contracts/DDE.sol\":2622:2629  spender */\n      dup6\n        /* \"contracts/DDE.sol\":2600:2630  allowance[msg.sender][spender] */\n      0xffffffffffffffffffffffffffffffffffffffff\n      and\n      0xffffffffffffffffffffffffffffffffffffffff\n      and\n      dup2\n      mstore\n      0x20\n      add\n      swap1\n      dup2\n      mstore\n      0x20\n      add\n      0x00\n      keccak256\n        /* \"contracts/DDE.sol\":2600:2638  allowance[msg.sender][spender] = value */\n      dup2\n      swap1\n      sstore\n      pop\n        /* \"contracts/DDE.sol\":2666:2673  spender */\n      dup3\n        /* \"contracts/DDE.sol\":2645:2681  Approval(msg.sender, spender, value) */\n      0xffffffffffffffffffffffffffffffffffffffff\n      and\n        /* \"contracts/DDE.sol\":2654:2664  msg.sender */\n      caller\n        /* \"contracts/DDE.sol\":2645:2681  Approval(msg.sender, spender, value) */\n      0xffffffffffffffffffffffffffffffffffffffff\n      and\n      0x8c5be1e5ebec7d5bd14f71427d1e84f3dd0314c0f7b2291e5b200ac8c7c3b925\n        /* \"contracts/DDE.sol\":2675:2680  value */\n      dup5\n        /* \"contracts/DDE.sol\":2645:2681  Approval(msg.sender, spender, value) */\n      mload(0x40)\n      tag_103\n      swap2\n      swap1\n      tag_37\n      jump\t// in\n    tag_103:\n      mload(0x40)\n      dup1\n      swap2\n      sub\n      swap1\n      log3\n        /* \"contracts/DDE.sol\":2690:2694  true */\n      0x01\n        /* \"contracts/DDE.sol\":2683:2694  return true */\n      swap1\n      pop\n        /* \"contracts/DDE.sol\":2525:2697  function approve(address spender, uint256 value) external returns (bool) {... */\n      swap3\n      swap2\n      pop\n      pop\n      jump\t// out\n        /* \"contracts/DDE.sol\":283:324  uint256 public totalSupply = 1000 * 10**5 */\n    tag_35:\n      sload(0x02)\n      dup2\n      jump\t// out\n        /* \"contracts/DDE.sol\":2699:3054  function transferFrom(address from, address to, uint256 value) external returns (bool) {... */\n    tag_41:\n        /* \"contracts/DDE.sol\":2780:2784  bool */\n      0x00\n        /* \"contracts/DDE.sol\":2815:2820  value */\n      dup2\n        /* \"contracts/DDE.sol\":2796:2805  balanceOf */\n      0x04\n        /* \"contracts/DDE.sol\":2796:2811  balanceOf[from] */\n      0x00\n        /* \"contracts/DDE.sol\":2806:2810  from */\n      dup7\n        /* \"contracts/DDE.sol\":2796:2811  balanceOf[from] */\n      0xffffffffffffffffffffffffffffffffffffffff\n      and\n      0xffffffffffffffffffffffffffffffffffffffff\n      and\n      dup2\n      mstore\n      0x20\n      add\n      swap1\n      dup2\n      mstore\n      0x20\n      add\n      0x00\n      keccak256\n      sload\n        /* \"contracts/DDE.sol\":2796:2820  balanceOf[from] >= value */\n      lt\n      iszero\n        /* \"contracts/DDE.sol\":2788:2845  require(balanceOf[from] >= value, \"Insufficient balance\") */\n      tag_105\n      jumpi\n      mload(0x40)\n      0x08c379a000000000000000000000000000000000000000000000000000000000\n      dup2\n      mstore\n      0x04\n      add\n      tag_106\n      swap1\n      tag_107\n      jump\t// in\n    tag_106:\n      mload(0x40)\n      dup1\n      swap2\n      sub\n      swap1\n      revert\n    tag_105:\n        /* \"contracts/DDE.sol\":2886:2891  value */\n      dup2\n        /* \"contracts/DDE.sol\":2855:2864  allowance */\n      0x06\n        /* \"contracts/DDE.sol\":2855:2870  allowance[from] */\n      0x00\n        /* \"contracts/DDE.sol\":2865:2869  from */\n      dup7\n        /* \"contracts/DDE.sol\":2855:2870  allowance[from] */\n      0xffffffffffffffffffffffffffffffffffffffff\n      and\n      0xffffffffffffffffffffffffffffffffffffffff\n      and\n      dup2\n      mstore\n      0x20\n      add\n      swap1\n      dup2\n      mstore\n      0x20\n      add\n      0x00\n      keccak256\n        /* \"contracts/DDE.sol\":2855:2882  allowance[from][msg.sender] */\n      0x00\n        /* \"contracts/DDE.sol\":2871:2881  msg.sender */\n      caller\n        /* \"contracts/DDE.sol\":2855:2882  allowance[from][msg.sender] */\n      0xffffffffffffffffffffffffffffffffffffffff\n      and\n      0xffffffffffffffffffffffffffffffffffffffff\n      and\n      dup2\n      mstore\n      0x20\n      add\n      swap1\n      dup2\n      mstore\n      0x20\n      add\n      0x00\n      keccak256\n      sload\n        /* \"contracts/DDE.sol\":2855:2891  allowance[from][msg.sender] >= value */\n      lt\n      iszero\n        /* \"contracts/DDE.sol\":2847:2918  require(allowance[from][msg.sender] >= value, \"Insufficient allowance\") */\n      tag_108\n      jumpi\n      mload(0x40)\n      0x08c379a000000000000000000000000000000000000000000000000000000000\n      dup2\n      mstore\n      0x04\n      add\n      tag_109\n      swap1\n      tag_110\n      jump\t// in\n    tag_109:\n      mload(0x40)\n      dup1\n      swap2\n      sub\n      swap1\n      revert\n    tag_108:\n        /* \"contracts/DDE.sol\":2939:2944  value */\n      dup2\n        /* \"contracts/DDE.sol\":2920:2929  balanceOf */\n      0x04\n        /* \"contracts/DDE.sol\":2920:2935  balanceOf[from] */\n      0x00\n        /* \"contracts/DDE.sol\":2930:2934  from */\n      dup7\n        /* \"contracts/DDE.sol\":2920:2935  balanceOf[from] */\n      0xffffffffffffffffffffffffffffffffffffffff\n      and\n      0xffffffffffffffffffffffffffffffffffffffff\n      and\n      dup2\n      mstore\n      0x20\n      add\n      swap1\n      dup2\n      mstore\n      0x20\n      add\n      0x00\n      keccak256\n      0x00\n        /* \"contracts/DDE.sol\":2920:2944  balanceOf[from] -= value */\n      dup3\n      dup3\n      sload\n      tag_111\n      swap2\n      swap1\n      tag_112\n      jump\t// in\n    tag_111:\n      swap3\n      pop\n      pop\n      dup2\n      swap1\n      sstore\n      pop\n        /* \"contracts/DDE.sol\":2963:2968  value */\n      dup2\n        /* \"contracts/DDE.sol\":2946:2955  balanceOf */\n      0x04\n        /* \"contracts/DDE.sol\":2946:2959  balanceOf[to] */\n      0x00\n        /* \"contracts/DDE.sol\":2956:2958  to */\n      dup6\n        /* \"contracts/DDE.sol\":2946:2959  balanceOf[to] */\n      0xffffffffffffffffffffffffffffffffffffffff\n      and\n      0xffffffffffffffffffffffffffffffffffffffff\n      and\n      dup2\n      mstore\n      0x20\n      add\n      swap1\n      dup2\n      mstore\n      0x20\n      add\n      0x00\n      keccak256\n      0x00\n        /* \"contracts/DDE.sol\":2946:2968  balanceOf[to] += value */\n      dup3\n      dup3\n      sload\n      tag_113\n      swap2\n      swap1\n      tag_114\n      jump\t// in\n    tag_113:\n      swap3\n      pop\n      pop\n      dup2\n      swap1\n      sstore\n      pop\n        /* \"contracts/DDE.sol\":3001:3006  value */\n      dup2\n        /* \"contracts/DDE.sol\":2970:2979  allowance */\n      0x06\n        /* \"contracts/DDE.sol\":2970:2985  allowance[from] */\n      0x00\n        /* \"contracts/DDE.sol\":2980:2984  from */\n      dup7\n        /* \"contracts/DDE.sol\":2970:2985  allowance[from] */\n      0xffffffffffffffffffffffffffffffffffffffff\n      and\n      0xffffffffffffffffffffffffffffffffffffffff\n      and\n      dup2\n      mstore\n      0x20\n      add\n      swap1\n      dup2\n      mstore\n      0x20\n      add\n      0x00\n      keccak256\n        /* \"contracts/DDE.sol\":2970:2997  allowance[from][msg.sender] */\n      0x00\n        /* \"contracts/DDE.sol\":2986:2996  msg.sender */\n      caller\n        /* \"contracts/DDE.sol\":2970:2997  allowance[from][msg.sender] */\n      0xffffffffffffffffffffffffffffffffffffffff\n      and\n      0xffffffffffffffffffffffffffffffffffffffff\n      and\n      dup2\n      mstore\n      0x20\n      add\n      swap1\n      dup2\n      mstore\n      0x20\n      add\n      0x00\n      keccak256\n      0x00\n        /* \"contracts/DDE.sol\":2970:3006  allowance[from][msg.sender] -= value */\n      dup3\n      dup3\n      sload\n      tag_115\n      swap2\n      swap1\n      tag_112\n      jump\t// in\n    tag_115:\n      swap3\n      pop\n      pop\n      dup2\n      swap1\n      sstore\n      pop\n        /* \"contracts/DDE.sol\":3028:3030  to */\n      dup3\n        /* \"contracts/DDE.sol\":3013:3038  Transfer(from, to, value) */\n      0xffffffffffffffffffffffffffffffffffffffff\n      and\n        /* \"contracts/DDE.sol\":3022:3026  from */\n      dup5\n        /* \"contracts/DDE.sol\":3013:3038  Transfer(from, to, value) */\n      0xffffffffffffffffffffffffffffffffffffffff\n      and\n      0xddf252ad1be2c89b69c2b068fc378daa952ba7f163c4a11628f55a4df523b3ef\n        /* \"contracts/DDE.sol\":3032:3037  value */\n      dup5\n        /* \"contracts/DDE.sol\":3013:3038  Transfer(from, to, value) */\n      mload(0x40)\n      tag_116\n      swap2\n      swap1\n      tag_37\n      jump\t// in\n    tag_116:\n      mload(0x40)\n      dup1\n      swap2\n      sub\n      swap1\n      log3\n        /* \"contracts/DDE.sol\":3047:3051  true */\n      0x01\n        /* \"contracts/DDE.sol\":3040:3051  return true */\n      swap1\n      pop\n        /* \"contracts/DDE.sol\":2699:3054  function transferFrom(address from, address to, uint256 value) external returns (bool) {... */\n      swap4\n      swap3\n      pop\n      pop\n      pop\n      jump\t// out\n        /* \"contracts/DDE.sol\":483:526  mapping(address => uint256) public balances */\n    tag_46:\n      mstore(0x20, 0x05)\n      dup1\n      0x00\n      mstore\n      keccak256(0x00, 0x40)\n      0x00\n      swap2\n      pop\n      swap1\n      pop\n      sload\n      dup2\n      jump\t// out\n        /* \"contracts/DDE.sol\":1420:1572  function mint(address to, uint256 value) public {... */\n    tag_50:\n        /* \"contracts/DDE.sol\":1493:1498  owner */\n      0x03\n      0x00\n      swap1\n      sload\n      swap1\n      0x0100\n      exp\n      swap1\n      div\n      0xffffffffffffffffffffffffffffffffffffffff\n      and\n        /* \"contracts/DDE.sol\":1479:1498  msg.sender == owner */\n      0xffffffffffffffffffffffffffffffffffffffff\n      and\n        /* \"contracts/DDE.sol\":1479:1489  msg.sender */\n      caller\n        /* \"contracts/DDE.sol\":1479:1498  msg.sender == owner */\n      0xffffffffffffffffffffffffffffffffffffffff\n      and\n      eq\n        /* \"contracts/DDE.sol\":1471:1499  require(msg.sender == owner) */\n      tag_118\n      jumpi\n      0x00\n      dup1\n      revert\n    tag_118:\n        /* \"contracts/DDE.sol\":1518:1523  value */\n      dup1\n        /* \"contracts/DDE.sol\":1502:1510  balances */\n      0x05\n        /* \"contracts/DDE.sol\":1502:1514  balances[to] */\n      0x00\n        /* \"contracts/DDE.sol\":1511:1513  to */\n      dup5\n        /* \"contracts/DDE.sol\":1502:1514  balances[to] */\n      0xffffffffffffffffffffffffffffffffffffffff\n      and\n      0xffffffffffffffffffffffffffffffffffffffff\n      and\n      dup2\n      mstore\n      0x20\n      add\n      swap1\n      dup2\n      mstore\n      0x20\n      add\n      0x00\n      keccak256\n      0x00\n        /* \"contracts/DDE.sol\":1502:1523  balances[to] += value */\n      dup3\n      dup3\n      sload\n      tag_119\n      swap2\n      swap1\n      tag_114\n      jump\t// in\n    tag_119:\n      swap3\n      pop\n      pop\n      dup2\n      swap1\n      sstore\n      pop\n        /* \"contracts/DDE.sol\":1541:1546  value */\n      dup1\n        /* \"contracts/DDE.sol\":1526:1537  totalSupply */\n      0x02\n      0x00\n        /* \"contracts/DDE.sol\":1526:1546  totalSupply += value */\n      dup3\n      dup3\n      sload\n      tag_120\n      swap2\n      swap1\n      tag_114\n      jump\t// in\n    tag_120:\n      swap3\n      pop\n      pop\n      dup2\n      swap1\n      sstore\n      pop\n        /* \"contracts/DDE.sol\":1559:1561  to */\n      dup2\n        /* \"contracts/DDE.sol\":1554:1569  Mint(to, value) */\n      0xffffffffffffffffffffffffffffffffffffffff\n      and\n      0x0f6798a560793a54c3bcfe86a93cde1e73087d944c0ea20544137d4121396885\n        /* \"contracts/DDE.sol\":1563:1568  value */\n      dup3\n        /* \"contracts/DDE.sol\":1554:1569  Mint(to, value) */\n      mload(0x40)\n      tag_121\n      swap2\n      swap1\n      tag_37\n      jump\t// in\n    tag_121:\n      mload(0x40)\n      dup1\n      swap2\n      sub\n      swap1\n      log2\n        /* \"contracts/DDE.sol\":1420:1572  function mint(address to, uint256 value) public {... */\n      pop\n      pop\n      jump\t// out\n        /* \"contracts/DDE.sol\":437:481  mapping(address => uint256) public balanceOf */\n    tag_53:\n      mstore(0x20, 0x04)\n      dup1\n      0x00\n      mstore\n      keccak256(0x00, 0x40)\n      0x00\n      swap2\n      pop\n      swap1\n      pop\n      sload\n      dup2\n      jump\t// out\n        /* \"contracts/DDE.sol\":357:377  address public owner */\n    tag_56:\n      0x03\n      0x00\n      swap1\n      sload\n      swap1\n      0x0100\n      exp\n      swap1\n      div\n      0xffffffffffffffffffffffffffffffffffffffff\n      and\n      dup2\n      jump\t// out\n        /* \"contracts/DDE.sol\":3056:3411  function lend(uint256 value, uint256 collateral) external {... */\n    tag_62:\n        /* \"contracts/DDE.sol\":3149:3154  value */\n      dup2\n        /* \"contracts/DDE.sol\":3124:3133  balanceOf */\n      0x04\n        /* \"contracts/DDE.sol\":3124:3145  balanceOf[msg.sender] */\n      0x00\n        /* \"contracts/DDE.sol\":3134:3144  msg.sender */\n      caller\n        /* \"contracts/DDE.sol\":3124:3145  balanceOf[msg.sender] */\n      0xffffffffffffffffffffffffffffffffffffffff\n      and\n      0xffffffffffffffffffffffffffffffffffffffff\n      and\n      dup2\n      mstore\n      0x20\n      add\n      swap1\n      dup2\n      mstore\n      0x20\n      add\n      0x00\n      keccak256\n      sload\n        /* \"contracts/DDE.sol\":3124:3154  balanceOf[msg.sender] >= value */\n      lt\n      iszero\n        /* \"contracts/DDE.sol\":3116:3179  require(balanceOf[msg.sender] >= value, \"Insufficient balance\") */\n      tag_123\n      jumpi\n      mload(0x40)\n      0x08c379a000000000000000000000000000000000000000000000000000000000\n      dup2\n      mstore\n      0x04\n      add\n      tag_124\n      swap1\n      tag_107\n      jump\t// in\n    tag_124:\n      mload(0x40)\n      dup1\n      swap2\n      sub\n      swap1\n      revert\n    tag_123:\n        /* \"contracts/DDE.sol\":3211:3226  collateralRatio */\n      sload(0x09)\n        /* \"contracts/DDE.sol\":3203:3208  value */\n      dup3\n        /* \"contracts/DDE.sol\":3203:3226  value / collateralRatio */\n      tag_125\n      swap2\n      swap1\n      tag_126\n      jump\t// in\n    tag_125:\n        /* \"contracts/DDE.sol\":3189:3199  collateral */\n      dup2\n        /* \"contracts/DDE.sol\":3189:3226  collateral >= value / collateralRatio */\n      lt\n      iszero\n        /* \"contracts/DDE.sol\":3181:3254  require(collateral >= value / collateralRatio, \"Insufficient collateral\") */\n      tag_127\n      jumpi\n      mload(0x40)\n      0x08c379a000000000000000000000000000000000000000000000000000000000\n      dup2\n      mstore\n      0x04\n      add\n      tag_128\n      swap1\n      tag_129\n      jump\t// in\n    tag_128:\n      mload(0x40)\n      dup1\n      swap2\n      sub\n      swap1\n      revert\n    tag_127:\n        /* \"contracts/DDE.sol\":3282:3287  value */\n      dup2\n        /* \"contracts/DDE.sol\":3257:3266  balanceOf */\n      0x04\n        /* \"contracts/DDE.sol\":3257:3278  balanceOf[msg.sender] */\n      0x00\n        /* \"contracts/DDE.sol\":3267:3277  msg.sender */\n      caller\n        /* \"contracts/DDE.sol\":3257:3278  balanceOf[msg.sender] */\n      0xffffffffffffffffffffffffffffffffffffffff\n      and\n      0xffffffffffffffffffffffffffffffffffffffff\n      and\n      dup2\n      mstore\n      0x20\n      add\n      swap1\n      dup2\n      mstore\n      0x20\n      add\n      0x00\n      keccak256\n      0x00\n        /* \"contracts/DDE.sol\":3257:3287  balanceOf[msg.sender] -= value */\n      dup3\n      dup3\n      sload\n      tag_130\n      swap2\n      swap1\n      tag_112\n      jump\t// in\n    tag_130:\n      swap3\n      pop\n      pop\n      dup2\n      swap1\n      sstore\n      pop\n        /* \"contracts/DDE.sol\":3316:3321  value */\n      dup2\n        /* \"contracts/DDE.sol\":3289:3300  loanBalance */\n      0x07\n        /* \"contracts/DDE.sol\":3289:3312  loanBalance[msg.sender] */\n      0x00\n        /* \"contracts/DDE.sol\":3301:3311  msg.sender */\n      caller\n        /* \"contracts/DDE.sol\":3289:3312  loanBalance[msg.sender] */\n      0xffffffffffffffffffffffffffffffffffffffff\n      and\n      0xffffffffffffffffffffffffffffffffffffffff\n      and\n      dup2\n      mstore\n      0x20\n      add\n      swap1\n      dup2\n      mstore\n      0x20\n      add\n      0x00\n      keccak256\n      0x00\n        /* \"contracts/DDE.sol\":3289:3321  loanBalance[msg.sender] += value */\n      dup3\n      dup3\n      sload\n      tag_131\n      swap2\n      swap1\n      tag_114\n      jump\t// in\n    tag_131:\n      swap3\n      pop\n      pop\n      dup2\n      swap1\n      sstore\n      pop\n        /* \"contracts/DDE.sol\":3356:3366  collateral */\n      dup1\n        /* \"contracts/DDE.sol\":3323:3340  collateralBalance */\n      0x08\n        /* \"contracts/DDE.sol\":3323:3352  collateralBalance[msg.sender] */\n      0x00\n        /* \"contracts/DDE.sol\":3341:3351  msg.sender */\n      caller\n        /* \"contracts/DDE.sol\":3323:3352  collateralBalance[msg.sender] */\n      0xffffffffffffffffffffffffffffffffffffffff\n      and\n      0xffffffffffffffffffffffffffffffffffffffff\n      and\n      dup2\n      mstore\n      0x20\n      add\n      swap1\n      dup2\n      mstore\n      0x20\n      add\n      0x00\n      keccak256\n      0x00\n        /* \"contracts/DDE.sol\":3323:3366  collateralBalance[msg.sender] += collateral */\n      dup3\n      dup3\n      sload\n      tag_132\n      swap2\n      swap1\n      tag_114\n      jump\t// in\n    tag_132:\n      swap3\n      pop\n      pop\n      dup2\n      swap1\n      sstore\n      pop\n        /* \"contracts/DDE.sol\":3378:3388  msg.sender */\n      caller\n        /* \"contracts/DDE.sol\":3373:3408  Loan(msg.sender, value, collateral) */\n      0xffffffffffffffffffffffffffffffffffffffff\n      and\n      0xe73e31007d63465eceaabfae515099de1ee3152614bd2824a7e75ce65517ae16\n        /* \"contracts/DDE.sol\":3390:3395  value */\n      dup4\n        /* \"contracts/DDE.sol\":3397:3407  collateral */\n      dup4\n        /* \"contracts/DDE.sol\":3373:3408  Loan(msg.sender, value, collateral) */\n      mload(0x40)\n      tag_133\n      swap3\n      swap2\n      swap1\n      tag_134\n      jump\t// in\n    tag_133:\n      mload(0x40)\n      dup1\n      swap2\n      sub\n      swap1\n      log2\n        /* \"contracts/DDE.sol\":3056:3411  function lend(uint256 value, uint256 collateral) external {... */\n      pop\n      pop\n      jump\t// out\n        /* \"contracts/DDE.sol\":253:281  string public symbol = \"DDE\" */\n    tag_64:\n      0x01\n      dup1\n      sload\n      tag_135\n      swap1\n      tag_97\n      jump\t// in\n    tag_135:\n      dup1\n      0x1f\n      add\n      0x20\n      dup1\n      swap2\n      div\n      mul\n      0x20\n      add\n      mload(0x40)\n      swap1\n      dup2\n      add\n      0x40\n      mstore\n      dup1\n      swap3\n      swap2\n      swap1\n      dup2\n      dup2\n      mstore\n      0x20\n      add\n      dup3\n      dup1\n      sload\n      tag_136\n      swap1\n      tag_97\n      jump\t// in\n    tag_136:\n      dup1\n      iszero\n      tag_137\n      jumpi\n      dup1\n      0x1f\n      lt\n      tag_138\n      jumpi\n      0x0100\n      dup1\n      dup4\n      sload\n      div\n      mul\n      dup4\n      mstore\n      swap2\n      0x20\n      add\n      swap2\n      jump(tag_137)\n    tag_138:\n      dup3\n      add\n      swap2\n      swap1\n      0x00\n      mstore\n      keccak256(0x00, 0x20)\n      swap1\n    tag_139:\n      dup2\n      sload\n      dup2\n      mstore\n      swap1\n      0x01\n      add\n      swap1\n      0x20\n      add\n      dup1\n      dup4\n      gt\n      tag_139\n      jumpi\n      dup3\n      swap1\n      sub\n      0x1f\n      and\n      dup3\n      add\n      swap2\n    tag_137:\n      pop\n      pop\n      pop\n      pop\n      pop\n      dup2\n      jump\t// out\n        /* \"contracts/DDE.sol\":594:640  mapping(address => uint256) public loanBalance */\n    tag_68:\n      mstore(0x20, 0x07)\n      dup1\n      0x00\n      mstore\n      keccak256(0x00, 0x40)\n      0x00\n      swap2\n      pop\n      swap1\n      pop\n      sload\n      dup2\n      jump\t// out\n        /* \"contracts/DDE.sol\":1629:1845  function burn(address from, uint256 value) public {... */\n    tag_72:\n        /* \"contracts/DDE.sol\":1704:1709  owner */\n      0x03\n      0x00\n      swap1\n      sload\n      swap1\n      0x0100\n      exp\n      swap1\n      div\n      0xffffffffffffffffffffffffffffffffffffffff\n      and\n        /* \"contracts/DDE.sol\":1690:1709  msg.sender == owner */\n      0xffffffffffffffffffffffffffffffffffffffff\n      and\n        /* \"contracts/DDE.sol\":1690:1700  msg.sender */\n      caller\n        /* \"contracts/DDE.sol\":1690:1709  msg.sender == owner */\n      0xffffffffffffffffffffffffffffffffffffffff\n      and\n      eq\n        /* \"contracts/DDE.sol\":1682:1710  require(msg.sender == owner) */\n      tag_141\n      jumpi\n      0x00\n      dup1\n      revert\n    tag_141:\n        /* \"contracts/DDE.sol\":1739:1744  value */\n      dup1\n        /* \"contracts/DDE.sol\":1721:1729  balances */\n      0x05\n        /* \"contracts/DDE.sol\":1721:1735  balances[from] */\n      0x00\n        /* \"contracts/DDE.sol\":1730:1734  from */\n      dup5\n        /* \"contracts/DDE.sol\":1721:1735  balances[from] */\n      0xffffffffffffffffffffffffffffffffffffffff\n      and\n      0xffffffffffffffffffffffffffffffffffffffff\n      and\n      dup2\n      mstore\n      0x20\n      add\n      swap1\n      dup2\n      mstore\n      0x20\n      add\n      0x00\n      keccak256\n      sload\n        /* \"contracts/DDE.sol\":1721:1744  balances[from] >= value */\n      lt\n      iszero\n        /* \"contracts/DDE.sol\":1713:1768  require(balances[from] >= value, \"Saldo insufficiente\") */\n      tag_142\n      jumpi\n      mload(0x40)\n      0x08c379a000000000000000000000000000000000000000000000000000000000\n      dup2\n      mstore\n      0x04\n      add\n      tag_143\n      swap1\n      tag_144\n      jump\t// in\n    tag_143:\n      mload(0x40)\n      dup1\n      swap2\n      sub\n      swap1\n      revert\n    tag_142:\n        /* \"contracts/DDE.sol\":1789:1794  value */\n      dup1\n        /* \"contracts/DDE.sol\":1771:1779  balances */\n      0x05\n        /* \"contracts/DDE.sol\":1771:1785  balances[from] */\n      0x00\n        /* \"contracts/DDE.sol\":1780:1784  from */\n      dup5\n        /* \"contracts/DDE.sol\":1771:1785  balances[from] */\n      0xffffffffffffffffffffffffffffffffffffffff\n      and\n      0xffffffffffffffffffffffffffffffffffffffff\n      and\n      dup2\n      mstore\n      0x20\n      add\n      swap1\n      dup2\n      mstore\n      0x20\n      add\n      0x00\n      keccak256\n      0x00\n        /* \"contracts/DDE.sol\":1771:1794  balances[from] -= value */\n      dup3\n      dup3\n      sload\n      tag_145\n      swap2\n      swap1\n      tag_112\n      jump\t// in\n    tag_145:\n      swap3\n      pop\n      pop\n      dup2\n      swap1\n      sstore\n      pop\n        /* \"contracts/DDE.sol\":1812:1817  value */\n      dup1\n        /* \"contracts/DDE.sol\":1797:1808  totalSupply */\n      0x02\n      0x00\n        /* \"contracts/DDE.sol\":1797:1817  totalSupply -= value */\n      dup3\n      dup3\n      sload\n      tag_146\n      swap2\n      swap1\n      tag_112\n      jump\t// in\n    tag_146:\n      swap3\n      pop\n      pop\n      dup2\n      swap1\n      sstore\n      pop\n        /* \"contracts/DDE.sol\":1830:1834  from */\n      dup2\n        /* \"contracts/DDE.sol\":1825:1842  Burn(from, value) */\n      0xffffffffffffffffffffffffffffffffffffffff\n      and\n      0xcc16f5dbb4873280815c1ee09dbd06736cffcc184412cf7a71a0fdb75d397ca5\n        /* \"contracts/DDE.sol\":1836:1841  value */\n      dup3\n        /* \"contracts/DDE.sol\":1825:1842  Burn(from, value) */\n      mload(0x40)\n      tag_147\n      swap2\n      swap1\n      tag_37\n      jump\t// in\n    tag_147:\n      mload(0x40)\n      dup1\n      swap2\n      sub\n      swap1\n      log2\n        /* \"contracts/DDE.sol\":1629:1845  function burn(address from, uint256 value) public {... */\n      pop\n      pop\n      jump\t// out\n        /* \"contracts/DDE.sol\":642:694  mapping(address => uint256) public collateralBalance */\n    tag_75:\n      mstore(0x20, 0x08)\n      dup1\n      0x00\n      mstore\n      keccak256(0x00, 0x40)\n      0x00\n      swap2\n      pop\n      swap1\n      pop\n      sload\n      dup2\n      jump\t// out\n        /* \"contracts/DDE.sol\":2279:2523  function transfer(address to, uint256 value) external returns (bool) {... */\n    tag_79:\n        /* \"contracts/DDE.sol\":2342:2346  bool */\n      0x00\n        /* \"contracts/DDE.sol\":2383:2388  value */\n      dup2\n        /* \"contracts/DDE.sol\":2358:2367  balanceOf */\n      0x04\n        /* \"contracts/DDE.sol\":2358:2379  balanceOf[msg.sender] */\n      0x00\n        /* \"contracts/DDE.sol\":2368:2378  msg.sender */\n      caller\n        /* \"contracts/DDE.sol\":2358:2379  balanceOf[msg.sender] */\n      0xffffffffffffffffffffffffffffffffffffffff\n      and\n      0xffffffffffffffffffffffffffffffffffffffff\n      and\n      dup2\n      mstore\n      0x20\n      add\n      swap1\n      dup2\n      mstore\n      0x20\n      add\n      0x00\n      keccak256\n      sload\n        /* \"contracts/DDE.sol\":2358:2388  balanceOf[msg.sender] >= value */\n      lt\n      iszero\n        /* \"contracts/DDE.sol\":2350:2413  require(balanceOf[msg.sender] >= value, \"Insufficient balance\") */\n      tag_149\n      jumpi\n      mload(0x40)\n      0x08c379a000000000000000000000000000000000000000000000000000000000\n      dup2\n      mstore\n      0x04\n      add\n      tag_150\n      swap1\n      tag_107\n      jump\t// in\n    tag_150:\n      mload(0x40)\n      dup1\n      swap2\n      sub\n      swap1\n      revert\n    tag_149:\n        /* \"contracts/DDE.sol\":2440:2445  value */\n      dup2\n        /* \"contracts/DDE.sol\":2415:2424  balanceOf */\n      0x04\n        /* \"contracts/DDE.sol\":2415:2436  balanceOf[msg.sender] */\n      0x00\n        /* \"contracts/DDE.sol\":2425:2435  msg.sender */\n      caller\n        /* \"contracts/DDE.sol\":2415:2436  balanceOf[msg.sender] */\n      0xffffffffffffffffffffffffffffffffffffffff\n      and\n      0xffffffffffffffffffffffffffffffffffffffff\n      and\n      dup2\n      mstore\n      0x20\n      add\n      swap1\n      dup2\n      mstore\n      0x20\n      add\n      0x00\n      keccak256\n      0x00\n        /* \"contracts/DDE.sol\":2415:2445  balanceOf[msg.sender] -= value */\n      dup3\n      dup3\n      sload\n      tag_151\n      swap2\n      swap1\n      tag_112\n      jump\t// in\n    tag_151:\n      swap3\n      pop\n      pop\n      dup2\n      swap1\n      sstore\n      pop\n        /* \"contracts/DDE.sol\":2464:2469  value */\n      dup2\n        /* \"contracts/DDE.sol\":2447:2456  balanceOf */\n      0x04\n        /* \"contracts/DDE.sol\":2447:2460  balanceOf[to] */\n      0x00\n        /* \"contracts/DDE.sol\":2457:2459  to */\n      dup6\n        /* \"contracts/DDE.sol\":2447:2460  balanceOf[to] */\n      0xffffffffffffffffffffffffffffffffffffffff\n      and\n      0xffffffffffffffffffffffffffffffffffffffff\n      and\n      dup2\n      mstore\n      0x20\n      add\n      swap1\n      dup2\n      mstore\n      0x20\n      add\n      0x00\n      keccak256\n      0x00\n        /* \"contracts/DDE.sol\":2447:2469  balanceOf[to] += value */\n      dup3\n      dup3\n      sload\n      tag_152\n      swap2\n      swap1\n      tag_114\n      jump\t// in\n    tag_152:\n      swap3\n      pop\n      pop\n      dup2\n      swap1\n      sstore\n      pop\n        /* \"contracts/DDE.sol\":2497:2499  to */\n      dup3\n        /* \"contracts/DDE.sol\":2476:2507  Transfer(msg.sender, to, value) */\n      0xffffffffffffffffffffffffffffffffffffffff\n      and\n        /* \"contracts/DDE.sol\":2485:2495  msg.sender */\n      caller\n        /* \"contracts/DDE.sol\":2476:2507  Transfer(msg.sender, to, value) */\n      0xffffffffffffffffffffffffffffffffffffffff\n      and\n      0xddf252ad1be2c89b69c2b068fc378daa952ba7f163c4a11628f55a4df523b3ef\n        /* \"contracts/DDE.sol\":2501:2506  value */\n      dup5\n        /* \"contracts/DDE.sol\":2476:2507  Transfer(msg.sender, to, value) */\n      mload(0x40)\n      tag_153\n      swap2\n      swap1\n      tag_37\n      jump\t// in\n    tag_153:\n      mload(0x40)\n      dup1\n      swap2\n      sub\n      swap1\n      log3\n        /* \"contracts/DDE.sol\":2516:2520  true */\n      0x01\n        /* \"contracts/DDE.sol\":2509:2520  return true */\n      swap1\n      pop\n        /* \"contracts/DDE.sol\":2279:2523  function transfer(address to, uint256 value) external returns (bool) {... */\n      swap3\n      swap2\n      pop\n      pop\n      jump\t// out\n        /* \"contracts/DDE.sol\":3413:3633  function repayLoan(uint256 value) external {... */\n    tag_84:\n        /* \"contracts/DDE.sol\":3493:3498  value */\n      dup1\n        /* \"contracts/DDE.sol\":3466:3477  loanBalance */\n      0x07\n        /* \"contracts/DDE.sol\":3466:3489  loanBalance[msg.sender] */\n      0x00\n        /* \"contracts/DDE.sol\":3478:3488  msg.sender */\n      caller\n        /* \"contracts/DDE.sol\":3466:3489  loanBalance[msg.sender] */\n      0xffffffffffffffffffffffffffffffffffffffff\n      and\n      0xffffffffffffffffffffffffffffffffffffffff\n      and\n      dup2\n      mstore\n      0x20\n      add\n      swap1\n      dup2\n      mstore\n      0x20\n      add\n      0x00\n      keccak256\n      sload\n        /* \"contracts/DDE.sol\":3466:3498  loanBalance[msg.sender] >= value */\n      lt\n      iszero\n        /* \"contracts/DDE.sol\":3458:3528  require(loanBalance[msg.sender] >= value, \"Insufficient loan balance\") */\n      tag_155\n      jumpi\n      mload(0x40)\n      0x08c379a000000000000000000000000000000000000000000000000000000000\n      dup2\n      mstore\n      0x04\n      add\n      tag_156\n      swap1\n      tag_157\n      jump\t// in\n    tag_156:\n      mload(0x40)\n      dup1\n      swap2\n      sub\n      swap1\n      revert\n    tag_155:\n        /* \"contracts/DDE.sol\":3558:3563  value */\n      dup1\n        /* \"contracts/DDE.sol\":3531:3542  loanBalance */\n      0x07\n        /* \"contracts/DDE.sol\":3531:3554  loanBalance[msg.sender] */\n      0x00\n        /* \"contracts/DDE.sol\":3543:3553  msg.sender */\n      caller\n        /* \"contracts/DDE.sol\":3531:3554  loanBalance[msg.sender] */\n      0xffffffffffffffffffffffffffffffffffffffff\n      and\n      0xffffffffffffffffffffffffffffffffffffffff\n      and\n      dup2\n      mstore\n      0x20\n      add\n      swap1\n      dup2\n      mstore\n      0x20\n      add\n      0x00\n      keccak256\n      0x00\n        /* \"contracts/DDE.sol\":3531:3563  loanBalance[msg.sender] -= value */\n      dup3\n      dup3\n      sload\n      tag_158\n      swap2\n      swap1\n      tag_112\n      jump\t// in\n    tag_158:\n      swap3\n      pop\n      pop\n      dup2\n      swap1\n      sstore\n      pop\n        /* \"contracts/DDE.sol\":3590:3595  value */\n      dup1\n        /* \"contracts/DDE.sol\":3565:3574  balanceOf */\n      0x04\n        /* \"contracts/DDE.sol\":3565:3586  balanceOf[msg.sender] */\n      0x00\n        /* \"contracts/DDE.sol\":3575:3585  msg.sender */\n      caller\n        /* \"contracts/DDE.sol\":3565:3586  balanceOf[msg.sender] */\n      0xffffffffffffffffffffffffffffffffffffffff\n      and\n      0xffffffffffffffffffffffffffffffffffffffff\n      and\n      dup2\n      mstore\n      0x20\n      add\n      swap1\n      dup2\n      mstore\n      0x20\n      add\n      0x00\n      keccak256\n      0x00\n        /* \"contracts/DDE.sol\":3565:3595  balanceOf[msg.sender] += value */\n      dup3\n      dup3\n      sload\n      tag_159\n      swap2\n      swap1\n      tag_114\n      jump\t// in\n    tag_159:\n      swap3\n      pop\n      pop\n      dup2\n      swap1\n      sstore\n      pop\n        /* \"contracts/DDE.sol\":3612:3622  msg.sender */\n      caller\n        /* \"contracts/DDE.sol\":3602:3630  Repayment(msg.sender, value) */\n      0xffffffffffffffffffffffffffffffffffffffff\n      and\n      0xbb284f7f8cb8b1b8c98ee9a7d765413efc44bbb17352a0302ada1d737cdaef1b\n        /* \"contracts/DDE.sol\":3624:3629  value */\n      dup3\n        /* \"contracts/DDE.sol\":3602:3630  Repayment(msg.sender, value) */\n      mload(0x40)\n      tag_160\n      swap2\n      swap1\n      tag_37\n      jump\t// in\n    tag_160:\n      mload(0x40)\n      dup1\n      swap2\n      sub\n      swap1\n      log2\n        /* \"contracts/DDE.sol\":3413:3633  function repayLoan(uint256 value) external {... */\n      pop\n      jump\t// out\n        /* \"contracts/DDE.sol\":697:731  uint256 public collateralRatio = 1 */\n    tag_86:\n      sload(0x09)\n      dup2\n      jump\t// out\n        /* \"contracts/DDE.sol\":3635:3905  function addCollateral(uint256 collateral) external {... */\n    tag_90:\n        /* \"contracts/DDE.sol\":3722:3732  collateral */\n      dup1\n        /* \"contracts/DDE.sol\":3697:3706  balanceOf */\n      0x04\n        /* \"contracts/DDE.sol\":3697:3718  balanceOf[msg.sender] */\n      0x00\n        /* \"contracts/DDE.sol\":3707:3717  msg.sender */\n      caller\n        /* \"contracts/DDE.sol\":3697:3718  balanceOf[msg.sender] */\n      0xffffffffffffffffffffffffffffffffffffffff\n      and\n      0xffffffffffffffffffffffffffffffffffffffff\n      and\n      dup2\n      mstore\n      0x20\n      add\n      swap1\n      dup2\n      mstore\n      0x20\n      add\n      0x00\n      keccak256\n      sload\n        /* \"contracts/DDE.sol\":3697:3732  balanceOf[msg.sender] >= collateral */\n      lt\n      iszero\n        /* \"contracts/DDE.sol\":3689:3772  require(balanceOf[msg.sender] >= collateral, \"Insufficient balance for collateral\") */\n      tag_162\n      jumpi\n      mload(0x40)\n      0x08c379a000000000000000000000000000000000000000000000000000000000\n      dup2\n      mstore\n      0x04\n      add\n      tag_163\n      swap1\n      tag_164\n      jump\t// in\n    tag_163:\n      mload(0x40)\n      dup1\n      swap2\n      sub\n      swap1\n      revert\n    tag_162:\n        /* \"contracts/DDE.sol\":3800:3810  collateral */\n      dup1\n        /* \"contracts/DDE.sol\":3775:3784  balanceOf */\n      0x04\n        /* \"contracts/DDE.sol\":3775:3796  balanceOf[msg.sender] */\n      0x00\n        /* \"contracts/DDE.sol\":3785:3795  msg.sender */\n      caller\n        /* \"contracts/DDE.sol\":3775:3796  balanceOf[msg.sender] */\n      0xffffffffffffffffffffffffffffffffffffffff\n      and\n      0xffffffffffffffffffffffffffffffffffffffff\n      and\n      dup2\n      mstore\n      0x20\n      add\n      swap1\n      dup2\n      mstore\n      0x20\n      add\n      0x00\n      keccak256\n      0x00\n        /* \"contracts/DDE.sol\":3775:3810  balanceOf[msg.sender] -= collateral */\n      dup3\n      dup3\n      sload\n      tag_165\n      swap2\n      swap1\n      tag_112\n      jump\t// in\n    tag_165:\n      swap3\n      pop\n      pop\n      dup2\n      swap1\n      sstore\n      pop\n        /* \"contracts/DDE.sol\":3845:3855  collateral */\n      dup1\n        /* \"contracts/DDE.sol\":3812:3829  collateralBalance */\n      0x08\n        /* \"contracts/DDE.sol\":3812:3841  collateralBalance[msg.sender] */\n      0x00\n        /* \"contracts/DDE.sol\":3830:3840  msg.sender */\n      caller\n        /* \"contracts/DDE.sol\":3812:3841  collateralBalance[msg.sender] */\n      0xffffffffffffffffffffffffffffffffffffffff\n      and\n      0xffffffffffffffffffffffffffffffffffffffff\n      and\n      dup2\n      mstore\n      0x20\n      add\n      swap1\n      dup2\n      mstore\n      0x20\n      add\n      0x00\n      keccak256\n      0x00\n        /* \"contracts/DDE.sol\":3812:3855  collateralBalance[msg.sender] += collateral */\n      dup3\n      dup3\n      sload\n      tag_166\n      swap2\n      swap1\n      tag_114\n      jump\t// in\n    tag_166:\n      swap3\n      pop\n      pop\n      dup2\n      swap1\n      sstore\n      pop\n        /* \"contracts/DDE.sol\":3879:3889  msg.sender */\n      caller\n        /* \"contracts/DDE.sol\":3863:3902  CollateralAdded(msg.sender, collateral) */\n      0xffffffffffffffffffffffffffffffffffffffff\n      and\n      0x7dba1be544024070cd5eebfa8bdd80a8b198cea8058c7d3cc1f8dd36e41ab2f7\n        /* \"contracts/DDE.sol\":3891:3901  collateral */\n      dup3\n        /* \"contracts/DDE.sol\":3863:3902  CollateralAdded(msg.sender, collateral) */\n      mload(0x40)\n      tag_167\n      swap2\n      swap1\n      tag_37\n      jump\t// in\n    tag_167:\n      mload(0x40)\n      dup1\n      swap2\n      sub\n      swap1\n      log2\n        /* \"contracts/DDE.sol\":3635:3905  function addCollateral(uint256 collateral) external {... */\n      pop\n      jump\t// out\n        /* \"contracts/DDE.sol\":528:592  mapping(address => mapping(address => uint256)) public allowance */\n    tag_94:\n      mstore(0x20, 0x06)\n      dup2\n      0x00\n      mstore\n      mstore(0x20, keccak256(0x00, 0x40))\n      dup1\n      0x00\n      mstore\n      keccak256(0x00, 0x40)\n      0x00\n      swap2\n      pop\n      swap2\n      pop\n      pop\n      sload\n      dup2\n      jump\t// out\n        /* \"#utility.yul\":7:106   */\n    tag_168:\n        /* \"#utility.yul\":59:65   */\n      0x00\n        /* \"#utility.yul\":93:98   */\n      dup2\n        /* \"#utility.yul\":87:99   */\n      mload\n        /* \"#utility.yul\":77:99   */\n      swap1\n      pop\n        /* \"#utility.yul\":7:106   */\n      swap2\n      swap1\n      pop\n      jump\t// out\n        /* \"#utility.yul\":112:281   */\n    tag_169:\n        /* \"#utility.yul\":196:207   */\n      0x00\n        /* \"#utility.yul\":230:236   */\n      dup3\n        /* \"#utility.yul\":225:228   */\n      dup3\n        /* \"#utility.yul\":218:237   */\n      mstore\n        /* \"#utility.yul\":270:274   */\n      0x20\n        /* \"#utility.yul\":265:268   */\n      dup3\n        /* \"#utility.yul\":261:275   */\n      add\n        /* \"#utility.yul\":246:275   */\n      swap1\n      pop\n        /* \"#utility.yul\":112:281   */\n      swap3\n      swap2\n      pop\n      pop\n      jump\t// out\n        /* \"#utility.yul\":287:533   */\n    tag_170:\n        /* \"#utility.yul\":368:369   */\n      0x00\n        /* \"#utility.yul\":378:491   */\n    tag_206:\n        /* \"#utility.yul\":392:398   */\n      dup4\n        /* \"#utility.yul\":389:390   */\n      dup2\n        /* \"#utility.yul\":386:399   */\n      lt\n        /* \"#utility.yul\":378:491   */\n      iszero\n      tag_208\n      jumpi\n        /* \"#utility.yul\":477:478   */\n      dup1\n        /* \"#utility.yul\":472:475   */\n      dup3\n        /* \"#utility.yul\":468:479   */\n      add\n        /* \"#utility.yul\":462:480   */\n      mload\n        /* \"#utility.yul\":458:459   */\n      dup2\n        /* \"#utility.yul\":453:456   */\n      dup5\n        /* \"#utility.yul\":449:460   */\n      add\n        /* \"#utility.yul\":442:481   */\n      mstore\n        /* \"#utility.yul\":414:416   */\n      0x20\n        /* \"#utility.yul\":411:412   */\n      dup2\n        /* \"#utility.yul\":407:417   */\n      add\n        /* \"#utility.yul\":402:417   */\n      swap1\n      pop\n        /* \"#utility.yul\":378:491   */\n      jump(tag_206)\n    tag_208:\n        /* \"#utility.yul\":525:526   */\n      0x00\n        /* \"#utility.yul\":516:522   */\n      dup5\n        /* \"#utility.yul\":511:514   */\n      dup5\n        /* \"#utility.yul\":507:523   */\n      add\n        /* \"#utility.yul\":500:527   */\n      mstore\n        /* \"#utility.yul\":349:533   */\n      pop\n        /* \"#utility.yul\":287:533   */\n      pop\n      pop\n      pop\n      jump\t// out\n        /* \"#utility.yul\":539:641   */\n    tag_171:\n        /* \"#utility.yul\":580:586   */\n      0x00\n        /* \"#utility.yul\":631:633   */\n      0x1f\n        /* \"#utility.yul\":627:634   */\n      not\n        /* \"#utility.yul\":622:624   */\n      0x1f\n        /* \"#utility.yul\":615:620   */\n      dup4\n        /* \"#utility.yul\":611:625   */\n      add\n        /* \"#utility.yul\":607:635   */\n      and\n        /* \"#utility.yul\":597:635   */\n      swap1\n      pop\n        /* \"#utility.yul\":539:641   */\n      swap2\n      swap1\n      pop\n      jump\t// out\n        /* \"#utility.yul\":647:1024   */\n    tag_172:\n        /* \"#utility.yul\":735:738   */\n      0x00\n        /* \"#utility.yul\":763:802   */\n      tag_211\n        /* \"#utility.yul\":796:801   */\n      dup3\n        /* \"#utility.yul\":763:802   */\n      tag_168\n      jump\t// in\n    tag_211:\n        /* \"#utility.yul\":818:889   */\n      tag_212\n        /* \"#utility.yul\":882:888   */\n      dup2\n        /* \"#utility.yul\":877:880   */\n      dup6\n        /* \"#utility.yul\":818:889   */\n      tag_169\n      jump\t// in\n    tag_212:\n        /* \"#utility.yul\":811:889   */\n      swap4\n      pop\n        /* \"#utility.yul\":898:963   */\n      tag_213\n        /* \"#utility.yul\":956:962   */\n      dup2\n        /* \"#utility.yul\":951:954   */\n      dup6\n        /* \"#utility.yul\":944:948   */\n      0x20\n        /* \"#utility.yul\":937:942   */\n      dup7\n        /* \"#utility.yul\":933:949   */\n      add\n        /* \"#utility.yul\":898:963   */\n      tag_170\n      jump\t// in\n    tag_213:\n        /* \"#utility.yul\":988:1017   */\n      tag_214\n        /* \"#utility.yul\":1010:1016   */\n      dup2\n        /* \"#utility.yul\":988:1017   */\n      tag_171\n      jump\t// in\n    tag_214:\n        /* \"#utility.yul\":983:986   */\n      dup5\n        /* \"#utility.yul\":979:1018   */\n      add\n        /* \"#utility.yul\":972:1018   */\n      swap2\n      pop\n        /* \"#utility.yul\":739:1024   */\n      pop\n        /* \"#utility.yul\":647:1024   */\n      swap3\n      swap2\n      pop\n      pop\n      jump\t// out\n        /* \"#utility.yul\":1030:1343   */\n    tag_27:\n        /* \"#utility.yul\":1143:1147   */\n      0x00\n        /* \"#utility.yul\":1181:1183   */\n      0x20\n        /* \"#utility.yul\":1170:1179   */\n      dup3\n        /* \"#utility.yul\":1166:1184   */\n      add\n        /* \"#utility.yul\":1158:1184   */\n      swap1\n      pop\n        /* \"#utility.yul\":1230:1239   */\n      dup2\n        /* \"#utility.yul\":1224:1228   */\n      dup2\n        /* \"#utility.yul\":1220:1240   */\n      sub\n        /* \"#utility.yul\":1216:1217   */\n      0x00\n        /* \"#utility.yul\":1205:1214   */\n      dup4\n        /* \"#utility.yul\":1201:1218   */\n      add\n        /* \"#utility.yul\":1194:1241   */\n      mstore\n        /* \"#utility.yul\":1258:1336   */\n      tag_216\n        /* \"#utility.yul\":1331:1335   */\n      dup2\n        /* \"#utility.yul\":1322:1328   */\n      dup5\n        /* \"#utility.yul\":1258:1336   */\n      tag_172\n      jump\t// in\n    tag_216:\n        /* \"#utility.yul\":1250:1336   */\n      swap1\n      pop\n        /* \"#utility.yul\":1030:1343   */\n      swap3\n      swap2\n      pop\n      pop\n      jump\t// out\n        /* \"#utility.yul\":1430:1547   */\n    tag_174:\n        /* \"#utility.yul\":1539:1540   */\n      0x00\n        /* \"#utility.yul\":1536:1537   */\n      dup1\n        /* \"#utility.yul\":1529:1541   */\n      revert\n        /* \"#utility.yul\":1676:1802   */\n    tag_176:\n        /* \"#utility.yul\":1713:1720   */\n      0x00\n        /* \"#utility.yul\":1753:1795   */\n      0xffffffffffffffffffffffffffffffffffffffff\n        /* \"#utility.yul\":1746:1751   */\n      dup3\n        /* \"#utility.yul\":1742:1796   */\n      and\n        /* \"#utility.yul\":1731:1796   */\n      swap1\n      pop\n        /* \"#utility.yul\":1676:1802   */\n      swap2\n      swap1\n      pop\n      jump\t// out\n        /* \"#utility.yul\":1808:1904   */\n    tag_177:\n        /* \"#utility.yul\":1845:1852   */\n      0x00\n        /* \"#utility.yul\":1874:1898   */\n      tag_222\n        /* \"#utility.yul\":1892:1897   */\n      dup3\n        /* \"#utility.yul\":1874:1898   */\n      tag_176\n      jump\t// in\n    tag_222:\n        /* \"#utility.yul\":1863:1898   */\n      swap1\n      pop\n        /* \"#utility.yul\":1808:1904   */\n      swap2\n      swap1\n      pop\n      jump\t// out\n        /* \"#utility.yul\":1910:2032   */\n    tag_178:\n        /* \"#utility.yul\":1983:2007   */\n      tag_224\n        /* \"#utility.yul\":2001:2006   */\n      dup2\n        /* \"#utility.yul\":1983:2007   */\n      tag_177\n      jump\t// in\n    tag_224:\n        /* \"#utility.yul\":1976:1981   */\n      dup2\n        /* \"#utility.yul\":1973:2008   */\n      eq\n        /* \"#utility.yul\":1963:2026   */\n      tag_225\n      jumpi\n        /* \"#utility.yul\":2022:2023   */\n      0x00\n        /* \"#utility.yul\":2019:2020   */\n      dup1\n        /* \"#utility.yul\":2012:2024   */\n      revert\n        /* \"#utility.yul\":1963:2026   */\n    tag_225:\n        /* \"#utility.yul\":1910:2032   */\n      pop\n      jump\t// out\n        /* \"#utility.yul\":2038:2177   */\n    tag_179:\n        /* \"#utility.yul\":2084:2089   */\n      0x00\n        /* \"#utility.yul\":2122:2128   */\n      dup2\n        /* \"#utility.yul\":2109:2129   */\n      calldataload\n        /* \"#utility.yul\":2100:2129   */\n      swap1\n      pop\n        /* \"#utility.yul\":2138:2171   */\n      tag_227\n        /* \"#utility.yul\":2165:2170   */\n      dup2\n        /* \"#utility.yul\":2138:2171   */\n      tag_178\n      jump\t// in\n    tag_227:\n        /* \"#utility.yul\":2038:2177   */\n      swap3\n      swap2\n      pop\n      pop\n      jump\t// out\n        /* \"#utility.yul\":2183:2260   */\n    tag_180:\n        /* \"#utility.yul\":2220:2227   */\n      0x00\n        /* \"#utility.yul\":2249:2254   */\n      dup2\n        /* \"#utility.yul\":2238:2254   */\n      swap1\n      pop\n        /* \"#utility.yul\":2183:2260   */\n      swap2\n      swap1\n      pop\n      jump\t// out\n        /* \"#utility.yul\":2266:2388   */\n    tag_181:\n        /* \"#utility.yul\":2339:2363   */\n      tag_230\n        /* \"#utility.yul\":2357:2362   */\n      dup2\n        /* \"#utility.yul\":2339:2363   */\n      tag_180\n      jump\t// in\n    tag_230:\n        /* \"#utility.yul\":2332:2337   */\n      dup2\n        /* \"#utility.yul\":2329:2364   */\n      eq\n        /* \"#utility.yul\":2319:2382   */\n      tag_231\n      jumpi\n        /* \"#utility.yul\":2378:2379   */\n      0x00\n        /* \"#utility.yul\":2375:2376   */\n      dup1\n        /* \"#utility.yul\":2368:2380   */\n      revert\n        /* \"#utility.yul\":2319:2382   */\n    tag_231:\n        /* \"#utility.yul\":2266:2388   */\n      pop\n      jump\t// out\n        /* \"#utility.yul\":2394:2533   */\n    tag_182:\n        /* \"#utility.yul\":2440:2445   */\n      0x00\n        /* \"#utility.yul\":2478:2484   */\n      dup2\n        /* \"#utility.yul\":2465:2485   */\n      calldataload\n        /* \"#utility.yul\":2456:2485   */\n      swap1\n      pop\n        /* \"#utility.yul\":2494:2527   */\n      tag_233\n        /* \"#utility.yul\":2521:2526   */\n      dup2\n        /* \"#utility.yul\":2494:2527   */\n      tag_181\n      jump\t// in\n    tag_233:\n        /* \"#utility.yul\":2394:2533   */\n      swap3\n      swap2\n      pop\n      pop\n      jump\t// out\n        /* \"#utility.yul\":2539:3013   */\n    tag_30:\n        /* \"#utility.yul\":2607:2613   */\n      0x00\n        /* \"#utility.yul\":2615:2621   */\n      dup1\n        /* \"#utility.yul\":2664:2666   */\n      0x40\n        /* \"#utility.yul\":2652:2661   */\n      dup4\n        /* \"#utility.yul\":2643:2650   */\n      dup6\n        /* \"#utility.yul\":2639:2662   */\n      sub\n        /* \"#utility.yul\":2635:2667   */\n      slt\n        /* \"#utility.yul\":2632:2751   */\n      iszero\n      tag_235\n      jumpi\n        /* \"#utility.yul\":2670:2749   */\n      tag_236\n      tag_174\n      jump\t// in\n    tag_236:\n        /* \"#utility.yul\":2632:2751   */\n    tag_235:\n        /* \"#utility.yul\":2790:2791   */\n      0x00\n        /* \"#utility.yul\":2815:2868   */\n      tag_237\n        /* \"#utility.yul\":2860:2867   */\n      dup6\n        /* \"#utility.yul\":2851:2857   */\n      dup3\n        /* \"#utility.yul\":2840:2849   */\n      dup7\n        /* \"#utility.yul\":2836:2858   */\n      add\n        /* \"#utility.yul\":2815:2868   */\n      tag_179\n      jump\t// in\n    tag_237:\n        /* \"#utility.yul\":2805:2868   */\n      swap3\n      pop\n        /* \"#utility.yul\":2761:2878   */\n      pop\n        /* \"#utility.yul\":2917:2919   */\n      0x20\n        /* \"#utility.yul\":2943:2996   */\n      tag_238\n        /* \"#utility.yul\":2988:2995   */\n      dup6\n        /* \"#utility.yul\":2979:2985   */\n      dup3\n        /* \"#utility.yul\":2968:2977   */\n      dup7\n        /* \"#utility.yul\":2964:2986   */\n      add\n        /* \"#utility.yul\":2943:2996   */\n      tag_182\n      jump\t// in\n    tag_238:\n        /* \"#utility.yul\":2933:2996   */\n      swap2\n      pop\n        /* \"#utility.yul\":2888:3006   */\n      pop\n        /* \"#utility.yul\":2539:3013   */\n      swap3\n      pop\n      swap3\n      swap1\n      pop\n      jump\t// out\n        /* \"#utility.yul\":3019:3109   */\n    tag_183:\n        /* \"#utility.yul\":3053:3060   */\n      0x00\n        /* \"#utility.yul\":3096:3101   */\n      dup2\n        /* \"#utility.yul\":3089:3102   */\n      iszero\n        /* \"#utility.yul\":3082:3103   */\n      iszero\n        /* \"#utility.yul\":3071:3103   */\n      swap1\n      pop\n        /* \"#utility.yul\":3019:3109   */\n      swap2\n      swap1\n      pop\n      jump\t// out\n        /* \"#utility.yul\":3115:3224   */\n    tag_184:\n        /* \"#utility.yul\":3196:3217   */\n      tag_241\n        /* \"#utility.yul\":3211:3216   */\n      dup2\n        /* \"#utility.yul\":3196:3217   */\n      tag_183\n      jump\t// in\n    tag_241:\n        /* \"#utility.yul\":3191:3194   */\n      dup3\n        /* \"#utility.yul\":3184:3218   */\n      mstore\n        /* \"#utility.yul\":3115:3224   */\n      pop\n      pop\n      jump\t// out\n        /* \"#utility.yul\":3230:3440   */\n    tag_33:\n        /* \"#utility.yul\":3317:3321   */\n      0x00\n        /* \"#utility.yul\":3355:3357   */\n      0x20\n        /* \"#utility.yul\":3344:3353   */\n      dup3\n        /* \"#utility.yul\":3340:3358   */\n      add\n        /* \"#utility.yul\":3332:3358   */\n      swap1\n      pop\n        /* \"#utility.yul\":3368:3433   */\n      tag_243\n        /* \"#utility.yul\":3430:3431   */\n      0x00\n        /* \"#utility.yul\":3419:3428   */\n      dup4\n        /* \"#utility.yul\":3415:3432   */\n      add\n        /* \"#utility.yul\":3406:3412   */\n      dup5\n        /* \"#utility.yul\":3368:3433   */\n      tag_184\n      jump\t// in\n    tag_243:\n        /* \"#utility.yul\":3230:3440   */\n      swap3\n      swap2\n      pop\n      pop\n      jump\t// out\n        /* \"#utility.yul\":3446:3564   */\n    tag_185:\n        /* \"#utility.yul\":3533:3557   */\n      tag_245\n        /* \"#utility.yul\":3551:3556   */\n      dup2\n        /* \"#utility.yul\":3533:3557   */\n      tag_180\n      jump\t// in\n    tag_245:\n        /* \"#utility.yul\":3528:3531   */\n      dup3\n        /* \"#utility.yul\":3521:3558   */\n      mstore\n        /* \"#utility.yul\":3446:3564   */\n      pop\n      pop\n      jump\t// out\n        /* \"#utility.yul\":3570:3792   */\n    tag_37:\n        /* \"#utility.yul\":3663:3667   */\n      0x00\n        /* \"#utility.yul\":3701:3703   */\n      0x20\n        /* \"#utility.yul\":3690:3699   */\n      dup3\n        /* \"#utility.yul\":3686:3704   */\n      add\n        /* \"#utility.yul\":3678:3704   */\n      swap1\n      pop\n        /* \"#utility.yul\":3714:3785   */\n      tag_247\n        /* \"#utility.yul\":3782:3783   */\n      0x00\n        /* \"#utility.yul\":3771:3780   */\n      dup4\n        /* \"#utility.yul\":3767:3784   */\n      add\n        /* \"#utility.yul\":3758:3764   */\n      dup5\n        /* \"#utility.yul\":3714:3785   */\n      tag_185\n      jump\t// in\n    tag_247:\n        /* \"#utility.yul\":3570:3792   */\n      swap3\n      swap2\n      pop\n      pop\n      jump\t// out\n        /* \"#utility.yul\":3798:4417   */\n    tag_40:\n        /* \"#utility.yul\":3875:3881   */\n      0x00\n        /* \"#utility.yul\":3883:3889   */\n      dup1\n        /* \"#utility.yul\":3891:3897   */\n      0x00\n        /* \"#utility.yul\":3940:3942   */\n      0x60\n        /* \"#utility.yul\":3928:3937   */\n      dup5\n        /* \"#utility.yul\":3919:3926   */\n      dup7\n        /* \"#utility.yul\":3915:3938   */\n      sub\n        /* \"#utility.yul\":3911:3943   */\n      slt\n        /* \"#utility.yul\":3908:4027   */\n      iszero\n      tag_249\n      jumpi\n        /* \"#utility.yul\":3946:4025   */\n      tag_250\n      tag_174\n      jump\t// in\n    tag_250:\n        /* \"#utility.yul\":3908:4027   */\n    tag_249:\n        /* \"#utility.yul\":4066:4067   */\n      0x00\n        /* \"#utility.yul\":4091:4144   */\n      tag_251\n        /* \"#utility.yul\":4136:4143   */\n      dup7\n        /* \"#utility.yul\":4127:4133   */\n      dup3\n        /* \"#utility.yul\":4116:4125   */\n      dup8\n        /* \"#utility.yul\":4112:4134   */\n      add\n        /* \"#utility.yul\":4091:4144   */\n      tag_179\n      jump\t// in\n    tag_251:\n        /* \"#utility.yul\":4081:4144   */\n      swap4\n      pop\n        /* \"#utility.yul\":4037:4154   */\n      pop\n        /* \"#utility.yul\":4193:4195   */\n      0x20\n        /* \"#utility.yul\":4219:4272   */\n      tag_252\n        /* \"#utility.yul\":4264:4271   */\n      dup7\n        /* \"#utility.yul\":4255:4261   */\n      dup3\n        /* \"#utility.yul\":4244:4253   */\n      dup8\n        /* \"#utility.yul\":4240:4262   */\n      add\n        /* \"#utility.yul\":4219:4272   */\n      tag_179\n      jump\t// in\n    tag_252:\n        /* \"#utility.yul\":4209:4272   */\n      swap3\n      pop\n        /* \"#utility.yul\":4164:4282   */\n      pop\n        /* \"#utility.yul\":4321:4323   */\n      0x40\n        /* \"#utility.yul\":4347:4400   */\n      tag_253\n        /* \"#utility.yul\":4392:4399   */\n      dup7\n        /* \"#utility.yul\":4383:4389   */\n      dup3\n        /* \"#utility.yul\":4372:4381   */\n      dup8\n        /* \"#utility.yul\":4368:4390   */\n      add\n        /* \"#utility.yul\":4347:4400   */\n      tag_182\n      jump\t// in\n    tag_253:\n        /* \"#utility.yul\":4337:4400   */\n      swap2\n      pop\n        /* \"#utility.yul\":4292:4410   */\n      pop\n        /* \"#utility.yul\":3798:4417   */\n      swap3\n      pop\n      swap3\n      pop\n      swap3\n      jump\t// out\n        /* \"#utility.yul\":4423:4752   */\n    tag_45:\n        /* \"#utility.yul\":4482:4488   */\n      0x00\n        /* \"#utility.yul\":4531:4533   */\n      0x20\n        /* \"#utility.yul\":4519:4528   */\n      dup3\n        /* \"#utility.yul\":4510:4517   */\n      dup5\n        /* \"#utility.yul\":4506:4529   */\n      sub\n        /* \"#utility.yul\":4502:4534   */\n      slt\n        /* \"#utility.yul\":4499:4618   */\n      iszero\n      tag_255\n      jumpi\n        /* \"#utility.yul\":4537:4616   */\n      tag_256\n      tag_174\n      jump\t// in\n    tag_256:\n        /* \"#utility.yul\":4499:4618   */\n    tag_255:\n        /* \"#utility.yul\":4657:4658   */\n      0x00\n        /* \"#utility.yul\":4682:4735   */\n      tag_257\n        /* \"#utility.yul\":4727:4734   */\n      dup5\n        /* \"#utility.yul\":4718:4724   */\n      dup3\n        /* \"#utility.yul\":4707:4716   */\n      dup6\n        /* \"#utility.yul\":4703:4725   */\n      add\n        /* \"#utility.yul\":4682:4735   */\n      tag_179\n      jump\t// in\n    tag_257:\n        /* \"#utility.yul\":4672:4735   */\n      swap2\n      pop\n        /* \"#utility.yul\":4628:4745   */\n      pop\n        /* \"#utility.yul\":4423:4752   */\n      swap3\n      swap2\n      pop\n      pop\n      jump\t// out\n        /* \"#utility.yul\":4758:4876   */\n    tag_186:\n        /* \"#utility.yul\":4845:4869   */\n      tag_259\n        /* \"#utility.yul\":4863:4868   */\n      dup2\n        /* \"#utility.yul\":4845:4869   */\n      tag_177\n      jump\t// in\n    tag_259:\n        /* \"#utility.yul\":4840:4843   */\n      dup3\n        /* \"#utility.yul\":4833:4870   */\n      mstore\n        /* \"#utility.yul\":4758:4876   */\n      pop\n      pop\n      jump\t// out\n        /* \"#utility.yul\":4882:5104   */\n    tag_58:\n        /* \"#utility.yul\":4975:4979   */\n      0x00\n        /* \"#utility.yul\":5013:5015   */\n      0x20\n        /* \"#utility.yul\":5002:5011   */\n      dup3\n        /* \"#utility.yul\":4998:5016   */\n      add\n        /* \"#utility.yul\":4990:5016   */\n      swap1\n      pop\n        /* \"#utility.yul\":5026:5097   */\n      tag_261\n        /* \"#utility.yul\":5094:5095   */\n      0x00\n        /* \"#utility.yul\":5083:5092   */\n      dup4\n        /* \"#utility.yul\":5079:5096   */\n      add\n        /* \"#utility.yul\":5070:5076   */\n      dup5\n        /* \"#utility.yul\":5026:5097   */\n      tag_186\n      jump\t// in\n    tag_261:\n        /* \"#utility.yul\":4882:5104   */\n      swap3\n      swap2\n      pop\n      pop\n      jump\t// out\n        /* \"#utility.yul\":5110:5584   */\n    tag_61:\n        /* \"#utility.yul\":5178:5184   */\n      0x00\n        /* \"#utility.yul\":5186:5192   */\n      dup1\n        /* \"#utility.yul\":5235:5237   */\n      0x40\n        /* \"#utility.yul\":5223:5232   */\n      dup4\n        /* \"#utility.yul\":5214:5221   */\n      dup6\n        /* \"#utility.yul\":5210:5233   */\n      sub\n        /* \"#utility.yul\":5206:5238   */\n      slt\n        /* \"#utility.yul\":5203:5322   */\n      iszero\n      tag_263\n      jumpi\n        /* \"#utility.yul\":5241:5320   */\n      tag_264\n      tag_174\n      jump\t// in\n    tag_264:\n        /* \"#utility.yul\":5203:5322   */\n    tag_263:\n        /* \"#utility.yul\":5361:5362   */\n      0x00\n        /* \"#utility.yul\":5386:5439   */\n      tag_265\n        /* \"#utility.yul\":5431:5438   */\n      dup6\n        /* \"#utility.yul\":5422:5428   */\n      dup3\n        /* \"#utility.yul\":5411:5420   */\n      dup7\n        /* \"#utility.yul\":5407:5429   */\n      add\n        /* \"#utility.yul\":5386:5439   */\n      tag_182\n      jump\t// in\n    tag_265:\n        /* \"#utility.yul\":5376:5439   */\n      swap3\n      pop\n        /* \"#utility.yul\":5332:5449   */\n      pop\n        /* \"#utility.yul\":5488:5490   */\n      0x20\n        /* \"#utility.yul\":5514:5567   */\n      tag_266\n        /* \"#utility.yul\":5559:5566   */\n      dup6\n        /* \"#utility.yul\":5550:5556   */\n      dup3\n        /* \"#utility.yul\":5539:5548   */\n      dup7\n        /* \"#utility.yul\":5535:5557   */\n      add\n        /* \"#utility.yul\":5514:5567   */\n      tag_182\n      jump\t// in\n    tag_266:\n        /* \"#utility.yul\":5504:5567   */\n      swap2\n      pop\n        /* \"#utility.yul\":5459:5577   */\n      pop\n        /* \"#utility.yul\":5110:5584   */\n      swap3\n      pop\n      swap3\n      swap1\n      pop\n      jump\t// out\n        /* \"#utility.yul\":5590:5919   */\n    tag_83:\n        /* \"#utility.yul\":5649:5655   */\n      0x00\n        /* \"#utility.yul\":5698:5700   */\n      0x20\n        /* \"#utility.yul\":5686:5695   */\n      dup3\n        /* \"#utility.yul\":5677:5684   */\n      dup5\n        /* \"#utility.yul\":5673:5696   */\n      sub\n        /* \"#utility.yul\":5669:5701   */\n      slt\n        /* \"#utility.yul\":5666:5785   */\n      iszero\n      tag_268\n      jumpi\n        /* \"#utility.yul\":5704:5783   */\n      tag_269\n      tag_174\n      jump\t// in\n    tag_269:\n        /* \"#utility.yul\":5666:5785   */\n    tag_268:\n        /* \"#utility.yul\":5824:5825   */\n      0x00\n        /* \"#utility.yul\":5849:5902   */\n      tag_270\n        /* \"#utility.yul\":5894:5901   */\n      dup5\n        /* \"#utility.yul\":5885:5891   */\n      dup3\n        /* \"#utility.yul\":5874:5883   */\n      dup6\n        /* \"#utility.yul\":5870:5892   */\n      add\n        /* \"#utility.yul\":5849:5902   */\n      tag_182\n      jump\t// in\n    tag_270:\n        /* \"#utility.yul\":5839:5902   */\n      swap2\n      pop\n        /* \"#utility.yul\":5795:5912   */\n      pop\n        /* \"#utility.yul\":5590:5919   */\n      swap3\n      swap2\n      pop\n      pop\n      jump\t// out\n        /* \"#utility.yul\":5925:6399   */\n    tag_93:\n        /* \"#utility.yul\":5993:5999   */\n      0x00\n        /* \"#utility.yul\":6001:6007   */\n      dup1\n        /* \"#utility.yul\":6050:6052   */\n      0x40\n        /* \"#utility.yul\":6038:6047   */\n      dup4\n        /* \"#utility.yul\":6029:6036   */\n      dup6\n        /* \"#utility.yul\":6025:6048   */\n      sub\n        /* \"#utility.yul\":6021:6053   */\n      slt\n        /* \"#utility.yul\":6018:6137   */\n      iszero\n      tag_272\n      jumpi\n        /* \"#utility.yul\":6056:6135   */\n      tag_273\n      tag_174\n      jump\t// in\n    tag_273:\n        /* \"#utility.yul\":6018:6137   */\n    tag_272:\n        /* \"#utility.yul\":6176:6177   */\n      0x00\n        /* \"#utility.yul\":6201:6254   */\n      tag_274\n        /* \"#utility.yul\":6246:6253   */\n      dup6\n        /* \"#utility.yul\":6237:6243   */\n      dup3\n        /* \"#utility.yul\":6226:6235   */\n      dup7\n        /* \"#utility.yul\":6222:6244   */\n      add\n        /* \"#utility.yul\":6201:6254   */\n      tag_179\n      jump\t// in\n    tag_274:\n        /* \"#utility.yul\":6191:6254   */\n      swap3\n      pop\n        /* \"#utility.yul\":6147:6264   */\n      pop\n        /* \"#utility.yul\":6303:6305   */\n      0x20\n        /* \"#utility.yul\":6329:6382   */\n      tag_275\n        /* \"#utility.yul\":6374:6381   */\n      dup6\n        /* \"#utility.yul\":6365:6371   */\n      dup3\n        /* \"#utility.yul\":6354:6363   */\n      dup7\n        /* \"#utility.yul\":6350:6372   */\n      add\n        /* \"#utility.yul\":6329:6382   */\n      tag_179\n      jump\t// in\n    tag_275:\n        /* \"#utility.yul\":6319:6382   */\n      swap2\n      pop\n        /* \"#utility.yul\":6274:6392   */\n      pop\n        /* \"#utility.yul\":5925:6399   */\n      swap3\n      pop\n      swap3\n      swap1\n      pop\n      jump\t// out\n        /* \"#utility.yul\":6405:6585   */\n    tag_187:\n        /* \"#utility.yul\":6453:6530   */\n      0x4e487b7100000000000000000000000000000000000000000000000000000000\n        /* \"#utility.yul\":6450:6451   */\n      0x00\n        /* \"#utility.yul\":6443:6531   */\n      mstore\n        /* \"#utility.yul\":6550:6554   */\n      0x22\n        /* \"#utility.yul\":6547:6548   */\n      0x04\n        /* \"#utility.yul\":6540:6555   */\n      mstore\n        /* \"#utility.yul\":6574:6578   */\n      0x24\n        /* \"#utility.yul\":6571:6572   */\n      0x00\n        /* \"#utility.yul\":6564:6579   */\n      revert\n        /* \"#utility.yul\":6591:6911   */\n    tag_97:\n        /* \"#utility.yul\":6635:6641   */\n      0x00\n        /* \"#utility.yul\":6672:6673   */\n      0x02\n        /* \"#utility.yul\":6666:6670   */\n      dup3\n        /* \"#utility.yul\":6662:6674   */\n      div\n        /* \"#utility.yul\":6652:6674   */\n      swap1\n      pop\n        /* \"#utility.yul\":6719:6720   */\n      0x01\n        /* \"#utility.yul\":6713:6717   */\n      dup3\n        /* \"#utility.yul\":6709:6721   */\n      and\n        /* \"#utility.yul\":6740:6758   */\n      dup1\n        /* \"#utility.yul\":6730:6811   */\n      tag_278\n      jumpi\n        /* \"#utility.yul\":6796:6800   */\n      0x7f\n        /* \"#utility.yul\":6788:6794   */\n      dup3\n        /* \"#utility.yul\":6784:6801   */\n      and\n        /* \"#utility.yul\":6774:6801   */\n      swap2\n      pop\n        /* \"#utility.yul\":6730:6811   */\n    tag_278:\n        /* \"#utility.yul\":6858:6860   */\n      0x20\n        /* \"#utility.yul\":6850:6856   */\n      dup3\n        /* \"#utility.yul\":6847:6861   */\n      lt\n        /* \"#utility.yul\":6827:6845   */\n      dup2\n        /* \"#utility.yul\":6824:6862   */\n      sub\n        /* \"#utility.yul\":6821:6905   */\n      tag_279\n      jumpi\n        /* \"#utility.yul\":6877:6895   */\n      tag_280\n      tag_187\n      jump\t// in\n    tag_280:\n        /* \"#utility.yul\":6821:6905   */\n    tag_279:\n        /* \"#utility.yul\":6642:6911   */\n      pop\n        /* \"#utility.yul\":6591:6911   */\n      swap2\n      swap1\n      pop\n      jump\t// out\n        /* \"#utility.yul\":6917:7087   */\n    tag_188:\n        /* \"#utility.yul\":7057:7079   */\n      0x496e73756666696369656e742062616c616e6365000000000000000000000000\n        /* \"#utility.yul\":7053:7054   */\n      0x00\n        /* \"#utility.yul\":7045:7051   */\n      dup3\n        /* \"#utility.yul\":7041:7055   */\n      add\n        /* \"#utility.yul\":7034:7080   */\n      mstore\n        /* \"#utility.yul\":6917:7087   */\n      pop\n      jump\t// out\n        /* \"#utility.yul\":7093:7459   */\n    tag_189:\n        /* \"#utility.yul\":7235:7238   */\n      0x00\n        /* \"#utility.yul\":7256:7323   */\n      tag_283\n        /* \"#utility.yul\":7320:7322   */\n      0x14\n        /* \"#utility.yul\":7315:7318   */\n      dup4\n        /* \"#utility.yul\":7256:7323   */\n      tag_169\n      jump\t// in\n    tag_283:\n        /* \"#utility.yul\":7249:7323   */\n      swap2\n      pop\n        /* \"#utility.yul\":7332:7425   */\n      tag_284\n        /* \"#utility.yul\":7421:7424   */\n      dup3\n        /* \"#utility.yul\":7332:7425   */\n      tag_188\n      jump\t// in\n    tag_284:\n        /* \"#utility.yul\":7450:7452   */\n      0x20\n        /* \"#utility.yul\":7445:7448   */\n      dup3\n        /* \"#utility.yul\":7441:7453   */\n      add\n        /* \"#utility.yul\":7434:7453   */\n      swap1\n      pop\n        /* \"#utility.yul\":7093:7459   */\n      swap2\n      swap1\n      pop\n      jump\t// out\n        /* \"#utility.yul\":7465:7884   */\n    tag_107:\n        /* \"#utility.yul\":7631:7635   */\n      0x00\n        /* \"#utility.yul\":7669:7671   */\n      0x20\n        /* \"#utility.yul\":7658:7667   */\n      dup3\n        /* \"#utility.yul\":7654:7672   */\n      add\n        /* \"#utility.yul\":7646:7672   */\n      swap1\n      pop\n        /* \"#utility.yul\":7718:7727   */\n      dup2\n        /* \"#utility.yul\":7712:7716   */\n      dup2\n        /* \"#utility.yul\":7708:7728   */\n      sub\n        /* \"#utility.yul\":7704:7705   */\n      0x00\n        /* \"#utility.yul\":7693:7702   */\n      dup4\n        /* \"#utility.yul\":7689:7706   */\n      add\n        /* \"#utility.yul\":7682:7729   */\n      mstore\n        /* \"#utility.yul\":7746:7877   */\n      tag_286\n        /* \"#utility.yul\":7872:7876   */\n      dup2\n        /* \"#utility.yul\":7746:7877   */\n      tag_189\n      jump\t// in\n    tag_286:\n        /* \"#utility.yul\":7738:7877   */\n      swap1\n      pop\n        /* \"#utility.yul\":7465:7884   */\n      swap2\n      swap1\n      pop\n      jump\t// out\n        /* \"#utility.yul\":7890:8062   */\n    tag_190:\n        /* \"#utility.yul\":8030:8054   */\n      0x496e73756666696369656e7420616c6c6f77616e636500000000000000000000\n        /* \"#utility.yul\":8026:8027   */\n      0x00\n        /* \"#utility.yul\":8018:8024   */\n      dup3\n        /* \"#utility.yul\":8014:8028   */\n      add\n        /* \"#utility.yul\":8007:8055   */\n      mstore\n        /* \"#utility.yul\":7890:8062   */\n      pop\n      jump\t// out\n        /* \"#utility.yul\":8068:8434   */\n    tag_191:\n        /* \"#utility.yul\":8210:8213   */\n      0x00\n        /* \"#utility.yul\":8231:8298   */\n      tag_289\n        /* \"#utility.yul\":8295:8297   */\n      0x16\n        /* \"#utility.yul\":8290:8293   */\n      dup4\n        /* \"#utility.yul\":8231:8298   */\n      tag_169\n      jump\t// in\n    tag_289:\n        /* \"#utility.yul\":8224:8298   */\n      swap2\n      pop\n        /* \"#utility.yul\":8307:8400   */\n      tag_290\n        /* \"#utility.yul\":8396:8399   */\n      dup3\n        /* \"#utility.yul\":8307:8400   */\n      tag_190\n      jump\t// in\n    tag_290:\n        /* \"#utility.yul\":8425:8427   */\n      0x20\n        /* \"#utility.yul\":8420:8423   */\n      dup3\n        /* \"#utility.yul\":8416:8428   */\n      add\n        /* \"#utility.yul\":8409:8428   */\n      swap1\n      pop\n        /* \"#utility.yul\":8068:8434   */\n      swap2\n      swap1\n      pop\n      jump\t// out\n        /* \"#utility.yul\":8440:8859   */\n    tag_110:\n        /* \"#utility.yul\":8606:8610   */\n      0x00\n        /* \"#utility.yul\":8644:8646   */\n      0x20\n        /* \"#utility.yul\":8633:8642   */\n      dup3\n        /* \"#utility.yul\":8629:8647   */\n      add\n        /* \"#utility.yul\":8621:8647   */\n      swap1\n      pop\n        /* \"#utility.yul\":8693:8702   */\n      dup2\n        /* \"#utility.yul\":8687:8691   */\n      dup2\n        /* \"#utility.yul\":8683:8703   */\n      sub\n        /* \"#utility.yul\":8679:8680   */\n      0x00\n        /* \"#utility.yul\":8668:8677   */\n      dup4\n        /* \"#utility.yul\":8664:8681   */\n      add\n        /* \"#utility.yul\":8657:8704   */\n      mstore\n        /* \"#utility.yul\":8721:8852   */\n      tag_292\n        /* \"#utility.yul\":8847:8851   */\n      dup2\n        /* \"#utility.yul\":8721:8852   */\n      tag_191\n      jump\t// in\n    tag_292:\n        /* \"#utility.yul\":8713:8852   */\n      swap1\n      pop\n        /* \"#utility.yul\":8440:8859   */\n      swap2\n      swap1\n      pop\n      jump\t// out\n        /* \"#utility.yul\":8865:9045   */\n    tag_192:\n        /* \"#utility.yul\":8913:8990   */\n      0x4e487b7100000000000000000000000000000000000000000000000000000000\n        /* \"#utility.yul\":8910:8911   */\n      0x00\n        /* \"#utility.yul\":8903:8991   */\n      mstore\n        /* \"#utility.yul\":9010:9014   */\n      0x11\n        /* \"#utility.yul\":9007:9008   */\n      0x04\n        /* \"#utility.yul\":9000:9015   */\n      mstore\n        /* \"#utility.yul\":9034:9038   */\n      0x24\n        /* \"#utility.yul\":9031:9032   */\n      0x00\n        /* \"#utility.yul\":9024:9039   */\n      revert\n        /* \"#utility.yul\":9051:9245   */\n    tag_112:\n        /* \"#utility.yul\":9091:9095   */\n      0x00\n        /* \"#utility.yul\":9111:9131   */\n      tag_295\n        /* \"#utility.yul\":9129:9130   */\n      dup3\n        /* \"#utility.yul\":9111:9131   */\n      tag_180\n      jump\t// in\n    tag_295:\n        /* \"#utility.yul\":9106:9131   */\n      swap2\n      pop\n        /* \"#utility.yul\":9145:9165   */\n      tag_296\n        /* \"#utility.yul\":9163:9164   */\n      dup4\n        /* \"#utility.yul\":9145:9165   */\n      tag_180\n      jump\t// in\n    tag_296:\n        /* \"#utility.yul\":9140:9165   */\n      swap3\n      pop\n        /* \"#utility.yul\":9189:9190   */\n      dup3\n        /* \"#utility.yul\":9186:9187   */\n      dup3\n        /* \"#utility.yul\":9182:9191   */\n      sub\n        /* \"#utility.yul\":9174:9191   */\n      swap1\n      pop\n        /* \"#utility.yul\":9213:9214   */\n      dup2\n        /* \"#utility.yul\":9207:9211   */\n      dup2\n        /* \"#utility.yul\":9204:9215   */\n      gt\n        /* \"#utility.yul\":9201:9238   */\n      iszero\n      tag_297\n      jumpi\n        /* \"#utility.yul\":9218:9236   */\n      tag_298\n      tag_192\n      jump\t// in\n    tag_298:\n        /* \"#utility.yul\":9201:9238   */\n    tag_297:\n        /* \"#utility.yul\":9051:9245   */\n      swap3\n      swap2\n      pop\n      pop\n      jump\t// out\n        /* \"#utility.yul\":9251:9442   */\n    tag_114:\n        /* \"#utility.yul\":9291:9294   */\n      0x00\n        /* \"#utility.yul\":9310:9330   */\n      tag_300\n        /* \"#utility.yul\":9328:9329   */\n      dup3\n        /* \"#utility.yul\":9310:9330   */\n      tag_180\n      jump\t// in\n    tag_300:\n        /* \"#utility.yul\":9305:9330   */\n      swap2\n      pop\n        /* \"#utility.yul\":9344:9364   */\n      tag_301\n        /* \"#utility.yul\":9362:9363   */\n      dup4\n        /* \"#utility.yul\":9344:9364   */\n      tag_180\n      jump\t// in\n    tag_301:\n        /* \"#utility.yul\":9339:9364   */\n      swap3\n      pop\n        /* \"#utility.yul\":9387:9388   */\n      dup3\n        /* \"#utility.yul\":9384:9385   */\n      dup3\n        /* \"#utility.yul\":9380:9389   */\n      add\n        /* \"#utility.yul\":9373:9389   */\n      swap1\n      pop\n        /* \"#utility.yul\":9408:9411   */\n      dup1\n        /* \"#utility.yul\":9405:9406   */\n      dup3\n        /* \"#utility.yul\":9402:9412   */\n      gt\n        /* \"#utility.yul\":9399:9435   */\n      iszero\n      tag_302\n      jumpi\n        /* \"#utility.yul\":9415:9433   */\n      tag_303\n      tag_192\n      jump\t// in\n    tag_303:\n        /* \"#utility.yul\":9399:9435   */\n    tag_302:\n        /* \"#utility.yul\":9251:9442   */\n      swap3\n      swap2\n      pop\n      pop\n      jump\t// out\n        /* \"#utility.yul\":9448:9628   */\n    tag_193:\n        /* \"#utility.yul\":9496:9573   */\n      0x4e487b7100000000000000000000000000000000000000000000000000000000\n        /* \"#utility.yul\":9493:9494   */\n      0x00\n        /* \"#utility.yul\":9486:9574   */\n      mstore\n        /* \"#utility.yul\":9593:9597   */\n      0x12\n        /* \"#utility.yul\":9590:9591   */\n      0x04\n        /* \"#utility.yul\":9583:9598   */\n      mstore\n        /* \"#utility.yul\":9617:9621   */\n      0x24\n        /* \"#utility.yul\":9614:9615   */\n      0x00\n        /* \"#utility.yul\":9607:9622   */\n      revert\n        /* \"#utility.yul\":9634:9819   */\n    tag_126:\n        /* \"#utility.yul\":9674:9675   */\n      0x00\n        /* \"#utility.yul\":9691:9711   */\n      tag_306\n        /* \"#utility.yul\":9709:9710   */\n      dup3\n        /* \"#utility.yul\":9691:9711   */\n      tag_180\n      jump\t// in\n    tag_306:\n        /* \"#utility.yul\":9686:9711   */\n      swap2\n      pop\n        /* \"#utility.yul\":9725:9745   */\n      tag_307\n        /* \"#utility.yul\":9743:9744   */\n      dup4\n        /* \"#utility.yul\":9725:9745   */\n      tag_180\n      jump\t// in\n    tag_307:\n        /* \"#utility.yul\":9720:9745   */\n      swap3\n      pop\n        /* \"#utility.yul\":9764:9765   */\n      dup3\n        /* \"#utility.yul\":9754:9789   */\n      tag_308\n      jumpi\n        /* \"#utility.yul\":9769:9787   */\n      tag_309\n      tag_193\n      jump\t// in\n    tag_309:\n        /* \"#utility.yul\":9754:9789   */\n    tag_308:\n        /* \"#utility.yul\":9811:9812   */\n      dup3\n        /* \"#utility.yul\":9808:9809   */\n      dup3\n        /* \"#utility.yul\":9804:9813   */\n      div\n        /* \"#utility.yul\":9799:9813   */\n      swap1\n      pop\n        /* \"#utility.yul\":9634:9819   */\n      swap3\n      swap2\n      pop\n      pop\n      jump\t// out\n        /* \"#utility.yul\":9825:9998   */\n    tag_194:\n        /* \"#utility.yul\":9965:9990   */\n      0x496e73756666696369656e7420636f6c6c61746572616c000000000000000000\n        /* \"#utility.yul\":9961:9962   */\n      0x00\n        /* \"#utility.yul\":9953:9959   */\n      dup3\n        /* \"#utility.yul\":9949:9963   */\n      add\n        /* \"#utility.yul\":9942:9991   */\n      mstore\n        /* \"#utility.yul\":9825:9998   */\n      pop\n      jump\t// out\n        /* \"#utility.yul\":10004:10370   */\n    tag_195:\n        /* \"#utility.yul\":10146:10149   */\n      0x00\n        /* \"#utility.yul\":10167:10234   */\n      tag_312\n        /* \"#utility.yul\":10231:10233   */\n      0x17\n        /* \"#utility.yul\":10226:10229   */\n      dup4\n        /* \"#utility.yul\":10167:10234   */\n      tag_169\n      jump\t// in\n    tag_312:\n        /* \"#utility.yul\":10160:10234   */\n      swap2\n      pop\n        /* \"#utility.yul\":10243:10336   */\n      tag_313\n        /* \"#utility.yul\":10332:10335   */\n      dup3\n        /* \"#utility.yul\":10243:10336   */\n      tag_194\n      jump\t// in\n    tag_313:\n        /* \"#utility.yul\":10361:10363   */\n      0x20\n        /* \"#utility.yul\":10356:10359   */\n      dup3\n        /* \"#utility.yul\":10352:10364   */\n      add\n        /* \"#utility.yul\":10345:10364   */\n      swap1\n      pop\n        /* \"#utility.yul\":10004:10370   */\n      swap2\n      swap1\n      pop\n      jump\t// out\n        /* \"#utility.yul\":10376:10795   */\n    tag_129:\n        /* \"#utility.yul\":10542:10546   */\n      0x00\n        /* \"#utility.yul\":10580:10582   */\n      0x20\n        /* \"#utility.yul\":10569:10578   */\n      dup3\n        /* \"#utility.yul\":10565:10583   */\n      add\n        /* \"#utility.yul\":10557:10583   */\n      swap1\n      pop\n        /* \"#utility.yul\":10629:10638   */\n      dup2\n        /* \"#utility.yul\":10623:10627   */\n      dup2\n        /* \"#utility.yul\":10619:10639   */\n      sub\n        /* \"#utility.yul\":10615:10616   */\n      0x00\n        /* \"#utility.yul\":10604:10613   */\n      dup4\n        /* \"#utility.yul\":10600:10617   */\n      add\n        /* \"#utility.yul\":10593:10640   */\n      mstore\n        /* \"#utility.yul\":10657:10788   */\n      tag_315\n        /* \"#utility.yul\":10783:10787   */\n      dup2\n        /* \"#utility.yul\":10657:10788   */\n      tag_195\n      jump\t// in\n    tag_315:\n        /* \"#utility.yul\":10649:10788   */\n      swap1\n      pop\n        /* \"#utility.yul\":10376:10795   */\n      swap2\n      swap1\n      pop\n      jump\t// out\n        /* \"#utility.yul\":10801:11133   */\n    tag_134:\n        /* \"#utility.yul\":10922:10926   */\n      0x00\n        /* \"#utility.yul\":10960:10962   */\n      0x40\n        /* \"#utility.yul\":10949:10958   */\n      dup3\n        /* \"#utility.yul\":10945:10963   */\n      add\n        /* \"#utility.yul\":10937:10963   */\n      swap1\n      pop\n        /* \"#utility.yul\":10973:11044   */\n      tag_317\n        /* \"#utility.yul\":11041:11042   */\n      0x00\n        /* \"#utility.yul\":11030:11039   */\n      dup4\n        /* \"#utility.yul\":11026:11043   */\n      add\n        /* \"#utility.yul\":11017:11023   */\n      dup6\n        /* \"#utility.yul\":10973:11044   */\n      tag_185\n      jump\t// in\n    tag_317:\n        /* \"#utility.yul\":11054:11126   */\n      tag_318\n        /* \"#utility.yul\":11122:11124   */\n      0x20\n        /* \"#utility.yul\":11111:11120   */\n      dup4\n        /* \"#utility.yul\":11107:11125   */\n      add\n        /* \"#utility.yul\":11098:11104   */\n      dup5\n        /* \"#utility.yul\":11054:11126   */\n      tag_185\n      jump\t// in\n    tag_318:\n        /* \"#utility.yul\":10801:11133   */\n      swap4\n      swap3\n      pop\n      pop\n      pop\n      jump\t// out\n        /* \"#utility.yul\":11139:11308   */\n    tag_196:\n        /* \"#utility.yul\":11279:11300   */\n      0x53616c646f20696e73756666696369656e746500000000000000000000000000\n        /* \"#utility.yul\":11275:11276   */\n      0x00\n        /* \"#utility.yul\":11267:11273   */\n      dup3\n        /* \"#utility.yul\":11263:11277   */\n      add\n        /* \"#utility.yul\":11256:11301   */\n      mstore\n        /* \"#utility.yul\":11139:11308   */\n      pop\n      jump\t// out\n        /* \"#utility.yul\":11314:11680   */\n    tag_197:\n        /* \"#utility.yul\":11456:11459   */\n      0x00\n        /* \"#utility.yul\":11477:11544   */\n      tag_321\n        /* \"#utility.yul\":11541:11543   */\n      0x13\n        /* \"#utility.yul\":11536:11539   */\n      dup4\n        /* \"#utility.yul\":11477:11544   */\n      tag_169\n      jump\t// in\n    tag_321:\n        /* \"#utility.yul\":11470:11544   */\n      swap2\n      pop\n        /* \"#utility.yul\":11553:11646   */\n      tag_322\n        /* \"#utility.yul\":11642:11645   */\n      dup3\n        /* \"#utility.yul\":11553:11646   */\n      tag_196\n      jump\t// in\n    tag_322:\n        /* \"#utility.yul\":11671:11673   */\n      0x20\n        /* \"#utility.yul\":11666:11669   */\n      dup3\n        /* \"#utility.yul\":11662:11674   */\n      add\n        /* \"#utility.yul\":11655:11674   */\n      swap1\n      pop\n        /* \"#utility.yul\":11314:11680   */\n      swap2\n      swap1\n      pop\n      jump\t// out\n        /* \"#utility.yul\":11686:12105   */\n    tag_144:\n        /* \"#utility.yul\":11852:11856   */\n      0x00\n        /* \"#utility.yul\":11890:11892   */\n      0x20\n        /* \"#utility.yul\":11879:11888   */\n      dup3\n        /* \"#utility.yul\":11875:11893   */\n      add\n        /* \"#utility.yul\":11867:11893   */\n      swap1\n      pop\n        /* \"#utility.yul\":11939:11948   */\n      dup2\n        /* \"#utility.yul\":11933:11937   */\n      dup2\n        /* \"#utility.yul\":11929:11949   */\n      sub\n        /* \"#utility.yul\":11925:11926   */\n      0x00\n        /* \"#utility.yul\":11914:11923   */\n      dup4\n        /* \"#utility.yul\":11910:11927   */\n      add\n        /* \"#utility.yul\":11903:11950   */\n      mstore\n        /* \"#utility.yul\":11967:12098   */\n      tag_324\n        /* \"#utility.yul\":12093:12097   */\n      dup2\n        /* \"#utility.yul\":11967:12098   */\n      tag_197\n      jump\t// in\n    tag_324:\n        /* \"#utility.yul\":11959:12098   */\n      swap1\n      pop\n        /* \"#utility.yul\":11686:12105   */\n      swap2\n      swap1\n      pop\n      jump\t// out\n        /* \"#utility.yul\":12111:12286   */\n    tag_198:\n        /* \"#utility.yul\":12251:12278   */\n      0x496e73756666696369656e74206c6f616e2062616c616e636500000000000000\n        /* \"#utility.yul\":12247:12248   */\n      0x00\n        /* \"#utility.yul\":12239:12245   */\n      dup3\n        /* \"#utility.yul\":12235:12249   */\n      add\n        /* \"#utility.yul\":12228:12279   */\n      mstore\n        /* \"#utility.yul\":12111:12286   */\n      pop\n      jump\t// out\n        /* \"#utility.yul\":12292:12658   */\n    tag_199:\n        /* \"#utility.yul\":12434:12437   */\n      0x00\n        /* \"#utility.yul\":12455:12522   */\n      tag_327\n        /* \"#utility.yul\":12519:12521   */\n      0x19\n        /* \"#utility.yul\":12514:12517   */\n      dup4\n        /* \"#utility.yul\":12455:12522   */\n      tag_169\n      jump\t// in\n    tag_327:\n        /* \"#utility.yul\":12448:12522   */\n      swap2\n      pop\n        /* \"#utility.yul\":12531:12624   */\n      tag_328\n        /* \"#utility.yul\":12620:12623   */\n      dup3\n        /* \"#utility.yul\":12531:12624   */\n      tag_198\n      jump\t// in\n    tag_328:\n        /* \"#utility.yul\":12649:12651   */\n      0x20\n        /* \"#utility.yul\":12644:12647   */\n      dup3\n        /* \"#utility.yul\":12640:12652   */\n      add\n        /* \"#utility.yul\":12633:12652   */\n      swap1\n      pop\n        /* \"#utility.yul\":12292:12658   */\n      swap2\n      swap1\n      pop\n      jump\t// out\n        /* \"#utility.yul\":12664:13083   */\n    tag_157:\n        /* \"#utility.yul\":12830:12834   */\n      0x00\n        /* \"#utility.yul\":12868:12870   */\n      0x20\n        /* \"#utility.yul\":12857:12866   */\n      dup3\n        /* \"#utility.yul\":12853:12871   */\n      add\n        /* \"#utility.yul\":12845:12871   */\n      swap1\n      pop\n        /* \"#utility.yul\":12917:12926   */\n      dup2\n        /* \"#utility.yul\":12911:12915   */\n      dup2\n        /* \"#utility.yul\":12907:12927   */\n      sub\n        /* \"#utility.yul\":12903:12904   */\n      0x00\n        /* \"#utility.yul\":12892:12901   */\n      dup4\n        /* \"#utility.yul\":12888:12905   */\n      add\n        /* \"#utility.yul\":12881:12928   */\n      mstore\n        /* \"#utility.yul\":12945:13076   */\n      tag_330\n        /* \"#utility.yul\":13071:13075   */\n      dup2\n        /* \"#utility.yul\":12945:13076   */\n      tag_199\n      jump\t// in\n    tag_330:\n        /* \"#utility.yul\":12937:13076   */\n      swap1\n      pop\n        /* \"#utility.yul\":12664:13083   */\n      swap2\n      swap1\n      pop\n      jump\t// out\n        /* \"#utility.yul\":13089:13311   */\n    tag_200:\n        /* \"#utility.yul\":13229:13263   */\n      0x496e73756666696369656e742062616c616e636520666f7220636f6c6c617465\n        /* \"#utility.yul\":13225:13226   */\n      0x00\n        /* \"#utility.yul\":13217:13223   */\n      dup3\n        /* \"#utility.yul\":13213:13227   */\n      add\n        /* \"#utility.yul\":13206:13264   */\n      mstore\n        /* \"#utility.yul\":13298:13303   */\n      0x72616c0000000000000000000000000000000000000000000000000000000000\n        /* \"#utility.yul\":13293:13295   */\n      0x20\n        /* \"#utility.yul\":13285:13291   */\n      dup3\n        /* \"#utility.yul\":13281:13296   */\n      add\n        /* \"#utility.yul\":13274:13304   */\n      mstore\n        /* \"#utility.yul\":13089:13311   */\n      pop\n      jump\t// out\n        /* \"#utility.yul\":13317:13683   */\n    tag_201:\n        /* \"#utility.yul\":13459:13462   */\n      0x00\n        /* \"#utility.yul\":13480:13547   */\n      tag_333\n        /* \"#utility.yul\":13544:13546   */\n      0x23\n        /* \"#utility.yul\":13539:13542   */\n      dup4\n        /* \"#utility.yul\":13480:13547   */\n      tag_169\n      jump\t// in\n    tag_333:\n        /* \"#utility.yul\":13473:13547   */\n      swap2\n      pop\n        /* \"#utility.yul\":13556:13649   */\n      tag_334\n        /* \"#utility.yul\":13645:13648   */\n      dup3\n        /* \"#utility.yul\":13556:13649   */\n      tag_200\n      jump\t// in\n    tag_334:\n        /* \"#utility.yul\":13674:13676   */\n      0x40\n        /* \"#utility.yul\":13669:13672   */\n      dup3\n        /* \"#utility.yul\":13665:13677   */\n      add\n        /* \"#utility.yul\":13658:13677   */\n      swap1\n      pop\n        /* \"#utility.yul\":13317:13683   */\n      swap2\n      swap1\n      pop\n      jump\t// out\n        /* \"#utility.yul\":13689:14108   */\n    tag_164:\n        /* \"#utility.yul\":13855:13859   */\n      0x00\n        /* \"#utility.yul\":13893:13895   */\n      0x20\n        /* \"#utility.yul\":13882:13891   */\n      dup3\n        /* \"#utility.yul\":13878:13896   */\n      add\n        /* \"#utility.yul\":13870:13896   */\n      swap1\n      pop\n        /* \"#utility.yul\":13942:13951   */\n      dup2\n        /* \"#utility.yul\":13936:13940   */\n      dup2\n        /* \"#utility.yul\":13932:13952   */\n      sub\n        /* \"#utility.yul\":13928:13929   */\n      0x00\n        /* \"#utility.yul\":13917:13926   */\n      dup4\n        /* \"#utility.yul\":13913:13930   */\n      add\n        /* \"#utility.yul\":13906:13953   */\n      mstore\n        /* \"#utility.yul\":13970:14101   */\n      tag_336\n        /* \"#utility.yul\":14096:14100   */\n      dup2\n        /* \"#utility.yul\":13970:14101   */\n      tag_201\n      jump\t// in\n    tag_336:\n        /* \"#utility.yul\":13962:14101   */\n      swap1\n      pop\n        /* \"#utility.yul\":13689:14108   */\n      swap2\n      swap1\n      pop\n      jump\t// out\n\n    auxdata: 0xa26469706673582212203f9b04f189a98e9ea94eed54dc4ca95e0ad4c919955b706fe0c6d3773e9f376464736f6c63430008180033\n}\n",
				"bytecode": {
					"linkReferences": {},
					"object": "60806040526040518060400160405280601a81526020017f4469676974616c204465666c617a696f6e69746963204575726f0000000000008152505f908162000049919062000399565b506040518060400160405280600381526020017f44444500000000000000000000000000000000000000000000000000000000008152506001908162000090919062000399565b506305f5e1006002556001600955348015620000aa575f80fd5b5060025460045f3373ffffffffffffffffffffffffffffffffffffffff1673ffffffffffffffffffffffffffffffffffffffff1681526020019081526020015f20819055503360035f6101000a81548173ffffffffffffffffffffffffffffffffffffffff021916908373ffffffffffffffffffffffffffffffffffffffff1602179055506200047d565b5f81519050919050565b7f4e487b71000000000000000000000000000000000000000000000000000000005f52604160045260245ffd5b7f4e487b71000000000000000000000000000000000000000000000000000000005f52602260045260245ffd5b5f6002820490506001821680620001b157607f821691505b602082108103620001c757620001c66200016c565b5b50919050565b5f819050815f5260205f209050919050565b5f6020601f8301049050919050565b5f82821b905092915050565b5f600883026200022b7fffffffffffffffffffffffffffffffffffffffffffffffffffffffffffffffff82620001ee565b620002378683620001ee565b95508019841693508086168417925050509392505050565b5f819050919050565b5f819050919050565b5f620002816200027b62000275846200024f565b62000258565b6200024f565b9050919050565b5f819050919050565b6200029c8362000261565b620002b4620002ab8262000288565b848454620001fa565b825550505050565b5f90565b620002ca620002bc565b620002d781848462000291565b505050565b5b81811015620002fe57620002f25f82620002c0565b600181019050620002dd565b5050565b601f8211156200034d576200031781620001cd565b6200032284620001df565b8101602085101562000332578190505b6200034a6200034185620001df565b830182620002dc565b50505b505050565b5f82821c905092915050565b5f6200036f5f198460080262000352565b1980831691505092915050565b5f6200038983836200035e565b9150826002028217905092915050565b620003a48262000135565b67ffffffffffffffff811115620003c057620003bf6200013f565b5b620003cc825462000199565b620003d982828562000302565b5f60209050601f8311600181146200040f575f8415620003fa578287015190505b6200040685826200037c565b86555062000475565b601f1984166200041f86620001cd565b5f5b82811015620004485784890151825560018201915060208501945060208101905062000421565b8683101562000468578489015162000464601f8916826200035e565b8355505b6001600288020188555050505b505050505050565b6119ec806200048b5f395ff3fe608060405234801561000f575f80fd5b5060043610610114575f3560e01c806395d89b41116100a0578063a9059cbb1161006f578063a9059cbb14610304578063ab7b1c8914610334578063b4eae1cb14610350578063bcc46e831461036e578063dd62ed3e1461038a57610114565b806395d89b411461026a5780639aae66f9146102885780639dc29fac146102b8578063a1bf2840146102d457610114565b806327e235e3116100e757806327e235e3146101b457806340c10f19146101e457806370a08231146102005780638da5cb5b146102305780639110df851461024e57610114565b806306fdde0314610118578063095ea7b31461013657806318160ddd1461016657806323b872dd14610184575b5f80fd5b6101206103ba565b60405161012d9190611318565b60405180910390f35b610150600480360381019061014b91906113c9565b610445565b60405161015d9190611421565b60405180910390f35b61016e610532565b60405161017b9190611449565b60405180910390f35b61019e60048036038101906101999190611462565b610538565b6040516101ab9190611421565b60405180910390f35b6101ce60048036038101906101c991906114b2565b610818565b6040516101db9190611449565b60405180910390f35b6101fe60048036038101906101f991906113c9565b61082d565b005b61021a600480360381019061021591906114b2565b610942565b6040516102279190611449565b60405180910390f35b610238610957565b60405161024591906114ec565b60405180910390f35b61026860048036038101906102639190611505565b61097c565b005b610272610b99565b60405161027f9190611318565b60405180910390f35b6102a2600480360381019061029d91906114b2565b610c25565b6040516102af9190611449565b60405180910390f35b6102d260048036038101906102cd91906113c9565b610c3a565b005b6102ee60048036038101906102e991906114b2565b610dcf565b6040516102fb9190611449565b60405180910390f35b61031e600480360381019061031991906113c9565b610de4565b60405161032b9190611421565b60405180910390f35b61034e60048036038101906103499190611543565b610f7a565b005b6103586110f1565b6040516103659190611449565b60405180910390f35b61038860048036038101906103839190611543565b6110f7565b005b6103a4600480360381019061039f919061156e565b61126e565b6040516103b19190611449565b60405180910390f35b5f80546103c6906115d9565b80601f01602080910402602001604051908101604052809291908181526020018280546103f2906115d9565b801561043d5780601f106104145761010080835404028352916020019161043d565b820191905f5260205f20905b81548152906001019060200180831161042057829003601f168201915b505050505081565b5f8160065f3373ffffffffffffffffffffffffffffffffffffffff1673ffffffffffffffffffffffffffffffffffffffff1681526020019081526020015f205f8573ffffffffffffffffffffffffffffffffffffffff1673ffffffffffffffffffffffffffffffffffffffff1681526020019081526020015f20819055508273ffffffffffffffffffffffffffffffffffffffff163373ffffffffffffffffffffffffffffffffffffffff167f8c5be1e5ebec7d5bd14f71427d1e84f3dd0314c0f7b2291e5b200ac8c7c3b925846040516105209190611449565b60405180910390a36001905092915050565b60025481565b5f8160045f8673ffffffffffffffffffffffffffffffffffffffff1673ffffffffffffffffffffffffffffffffffffffff1681526020019081526020015f205410156105b9576040517f08c379a00000000000000000000000000000000000000000000000000000000081526004016105b090611653565b60405180910390fd5b8160065f8673ffffffffffffffffffffffffffffffffffffffff1673ffffffffffffffffffffffffffffffffffffffff1681526020019081526020015f205f3373ffffffffffffffffffffffffffffffffffffffff1673ffffffffffffffffffffffffffffffffffffffff1681526020019081526020015f20541015610674576040517f08c379a000000000000000000000000000000000000000000000000000000000815260040161066b906116bb565b60405180910390fd5b8160045f8673ffffffffffffffffffffffffffffffffffffffff1673ffffffffffffffffffffffffffffffffffffffff1681526020019081526020015f205f8282546106c09190611706565b925050819055508160045f8573ffffffffffffffffffffffffffffffffffffffff1673ffffffffffffffffffffffffffffffffffffffff1681526020019081526020015f205f8282546107139190611739565b925050819055508160065f8673ffffffffffffffffffffffffffffffffffffffff1673ffffffffffffffffffffffffffffffffffffffff1681526020019081526020015f205f3373ffffffffffffffffffffffffffffffffffffffff1673ffffffffffffffffffffffffffffffffffffffff1681526020019081526020015f205f8282546107a19190611706565b925050819055508273ffffffffffffffffffffffffffffffffffffffff168473ffffffffffffffffffffffffffffffffffffffff167fddf252ad1be2c89b69c2b068fc378daa952ba7f163c4a11628f55a4df523b3ef846040516108059190611449565b60405180910390a3600190509392505050565b6005602052805f5260405f205f915090505481565b60035f9054906101000a900473ffffffffffffffffffffffffffffffffffffffff1673ffffffffffffffffffffffffffffffffffffffff163373ffffffffffffffffffffffffffffffffffffffff1614610885575f80fd5b8060055f8473ffffffffffffffffffffffffffffffffffffffff1673ffffffffffffffffffffffffffffffffffffffff1681526020019081526020015f205f8282546108d19190611739565b925050819055508060025f8282546108e99190611739565b925050819055508173ffffffffffffffffffffffffffffffffffffffff167f0f6798a560793a54c3bcfe86a93cde1e73087d944c0ea20544137d4121396885826040516109369190611449565b60405180910390a25050565b6004602052805f5260405f205f915090505481565b60035f9054906101000a900473ffffffffffffffffffffffffffffffffffffffff1681565b8160045f3373ffffffffffffffffffffffffffffffffffffffff1673ffffffffffffffffffffffffffffffffffffffff1681526020019081526020015f205410156109fc576040517f08c379a00000000000000000000000000000000000000000000000000000000081526004016109f390611653565b60405180910390fd5b60095482610a0a9190611799565b811015610a4c576040517f08c379a0000000000000000000000000000000000000000000000000000000008152600401610a4390611813565b60405180910390fd5b8160045f3373ffffffffffffffffffffffffffffffffffffffff1673ffffffffffffffffffffffffffffffffffffffff1681526020019081526020015f205f828254610a989190611706565b925050819055508160075f3373ffffffffffffffffffffffffffffffffffffffff1673ffffffffffffffffffffffffffffffffffffffff1681526020019081526020015f205f828254610aeb9190611739565b925050819055508060085f3373ffffffffffffffffffffffffffffffffffffffff1673ffffffffffffffffffffffffffffffffffffffff1681526020019081526020015f205f828254610b3e9190611739565b925050819055503373ffffffffffffffffffffffffffffffffffffffff167fe73e31007d63465eceaabfae515099de1ee3152614bd2824a7e75ce65517ae168383604051610b8d929190611831565b60405180910390a25050565b60018054610ba6906115d9565b80601f0160208091040260200160405190810160405280929190818152602001828054610bd2906115d9565b8015610c1d5780601f10610bf457610100808354040283529160200191610c1d565b820191905f5260205f20905b815481529060010190602001808311610c0057829003601f168201915b505050505081565b6007602052805f5260405f205f915090505481565b60035f9054906101000a900473ffffffffffffffffffffffffffffffffffffffff1673ffffffffffffffffffffffffffffffffffffffff163373ffffffffffffffffffffffffffffffffffffffff1614610c92575f80fd5b8060055f8473ffffffffffffffffffffffffffffffffffffffff1673ffffffffffffffffffffffffffffffffffffffff1681526020019081526020015f20541015610d12576040517f08c379a0000000000000000000000000000000000000000000000000000000008152600401610d09906118a2565b60405180910390fd5b8060055f8473ffffffffffffffffffffffffffffffffffffffff1673ffffffffffffffffffffffffffffffffffffffff1681526020019081526020015f205f828254610d5e9190611706565b925050819055508060025f828254610d769190611706565b925050819055508173ffffffffffffffffffffffffffffffffffffffff167fcc16f5dbb4873280815c1ee09dbd06736cffcc184412cf7a71a0fdb75d397ca582604051610dc39190611449565b60405180910390a25050565b6008602052805f5260405f205f915090505481565b5f8160045f3373ffffffffffffffffffffffffffffffffffffffff1673ffffffffffffffffffffffffffffffffffffffff1681526020019081526020015f20541015610e65576040517f08c379a0000000000000000000000000000000000000000000000000000000008152600401610e5c90611653565b60405180910390fd5b8160045f3373ffffffffffffffffffffffffffffffffffffffff1673ffffffffffffffffffffffffffffffffffffffff1681526020019081526020015f205f828254610eb19190611706565b925050819055508160045f8573ffffffffffffffffffffffffffffffffffffffff1673ffffffffffffffffffffffffffffffffffffffff1681526020019081526020015f205f828254610f049190611739565b925050819055508273ffffffffffffffffffffffffffffffffffffffff163373ffffffffffffffffffffffffffffffffffffffff167fddf252ad1be2c89b69c2b068fc378daa952ba7f163c4a11628f55a4df523b3ef84604051610f689190611449565b60405180910390a36001905092915050565b8060075f3373ffffffffffffffffffffffffffffffffffffffff1673ffffffffffffffffffffffffffffffffffffffff1681526020019081526020015f20541015610ffa576040517f08c379a0000000000000000000000000000000000000000000000000000000008152600401610ff19061190a565b60405180910390fd5b8060075f3373ffffffffffffffffffffffffffffffffffffffff1673ffffffffffffffffffffffffffffffffffffffff1681526020019081526020015f205f8282546110469190611706565b925050819055508060045f3373ffffffffffffffffffffffffffffffffffffffff1673ffffffffffffffffffffffffffffffffffffffff1681526020019081526020015f205f8282546110999190611739565b925050819055503373ffffffffffffffffffffffffffffffffffffffff167fbb284f7f8cb8b1b8c98ee9a7d765413efc44bbb17352a0302ada1d737cdaef1b826040516110e69190611449565b60405180910390a250565b60095481565b8060045f3373ffffffffffffffffffffffffffffffffffffffff1673ffffffffffffffffffffffffffffffffffffffff1681526020019081526020015f20541015611177576040517f08c379a000000000000000000000000000000000000000000000000000000000815260040161116e90611998565b60405180910390fd5b8060045f3373ffffffffffffffffffffffffffffffffffffffff1673ffffffffffffffffffffffffffffffffffffffff1681526020019081526020015f205f8282546111c39190611706565b925050819055508060085f3373ffffffffffffffffffffffffffffffffffffffff1673ffffffffffffffffffffffffffffffffffffffff1681526020019081526020015f205f8282546112169190611739565b925050819055503373ffffffffffffffffffffffffffffffffffffffff167f7dba1be544024070cd5eebfa8bdd80a8b198cea8058c7d3cc1f8dd36e41ab2f7826040516112639190611449565b60405180910390a250565b6006602052815f5260405f20602052805f5260405f205f91509150505481565b5f81519050919050565b5f82825260208201905092915050565b5f5b838110156112c55780820151818401526020810190506112aa565b5f8484015250505050565b5f601f19601f8301169050919050565b5f6112ea8261128e565b6112f48185611298565b93506113048185602086016112a8565b61130d816112d0565b840191505092915050565b5f6020820190508181035f83015261133081846112e0565b905092915050565b5f80fd5b5f73ffffffffffffffffffffffffffffffffffffffff82169050919050565b5f6113658261133c565b9050919050565b6113758161135b565b811461137f575f80fd5b50565b5f813590506113908161136c565b92915050565b5f819050919050565b6113a881611396565b81146113b2575f80fd5b50565b5f813590506113c38161139f565b92915050565b5f80604083850312156113df576113de611338565b5b5f6113ec85828601611382565b92505060206113fd858286016113b5565b9150509250929050565b5f8115159050919050565b61141b81611407565b82525050565b5f6020820190506114345f830184611412565b92915050565b61144381611396565b82525050565b5f60208201905061145c5f83018461143a565b92915050565b5f805f6060848603121561147957611478611338565b5b5f61148686828701611382565b935050602061149786828701611382565b92505060406114a8868287016113b5565b9150509250925092565b5f602082840312156114c7576114c6611338565b5b5f6114d484828501611382565b91505092915050565b6114e68161135b565b82525050565b5f6020820190506114ff5f8301846114dd565b92915050565b5f806040838503121561151b5761151a611338565b5b5f611528858286016113b5565b9250506020611539858286016113b5565b9150509250929050565b5f6020828403121561155857611557611338565b5b5f611565848285016113b5565b91505092915050565b5f806040838503121561158457611583611338565b5b5f61159185828601611382565b92505060206115a285828601611382565b9150509250929050565b7f4e487b71000000000000000000000000000000000000000000000000000000005f52602260045260245ffd5b5f60028204905060018216806115f057607f821691505b602082108103611603576116026115ac565b5b50919050565b7f496e73756666696369656e742062616c616e63650000000000000000000000005f82015250565b5f61163d601483611298565b915061164882611609565b602082019050919050565b5f6020820190508181035f83015261166a81611631565b9050919050565b7f496e73756666696369656e7420616c6c6f77616e6365000000000000000000005f82015250565b5f6116a5601683611298565b91506116b082611671565b602082019050919050565b5f6020820190508181035f8301526116d281611699565b9050919050565b7f4e487b71000000000000000000000000000000000000000000000000000000005f52601160045260245ffd5b5f61171082611396565b915061171b83611396565b9250828203905081811115611733576117326116d9565b5b92915050565b5f61174382611396565b915061174e83611396565b9250828201905080821115611766576117656116d9565b5b92915050565b7f4e487b71000000000000000000000000000000000000000000000000000000005f52601260045260245ffd5b5f6117a382611396565b91506117ae83611396565b9250826117be576117bd61176c565b5b828204905092915050565b7f496e73756666696369656e7420636f6c6c61746572616c0000000000000000005f82015250565b5f6117fd601783611298565b9150611808826117c9565b602082019050919050565b5f6020820190508181035f83015261182a816117f1565b9050919050565b5f6040820190506118445f83018561143a565b611851602083018461143a565b9392505050565b7f53616c646f20696e73756666696369656e7465000000000000000000000000005f82015250565b5f61188c601383611298565b915061189782611858565b602082019050919050565b5f6020820190508181035f8301526118b981611880565b9050919050565b7f496e73756666696369656e74206c6f616e2062616c616e6365000000000000005f82015250565b5f6118f4601983611298565b91506118ff826118c0565b602082019050919050565b5f6020820190508181035f830152611921816118e8565b9050919050565b7f496e73756666696369656e742062616c616e636520666f7220636f6c6c6174655f8201527f72616c0000000000000000000000000000000000000000000000000000000000602082015250565b5f611982602383611298565b915061198d82611928565b604082019050919050565b5f6020820190508181035f8301526119af81611976565b905091905056fea26469706673582212203f9b04f189a98e9ea94eed54dc4ca95e0ad4c919955b706fe0c6d3773e9f376464736f6c63430008180033",
					"opcodes": "PUSH1 0x80 PUSH1 0x40 MSTORE PUSH1 0x40 MLOAD DUP1 PUSH1 0x40 ADD PUSH1 0x40 MSTORE DUP1 PUSH1 0x1A DUP2 MSTORE PUSH1 0x20 ADD PUSH32 0x4469676974616C204465666C617A696F6E69746963204575726F000000000000 DUP2 MSTORE POP PUSH0 SWAP1 DUP2 PUSH3 0x49 SWAP2 SWAP1 PUSH3 0x399 JUMP JUMPDEST POP PUSH1 0x40 MLOAD DUP1 PUSH1 0x40 ADD PUSH1 0x40 MSTORE DUP1 PUSH1 0x3 DUP2 MSTORE PUSH1 0x20 ADD PUSH32 0x4444450000000000000000000000000000000000000000000000000000000000 DUP2 MSTORE POP PUSH1 0x1 SWAP1 DUP2 PUSH3 0x90 SWAP2 SWAP1 PUSH3 0x399 JUMP JUMPDEST POP PUSH4 0x5F5E100 PUSH1 0x2 SSTORE PUSH1 0x1 PUSH1 0x9 SSTORE CALLVALUE DUP1 ISZERO PUSH3 0xAA JUMPI PUSH0 DUP1 REVERT JUMPDEST POP PUSH1 0x2 SLOAD PUSH1 0x4 PUSH0 CALLER PUSH20 0xFFFFFFFFFFFFFFFFFFFFFFFFFFFFFFFFFFFFFFFF AND PUSH20 0xFFFFFFFFFFFFFFFFFFFFFFFFFFFFFFFFFFFFFFFF AND DUP2 MSTORE PUSH1 0x20 ADD SWAP1 DUP2 MSTORE PUSH1 0x20 ADD PUSH0 KECCAK256 DUP2 SWAP1 SSTORE POP CALLER PUSH1 0x3 PUSH0 PUSH2 0x100 EXP DUP2 SLOAD DUP2 PUSH20 0xFFFFFFFFFFFFFFFFFFFFFFFFFFFFFFFFFFFFFFFF MUL NOT AND SWAP1 DUP4 PUSH20 0xFFFFFFFFFFFFFFFFFFFFFFFFFFFFFFFFFFFFFFFF AND MUL OR SWAP1 SSTORE POP PUSH3 0x47D JUMP JUMPDEST PUSH0 DUP2 MLOAD SWAP1 POP SWAP2 SWAP1 POP JUMP JUMPDEST PUSH32 0x4E487B7100000000000000000000000000000000000000000000000000000000 PUSH0 MSTORE PUSH1 0x41 PUSH1 0x4 MSTORE PUSH1 0x24 PUSH0 REVERT JUMPDEST PUSH32 0x4E487B7100000000000000000000000000000000000000000000000000000000 PUSH0 MSTORE PUSH1 0x22 PUSH1 0x4 MSTORE PUSH1 0x24 PUSH0 REVERT JUMPDEST PUSH0 PUSH1 0x2 DUP3 DIV SWAP1 POP PUSH1 0x1 DUP3 AND DUP1 PUSH3 0x1B1 JUMPI PUSH1 0x7F DUP3 AND SWAP2 POP JUMPDEST PUSH1 0x20 DUP3 LT DUP2 SUB PUSH3 0x1C7 JUMPI PUSH3 0x1C6 PUSH3 0x16C JUMP JUMPDEST JUMPDEST POP SWAP2 SWAP1 POP JUMP JUMPDEST PUSH0 DUP2 SWAP1 POP DUP2 PUSH0 MSTORE PUSH1 0x20 PUSH0 KECCAK256 SWAP1 POP SWAP2 SWAP1 POP JUMP JUMPDEST PUSH0 PUSH1 0x20 PUSH1 0x1F DUP4 ADD DIV SWAP1 POP SWAP2 SWAP1 POP JUMP JUMPDEST PUSH0 DUP3 DUP3 SHL SWAP1 POP SWAP3 SWAP2 POP POP JUMP JUMPDEST PUSH0 PUSH1 0x8 DUP4 MUL PUSH3 0x22B PUSH32 0xFFFFFFFFFFFFFFFFFFFFFFFFFFFFFFFFFFFFFFFFFFFFFFFFFFFFFFFFFFFFFFFF DUP3 PUSH3 0x1EE JUMP JUMPDEST PUSH3 0x237 DUP7 DUP4 PUSH3 0x1EE JUMP JUMPDEST SWAP6 POP DUP1 NOT DUP5 AND SWAP4 POP DUP1 DUP7 AND DUP5 OR SWAP3 POP POP POP SWAP4 SWAP3 POP POP POP JUMP JUMPDEST PUSH0 DUP2 SWAP1 POP SWAP2 SWAP1 POP JUMP JUMPDEST PUSH0 DUP2 SWAP1 POP SWAP2 SWAP1 POP JUMP JUMPDEST PUSH0 PUSH3 0x281 PUSH3 0x27B PUSH3 0x275 DUP5 PUSH3 0x24F JUMP JUMPDEST PUSH3 0x258 JUMP JUMPDEST PUSH3 0x24F JUMP JUMPDEST SWAP1 POP SWAP2 SWAP1 POP JUMP JUMPDEST PUSH0 DUP2 SWAP1 POP SWAP2 SWAP1 POP JUMP JUMPDEST PUSH3 0x29C DUP4 PUSH3 0x261 JUMP JUMPDEST PUSH3 0x2B4 PUSH3 0x2AB DUP3 PUSH3 0x288 JUMP JUMPDEST DUP5 DUP5 SLOAD PUSH3 0x1FA JUMP JUMPDEST DUP3 SSTORE POP POP POP POP JUMP JUMPDEST PUSH0 SWAP1 JUMP JUMPDEST PUSH3 0x2CA PUSH3 0x2BC JUMP JUMPDEST PUSH3 0x2D7 DUP2 DUP5 DUP5 PUSH3 0x291 JUMP JUMPDEST POP POP POP JUMP JUMPDEST JUMPDEST DUP2 DUP2 LT ISZERO PUSH3 0x2FE JUMPI PUSH3 0x2F2 PUSH0 DUP3 PUSH3 0x2C0 JUMP JUMPDEST PUSH1 0x1 DUP2 ADD SWAP1 POP PUSH3 0x2DD JUMP JUMPDEST POP POP JUMP JUMPDEST PUSH1 0x1F DUP3 GT ISZERO PUSH3 0x34D JUMPI PUSH3 0x317 DUP2 PUSH3 0x1CD JUMP JUMPDEST PUSH3 0x322 DUP5 PUSH3 0x1DF JUMP JUMPDEST DUP2 ADD PUSH1 0x20 DUP6 LT ISZERO PUSH3 0x332 JUMPI DUP2 SWAP1 POP JUMPDEST PUSH3 0x34A PUSH3 0x341 DUP6 PUSH3 0x1DF JUMP JUMPDEST DUP4 ADD DUP3 PUSH3 0x2DC JUMP JUMPDEST POP POP JUMPDEST POP POP POP JUMP JUMPDEST PUSH0 DUP3 DUP3 SHR SWAP1 POP SWAP3 SWAP2 POP POP JUMP JUMPDEST PUSH0 PUSH3 0x36F PUSH0 NOT DUP5 PUSH1 0x8 MUL PUSH3 0x352 JUMP JUMPDEST NOT DUP1 DUP4 AND SWAP2 POP POP SWAP3 SWAP2 POP POP JUMP JUMPDEST PUSH0 PUSH3 0x389 DUP4 DUP4 PUSH3 0x35E JUMP JUMPDEST SWAP2 POP DUP3 PUSH1 0x2 MUL DUP3 OR SWAP1 POP SWAP3 SWAP2 POP POP JUMP JUMPDEST PUSH3 0x3A4 DUP3 PUSH3 0x135 JUMP JUMPDEST PUSH8 0xFFFFFFFFFFFFFFFF DUP2 GT ISZERO PUSH3 0x3C0 JUMPI PUSH3 0x3BF PUSH3 0x13F JUMP JUMPDEST JUMPDEST PUSH3 0x3CC DUP3 SLOAD PUSH3 0x199 JUMP JUMPDEST PUSH3 0x3D9 DUP3 DUP3 DUP6 PUSH3 0x302 JUMP JUMPDEST PUSH0 PUSH1 0x20 SWAP1 POP PUSH1 0x1F DUP4 GT PUSH1 0x1 DUP2 EQ PUSH3 0x40F JUMPI PUSH0 DUP5 ISZERO PUSH3 0x3FA JUMPI DUP3 DUP8 ADD MLOAD SWAP1 POP JUMPDEST PUSH3 0x406 DUP6 DUP3 PUSH3 0x37C JUMP JUMPDEST DUP7 SSTORE POP PUSH3 0x475 JUMP JUMPDEST PUSH1 0x1F NOT DUP5 AND PUSH3 0x41F DUP7 PUSH3 0x1CD JUMP JUMPDEST PUSH0 JUMPDEST DUP3 DUP2 LT ISZERO PUSH3 0x448 JUMPI DUP5 DUP10 ADD MLOAD DUP3 SSTORE PUSH1 0x1 DUP3 ADD SWAP2 POP PUSH1 0x20 DUP6 ADD SWAP5 POP PUSH1 0x20 DUP2 ADD SWAP1 POP PUSH3 0x421 JUMP JUMPDEST DUP7 DUP4 LT ISZERO PUSH3 0x468 JUMPI DUP5 DUP10 ADD MLOAD PUSH3 0x464 PUSH1 0x1F DUP10 AND DUP3 PUSH3 0x35E JUMP JUMPDEST DUP4 SSTORE POP JUMPDEST PUSH1 0x1 PUSH1 0x2 DUP9 MUL ADD DUP9 SSTORE POP POP POP JUMPDEST POP POP POP POP POP POP JUMP JUMPDEST PUSH2 0x19EC DUP1 PUSH3 0x48B PUSH0 CODECOPY PUSH0 RETURN INVALID PUSH1 0x80 PUSH1 0x40 MSTORE CALLVALUE DUP1 ISZERO PUSH2 0xF JUMPI PUSH0 DUP1 REVERT JUMPDEST POP PUSH1 0x4 CALLDATASIZE LT PUSH2 0x114 JUMPI PUSH0 CALLDATALOAD PUSH1 0xE0 SHR DUP1 PUSH4 0x95D89B41 GT PUSH2 0xA0 JUMPI DUP1 PUSH4 0xA9059CBB GT PUSH2 0x6F JUMPI DUP1 PUSH4 0xA9059CBB EQ PUSH2 0x304 JUMPI DUP1 PUSH4 0xAB7B1C89 EQ PUSH2 0x334 JUMPI DUP1 PUSH4 0xB4EAE1CB EQ PUSH2 0x350 JUMPI DUP1 PUSH4 0xBCC46E83 EQ PUSH2 0x36E JUMPI DUP1 PUSH4 0xDD62ED3E EQ PUSH2 0x38A JUMPI PUSH2 0x114 JUMP JUMPDEST DUP1 PUSH4 0x95D89B41 EQ PUSH2 0x26A JUMPI DUP1 PUSH4 0x9AAE66F9 EQ PUSH2 0x288 JUMPI DUP1 PUSH4 0x9DC29FAC EQ PUSH2 0x2B8 JUMPI DUP1 PUSH4 0xA1BF2840 EQ PUSH2 0x2D4 JUMPI PUSH2 0x114 JUMP JUMPDEST DUP1 PUSH4 0x27E235E3 GT PUSH2 0xE7 JUMPI DUP1 PUSH4 0x27E235E3 EQ PUSH2 0x1B4 JUMPI DUP1 PUSH4 0x40C10F19 EQ PUSH2 0x1E4 JUMPI DUP1 PUSH4 0x70A08231 EQ PUSH2 0x200 JUMPI DUP1 PUSH4 0x8DA5CB5B EQ PUSH2 0x230 JUMPI DUP1 PUSH4 0x9110DF85 EQ PUSH2 0x24E JUMPI PUSH2 0x114 JUMP JUMPDEST DUP1 PUSH4 0x6FDDE03 EQ PUSH2 0x118 JUMPI DUP1 PUSH4 0x95EA7B3 EQ PUSH2 0x136 JUMPI DUP1 PUSH4 0x18160DDD EQ PUSH2 0x166 JUMPI DUP1 PUSH4 0x23B872DD EQ PUSH2 0x184 JUMPI JUMPDEST PUSH0 DUP1 REVERT JUMPDEST PUSH2 0x120 PUSH2 0x3BA JUMP JUMPDEST PUSH1 0x40 MLOAD PUSH2 0x12D SWAP2 SWAP1 PUSH2 0x1318 JUMP JUMPDEST PUSH1 0x40 MLOAD DUP1 SWAP2 SUB SWAP1 RETURN JUMPDEST PUSH2 0x150 PUSH1 0x4 DUP1 CALLDATASIZE SUB DUP2 ADD SWAP1 PUSH2 0x14B SWAP2 SWAP1 PUSH2 0x13C9 JUMP JUMPDEST PUSH2 0x445 JUMP JUMPDEST PUSH1 0x40 MLOAD PUSH2 0x15D SWAP2 SWAP1 PUSH2 0x1421 JUMP JUMPDEST PUSH1 0x40 MLOAD DUP1 SWAP2 SUB SWAP1 RETURN JUMPDEST PUSH2 0x16E PUSH2 0x532 JUMP JUMPDEST PUSH1 0x40 MLOAD PUSH2 0x17B SWAP2 SWAP1 PUSH2 0x1449 JUMP JUMPDEST PUSH1 0x40 MLOAD DUP1 SWAP2 SUB SWAP1 RETURN JUMPDEST PUSH2 0x19E PUSH1 0x4 DUP1 CALLDATASIZE SUB DUP2 ADD SWAP1 PUSH2 0x199 SWAP2 SWAP1 PUSH2 0x1462 JUMP JUMPDEST PUSH2 0x538 JUMP JUMPDEST PUSH1 0x40 MLOAD PUSH2 0x1AB SWAP2 SWAP1 PUSH2 0x1421 JUMP JUMPDEST PUSH1 0x40 MLOAD DUP1 SWAP2 SUB SWAP1 RETURN JUMPDEST PUSH2 0x1CE PUSH1 0x4 DUP1 CALLDATASIZE SUB DUP2 ADD SWAP1 PUSH2 0x1C9 SWAP2 SWAP1 PUSH2 0x14B2 JUMP JUMPDEST PUSH2 0x818 JUMP JUMPDEST PUSH1 0x40 MLOAD PUSH2 0x1DB SWAP2 SWAP1 PUSH2 0x1449 JUMP JUMPDEST PUSH1 0x40 MLOAD DUP1 SWAP2 SUB SWAP1 RETURN JUMPDEST PUSH2 0x1FE PUSH1 0x4 DUP1 CALLDATASIZE SUB DUP2 ADD SWAP1 PUSH2 0x1F9 SWAP2 SWAP1 PUSH2 0x13C9 JUMP JUMPDEST PUSH2 0x82D JUMP JUMPDEST STOP JUMPDEST PUSH2 0x21A PUSH1 0x4 DUP1 CALLDATASIZE SUB DUP2 ADD SWAP1 PUSH2 0x215 SWAP2 SWAP1 PUSH2 0x14B2 JUMP JUMPDEST PUSH2 0x942 JUMP JUMPDEST PUSH1 0x40 MLOAD PUSH2 0x227 SWAP2 SWAP1 PUSH2 0x1449 JUMP JUMPDEST PUSH1 0x40 MLOAD DUP1 SWAP2 SUB SWAP1 RETURN JUMPDEST PUSH2 0x238 PUSH2 0x957 JUMP JUMPDEST PUSH1 0x40 MLOAD PUSH2 0x245 SWAP2 SWAP1 PUSH2 0x14EC JUMP JUMPDEST PUSH1 0x40 MLOAD DUP1 SWAP2 SUB SWAP1 RETURN JUMPDEST PUSH2 0x268 PUSH1 0x4 DUP1 CALLDATASIZE SUB DUP2 ADD SWAP1 PUSH2 0x263 SWAP2 SWAP1 PUSH2 0x1505 JUMP JUMPDEST PUSH2 0x97C JUMP JUMPDEST STOP JUMPDEST PUSH2 0x272 PUSH2 0xB99 JUMP JUMPDEST PUSH1 0x40 MLOAD PUSH2 0x27F SWAP2 SWAP1 PUSH2 0x1318 JUMP JUMPDEST PUSH1 0x40 MLOAD DUP1 SWAP2 SUB SWAP1 RETURN JUMPDEST PUSH2 0x2A2 PUSH1 0x4 DUP1 CALLDATASIZE SUB DUP2 ADD SWAP1 PUSH2 0x29D SWAP2 SWAP1 PUSH2 0x14B2 JUMP JUMPDEST PUSH2 0xC25 JUMP JUMPDEST PUSH1 0x40 MLOAD PUSH2 0x2AF SWAP2 SWAP1 PUSH2 0x1449 JUMP JUMPDEST PUSH1 0x40 MLOAD DUP1 SWAP2 SUB SWAP1 RETURN JUMPDEST PUSH2 0x2D2 PUSH1 0x4 DUP1 CALLDATASIZE SUB DUP2 ADD SWAP1 PUSH2 0x2CD SWAP2 SWAP1 PUSH2 0x13C9 JUMP JUMPDEST PUSH2 0xC3A JUMP JUMPDEST STOP JUMPDEST PUSH2 0x2EE PUSH1 0x4 DUP1 CALLDATASIZE SUB DUP2 ADD SWAP1 PUSH2 0x2E9 SWAP2 SWAP1 PUSH2 0x14B2 JUMP JUMPDEST PUSH2 0xDCF JUMP JUMPDEST PUSH1 0x40 MLOAD PUSH2 0x2FB SWAP2 SWAP1 PUSH2 0x1449 JUMP JUMPDEST PUSH1 0x40 MLOAD DUP1 SWAP2 SUB SWAP1 RETURN JUMPDEST PUSH2 0x31E PUSH1 0x4 DUP1 CALLDATASIZE SUB DUP2 ADD SWAP1 PUSH2 0x319 SWAP2 SWAP1 PUSH2 0x13C9 JUMP JUMPDEST PUSH2 0xDE4 JUMP JUMPDEST PUSH1 0x40 MLOAD PUSH2 0x32B SWAP2 SWAP1 PUSH2 0x1421 JUMP JUMPDEST PUSH1 0x40 MLOAD DUP1 SWAP2 SUB SWAP1 RETURN JUMPDEST PUSH2 0x34E PUSH1 0x4 DUP1 CALLDATASIZE SUB DUP2 ADD SWAP1 PUSH2 0x349 SWAP2 SWAP1 PUSH2 0x1543 JUMP JUMPDEST PUSH2 0xF7A JUMP JUMPDEST STOP JUMPDEST PUSH2 0x358 PUSH2 0x10F1 JUMP JUMPDEST PUSH1 0x40 MLOAD PUSH2 0x365 SWAP2 SWAP1 PUSH2 0x1449 JUMP JUMPDEST PUSH1 0x40 MLOAD DUP1 SWAP2 SUB SWAP1 RETURN JUMPDEST PUSH2 0x388 PUSH1 0x4 DUP1 CALLDATASIZE SUB DUP2 ADD SWAP1 PUSH2 0x383 SWAP2 SWAP1 PUSH2 0x1543 JUMP JUMPDEST PUSH2 0x10F7 JUMP JUMPDEST STOP JUMPDEST PUSH2 0x3A4 PUSH1 0x4 DUP1 CALLDATASIZE SUB DUP2 ADD SWAP1 PUSH2 0x39F SWAP2 SWAP1 PUSH2 0x156E JUMP JUMPDEST PUSH2 0x126E JUMP JUMPDEST PUSH1 0x40 MLOAD PUSH2 0x3B1 SWAP2 SWAP1 PUSH2 0x1449 JUMP JUMPDEST PUSH1 0x40 MLOAD DUP1 SWAP2 SUB SWAP1 RETURN JUMPDEST PUSH0 DUP1 SLOAD PUSH2 0x3C6 SWAP1 PUSH2 0x15D9 JUMP JUMPDEST DUP1 PUSH1 0x1F ADD PUSH1 0x20 DUP1 SWAP2 DIV MUL PUSH1 0x20 ADD PUSH1 0x40 MLOAD SWAP1 DUP2 ADD PUSH1 0x40 MSTORE DUP1 SWAP3 SWAP2 SWAP1 DUP2 DUP2 MSTORE PUSH1 0x20 ADD DUP3 DUP1 SLOAD PUSH2 0x3F2 SWAP1 PUSH2 0x15D9 JUMP JUMPDEST DUP1 ISZERO PUSH2 0x43D JUMPI DUP1 PUSH1 0x1F LT PUSH2 0x414 JUMPI PUSH2 0x100 DUP1 DUP4 SLOAD DIV MUL DUP4 MSTORE SWAP2 PUSH1 0x20 ADD SWAP2 PUSH2 0x43D JUMP JUMPDEST DUP3 ADD SWAP2 SWAP1 PUSH0 MSTORE PUSH1 0x20 PUSH0 KECCAK256 SWAP1 JUMPDEST DUP2 SLOAD DUP2 MSTORE SWAP1 PUSH1 0x1 ADD SWAP1 PUSH1 0x20 ADD DUP1 DUP4 GT PUSH2 0x420 JUMPI DUP3 SWAP1 SUB PUSH1 0x1F AND DUP3 ADD SWAP2 JUMPDEST POP POP POP POP POP DUP2 JUMP JUMPDEST PUSH0 DUP2 PUSH1 0x6 PUSH0 CALLER PUSH20 0xFFFFFFFFFFFFFFFFFFFFFFFFFFFFFFFFFFFFFFFF AND PUSH20 0xFFFFFFFFFFFFFFFFFFFFFFFFFFFFFFFFFFFFFFFF AND DUP2 MSTORE PUSH1 0x20 ADD SWAP1 DUP2 MSTORE PUSH1 0x20 ADD PUSH0 KECCAK256 PUSH0 DUP6 PUSH20 0xFFFFFFFFFFFFFFFFFFFFFFFFFFFFFFFFFFFFFFFF AND PUSH20 0xFFFFFFFFFFFFFFFFFFFFFFFFFFFFFFFFFFFFFFFF AND DUP2 MSTORE PUSH1 0x20 ADD SWAP1 DUP2 MSTORE PUSH1 0x20 ADD PUSH0 KECCAK256 DUP2 SWAP1 SSTORE POP DUP3 PUSH20 0xFFFFFFFFFFFFFFFFFFFFFFFFFFFFFFFFFFFFFFFF AND CALLER PUSH20 0xFFFFFFFFFFFFFFFFFFFFFFFFFFFFFFFFFFFFFFFF AND PUSH32 0x8C5BE1E5EBEC7D5BD14F71427D1E84F3DD0314C0F7B2291E5B200AC8C7C3B925 DUP5 PUSH1 0x40 MLOAD PUSH2 0x520 SWAP2 SWAP1 PUSH2 0x1449 JUMP JUMPDEST PUSH1 0x40 MLOAD DUP1 SWAP2 SUB SWAP1 LOG3 PUSH1 0x1 SWAP1 POP SWAP3 SWAP2 POP POP JUMP JUMPDEST PUSH1 0x2 SLOAD DUP2 JUMP JUMPDEST PUSH0 DUP2 PUSH1 0x4 PUSH0 DUP7 PUSH20 0xFFFFFFFFFFFFFFFFFFFFFFFFFFFFFFFFFFFFFFFF AND PUSH20 0xFFFFFFFFFFFFFFFFFFFFFFFFFFFFFFFFFFFFFFFF AND DUP2 MSTORE PUSH1 0x20 ADD SWAP1 DUP2 MSTORE PUSH1 0x20 ADD PUSH0 KECCAK256 SLOAD LT ISZERO PUSH2 0x5B9 JUMPI PUSH1 0x40 MLOAD PUSH32 0x8C379A000000000000000000000000000000000000000000000000000000000 DUP2 MSTORE PUSH1 0x4 ADD PUSH2 0x5B0 SWAP1 PUSH2 0x1653 JUMP JUMPDEST PUSH1 0x40 MLOAD DUP1 SWAP2 SUB SWAP1 REVERT JUMPDEST DUP2 PUSH1 0x6 PUSH0 DUP7 PUSH20 0xFFFFFFFFFFFFFFFFFFFFFFFFFFFFFFFFFFFFFFFF AND PUSH20 0xFFFFFFFFFFFFFFFFFFFFFFFFFFFFFFFFFFFFFFFF AND DUP2 MSTORE PUSH1 0x20 ADD SWAP1 DUP2 MSTORE PUSH1 0x20 ADD PUSH0 KECCAK256 PUSH0 CALLER PUSH20 0xFFFFFFFFFFFFFFFFFFFFFFFFFFFFFFFFFFFFFFFF AND PUSH20 0xFFFFFFFFFFFFFFFFFFFFFFFFFFFFFFFFFFFFFFFF AND DUP2 MSTORE PUSH1 0x20 ADD SWAP1 DUP2 MSTORE PUSH1 0x20 ADD PUSH0 KECCAK256 SLOAD LT ISZERO PUSH2 0x674 JUMPI PUSH1 0x40 MLOAD PUSH32 0x8C379A000000000000000000000000000000000000000000000000000000000 DUP2 MSTORE PUSH1 0x4 ADD PUSH2 0x66B SWAP1 PUSH2 0x16BB JUMP JUMPDEST PUSH1 0x40 MLOAD DUP1 SWAP2 SUB SWAP1 REVERT JUMPDEST DUP2 PUSH1 0x4 PUSH0 DUP7 PUSH20 0xFFFFFFFFFFFFFFFFFFFFFFFFFFFFFFFFFFFFFFFF AND PUSH20 0xFFFFFFFFFFFFFFFFFFFFFFFFFFFFFFFFFFFFFFFF AND DUP2 MSTORE PUSH1 0x20 ADD SWAP1 DUP2 MSTORE PUSH1 0x20 ADD PUSH0 KECCAK256 PUSH0 DUP3 DUP3 SLOAD PUSH2 0x6C0 SWAP2 SWAP1 PUSH2 0x1706 JUMP JUMPDEST SWAP3 POP POP DUP2 SWAP1 SSTORE POP DUP2 PUSH1 0x4 PUSH0 DUP6 PUSH20 0xFFFFFFFFFFFFFFFFFFFFFFFFFFFFFFFFFFFFFFFF AND PUSH20 0xFFFFFFFFFFFFFFFFFFFFFFFFFFFFFFFFFFFFFFFF AND DUP2 MSTORE PUSH1 0x20 ADD SWAP1 DUP2 MSTORE PUSH1 0x20 ADD PUSH0 KECCAK256 PUSH0 DUP3 DUP3 SLOAD PUSH2 0x713 SWAP2 SWAP1 PUSH2 0x1739 JUMP JUMPDEST SWAP3 POP POP DUP2 SWAP1 SSTORE POP DUP2 PUSH1 0x6 PUSH0 DUP7 PUSH20 0xFFFFFFFFFFFFFFFFFFFFFFFFFFFFFFFFFFFFFFFF AND PUSH20 0xFFFFFFFFFFFFFFFFFFFFFFFFFFFFFFFFFFFFFFFF AND DUP2 MSTORE PUSH1 0x20 ADD SWAP1 DUP2 MSTORE PUSH1 0x20 ADD PUSH0 KECCAK256 PUSH0 CALLER PUSH20 0xFFFFFFFFFFFFFFFFFFFFFFFFFFFFFFFFFFFFFFFF AND PUSH20 0xFFFFFFFFFFFFFFFFFFFFFFFFFFFFFFFFFFFFFFFF AND DUP2 MSTORE PUSH1 0x20 ADD SWAP1 DUP2 MSTORE PUSH1 0x20 ADD PUSH0 KECCAK256 PUSH0 DUP3 DUP3 SLOAD PUSH2 0x7A1 SWAP2 SWAP1 PUSH2 0x1706 JUMP JUMPDEST SWAP3 POP POP DUP2 SWAP1 SSTORE POP DUP3 PUSH20 0xFFFFFFFFFFFFFFFFFFFFFFFFFFFFFFFFFFFFFFFF AND DUP5 PUSH20 0xFFFFFFFFFFFFFFFFFFFFFFFFFFFFFFFFFFFFFFFF AND PUSH32 0xDDF252AD1BE2C89B69C2B068FC378DAA952BA7F163C4A11628F55A4DF523B3EF DUP5 PUSH1 0x40 MLOAD PUSH2 0x805 SWAP2 SWAP1 PUSH2 0x1449 JUMP JUMPDEST PUSH1 0x40 MLOAD DUP1 SWAP2 SUB SWAP1 LOG3 PUSH1 0x1 SWAP1 POP SWAP4 SWAP3 POP POP POP JUMP JUMPDEST PUSH1 0x5 PUSH1 0x20 MSTORE DUP1 PUSH0 MSTORE PUSH1 0x40 PUSH0 KECCAK256 PUSH0 SWAP2 POP SWAP1 POP SLOAD DUP2 JUMP JUMPDEST PUSH1 0x3 PUSH0 SWAP1 SLOAD SWAP1 PUSH2 0x100 EXP SWAP1 DIV PUSH20 0xFFFFFFFFFFFFFFFFFFFFFFFFFFFFFFFFFFFFFFFF AND PUSH20 0xFFFFFFFFFFFFFFFFFFFFFFFFFFFFFFFFFFFFFFFF AND CALLER PUSH20 0xFFFFFFFFFFFFFFFFFFFFFFFFFFFFFFFFFFFFFFFF AND EQ PUSH2 0x885 JUMPI PUSH0 DUP1 REVERT JUMPDEST DUP1 PUSH1 0x5 PUSH0 DUP5 PUSH20 0xFFFFFFFFFFFFFFFFFFFFFFFFFFFFFFFFFFFFFFFF AND PUSH20 0xFFFFFFFFFFFFFFFFFFFFFFFFFFFFFFFFFFFFFFFF AND DUP2 MSTORE PUSH1 0x20 ADD SWAP1 DUP2 MSTORE PUSH1 0x20 ADD PUSH0 KECCAK256 PUSH0 DUP3 DUP3 SLOAD PUSH2 0x8D1 SWAP2 SWAP1 PUSH2 0x1739 JUMP JUMPDEST SWAP3 POP POP DUP2 SWAP1 SSTORE POP DUP1 PUSH1 0x2 PUSH0 DUP3 DUP3 SLOAD PUSH2 0x8E9 SWAP2 SWAP1 PUSH2 0x1739 JUMP JUMPDEST SWAP3 POP POP DUP2 SWAP1 SSTORE POP DUP2 PUSH20 0xFFFFFFFFFFFFFFFFFFFFFFFFFFFFFFFFFFFFFFFF AND PUSH32 0xF6798A560793A54C3BCFE86A93CDE1E73087D944C0EA20544137D4121396885 DUP3 PUSH1 0x40 MLOAD PUSH2 0x936 SWAP2 SWAP1 PUSH2 0x1449 JUMP JUMPDEST PUSH1 0x40 MLOAD DUP1 SWAP2 SUB SWAP1 LOG2 POP POP JUMP JUMPDEST PUSH1 0x4 PUSH1 0x20 MSTORE DUP1 PUSH0 MSTORE PUSH1 0x40 PUSH0 KECCAK256 PUSH0 SWAP2 POP SWAP1 POP SLOAD DUP2 JUMP JUMPDEST PUSH1 0x3 PUSH0 SWAP1 SLOAD SWAP1 PUSH2 0x100 EXP SWAP1 DIV PUSH20 0xFFFFFFFFFFFFFFFFFFFFFFFFFFFFFFFFFFFFFFFF AND DUP2 JUMP JUMPDEST DUP2 PUSH1 0x4 PUSH0 CALLER PUSH20 0xFFFFFFFFFFFFFFFFFFFFFFFFFFFFFFFFFFFFFFFF AND PUSH20 0xFFFFFFFFFFFFFFFFFFFFFFFFFFFFFFFFFFFFFFFF AND DUP2 MSTORE PUSH1 0x20 ADD SWAP1 DUP2 MSTORE PUSH1 0x20 ADD PUSH0 KECCAK256 SLOAD LT ISZERO PUSH2 0x9FC JUMPI PUSH1 0x40 MLOAD PUSH32 0x8C379A000000000000000000000000000000000000000000000000000000000 DUP2 MSTORE PUSH1 0x4 ADD PUSH2 0x9F3 SWAP1 PUSH2 0x1653 JUMP JUMPDEST PUSH1 0x40 MLOAD DUP1 SWAP2 SUB SWAP1 REVERT JUMPDEST PUSH1 0x9 SLOAD DUP3 PUSH2 0xA0A SWAP2 SWAP1 PUSH2 0x1799 JUMP JUMPDEST DUP2 LT ISZERO PUSH2 0xA4C JUMPI PUSH1 0x40 MLOAD PUSH32 0x8C379A000000000000000000000000000000000000000000000000000000000 DUP2 MSTORE PUSH1 0x4 ADD PUSH2 0xA43 SWAP1 PUSH2 0x1813 JUMP JUMPDEST PUSH1 0x40 MLOAD DUP1 SWAP2 SUB SWAP1 REVERT JUMPDEST DUP2 PUSH1 0x4 PUSH0 CALLER PUSH20 0xFFFFFFFFFFFFFFFFFFFFFFFFFFFFFFFFFFFFFFFF AND PUSH20 0xFFFFFFFFFFFFFFFFFFFFFFFFFFFFFFFFFFFFFFFF AND DUP2 MSTORE PUSH1 0x20 ADD SWAP1 DUP2 MSTORE PUSH1 0x20 ADD PUSH0 KECCAK256 PUSH0 DUP3 DUP3 SLOAD PUSH2 0xA98 SWAP2 SWAP1 PUSH2 0x1706 JUMP JUMPDEST SWAP3 POP POP DUP2 SWAP1 SSTORE POP DUP2 PUSH1 0x7 PUSH0 CALLER PUSH20 0xFFFFFFFFFFFFFFFFFFFFFFFFFFFFFFFFFFFFFFFF AND PUSH20 0xFFFFFFFFFFFFFFFFFFFFFFFFFFFFFFFFFFFFFFFF AND DUP2 MSTORE PUSH1 0x20 ADD SWAP1 DUP2 MSTORE PUSH1 0x20 ADD PUSH0 KECCAK256 PUSH0 DUP3 DUP3 SLOAD PUSH2 0xAEB SWAP2 SWAP1 PUSH2 0x1739 JUMP JUMPDEST SWAP3 POP POP DUP2 SWAP1 SSTORE POP DUP1 PUSH1 0x8 PUSH0 CALLER PUSH20 0xFFFFFFFFFFFFFFFFFFFFFFFFFFFFFFFFFFFFFFFF AND PUSH20 0xFFFFFFFFFFFFFFFFFFFFFFFFFFFFFFFFFFFFFFFF AND DUP2 MSTORE PUSH1 0x20 ADD SWAP1 DUP2 MSTORE PUSH1 0x20 ADD PUSH0 KECCAK256 PUSH0 DUP3 DUP3 SLOAD PUSH2 0xB3E SWAP2 SWAP1 PUSH2 0x1739 JUMP JUMPDEST SWAP3 POP POP DUP2 SWAP1 SSTORE POP CALLER PUSH20 0xFFFFFFFFFFFFFFFFFFFFFFFFFFFFFFFFFFFFFFFF AND PUSH32 0xE73E31007D63465ECEAABFAE515099DE1EE3152614BD2824A7E75CE65517AE16 DUP4 DUP4 PUSH1 0x40 MLOAD PUSH2 0xB8D SWAP3 SWAP2 SWAP1 PUSH2 0x1831 JUMP JUMPDEST PUSH1 0x40 MLOAD DUP1 SWAP2 SUB SWAP1 LOG2 POP POP JUMP JUMPDEST PUSH1 0x1 DUP1 SLOAD PUSH2 0xBA6 SWAP1 PUSH2 0x15D9 JUMP JUMPDEST DUP1 PUSH1 0x1F ADD PUSH1 0x20 DUP1 SWAP2 DIV MUL PUSH1 0x20 ADD PUSH1 0x40 MLOAD SWAP1 DUP2 ADD PUSH1 0x40 MSTORE DUP1 SWAP3 SWAP2 SWAP1 DUP2 DUP2 MSTORE PUSH1 0x20 ADD DUP3 DUP1 SLOAD PUSH2 0xBD2 SWAP1 PUSH2 0x15D9 JUMP JUMPDEST DUP1 ISZERO PUSH2 0xC1D JUMPI DUP1 PUSH1 0x1F LT PUSH2 0xBF4 JUMPI PUSH2 0x100 DUP1 DUP4 SLOAD DIV MUL DUP4 MSTORE SWAP2 PUSH1 0x20 ADD SWAP2 PUSH2 0xC1D JUMP JUMPDEST DUP3 ADD SWAP2 SWAP1 PUSH0 MSTORE PUSH1 0x20 PUSH0 KECCAK256 SWAP1 JUMPDEST DUP2 SLOAD DUP2 MSTORE SWAP1 PUSH1 0x1 ADD SWAP1 PUSH1 0x20 ADD DUP1 DUP4 GT PUSH2 0xC00 JUMPI DUP3 SWAP1 SUB PUSH1 0x1F AND DUP3 ADD SWAP2 JUMPDEST POP POP POP POP POP DUP2 JUMP JUMPDEST PUSH1 0x7 PUSH1 0x20 MSTORE DUP1 PUSH0 MSTORE PUSH1 0x40 PUSH0 KECCAK256 PUSH0 SWAP2 POP SWAP1 POP SLOAD DUP2 JUMP JUMPDEST PUSH1 0x3 PUSH0 SWAP1 SLOAD SWAP1 PUSH2 0x100 EXP SWAP1 DIV PUSH20 0xFFFFFFFFFFFFFFFFFFFFFFFFFFFFFFFFFFFFFFFF AND PUSH20 0xFFFFFFFFFFFFFFFFFFFFFFFFFFFFFFFFFFFFFFFF AND CALLER PUSH20 0xFFFFFFFFFFFFFFFFFFFFFFFFFFFFFFFFFFFFFFFF AND EQ PUSH2 0xC92 JUMPI PUSH0 DUP1 REVERT JUMPDEST DUP1 PUSH1 0x5 PUSH0 DUP5 PUSH20 0xFFFFFFFFFFFFFFFFFFFFFFFFFFFFFFFFFFFFFFFF AND PUSH20 0xFFFFFFFFFFFFFFFFFFFFFFFFFFFFFFFFFFFFFFFF AND DUP2 MSTORE PUSH1 0x20 ADD SWAP1 DUP2 MSTORE PUSH1 0x20 ADD PUSH0 KECCAK256 SLOAD LT ISZERO PUSH2 0xD12 JUMPI PUSH1 0x40 MLOAD PUSH32 0x8C379A000000000000000000000000000000000000000000000000000000000 DUP2 MSTORE PUSH1 0x4 ADD PUSH2 0xD09 SWAP1 PUSH2 0x18A2 JUMP JUMPDEST PUSH1 0x40 MLOAD DUP1 SWAP2 SUB SWAP1 REVERT JUMPDEST DUP1 PUSH1 0x5 PUSH0 DUP5 PUSH20 0xFFFFFFFFFFFFFFFFFFFFFFFFFFFFFFFFFFFFFFFF AND PUSH20 0xFFFFFFFFFFFFFFFFFFFFFFFFFFFFFFFFFFFFFFFF AND DUP2 MSTORE PUSH1 0x20 ADD SWAP1 DUP2 MSTORE PUSH1 0x20 ADD PUSH0 KECCAK256 PUSH0 DUP3 DUP3 SLOAD PUSH2 0xD5E SWAP2 SWAP1 PUSH2 0x1706 JUMP JUMPDEST SWAP3 POP POP DUP2 SWAP1 SSTORE POP DUP1 PUSH1 0x2 PUSH0 DUP3 DUP3 SLOAD PUSH2 0xD76 SWAP2 SWAP1 PUSH2 0x1706 JUMP JUMPDEST SWAP3 POP POP DUP2 SWAP1 SSTORE POP DUP2 PUSH20 0xFFFFFFFFFFFFFFFFFFFFFFFFFFFFFFFFFFFFFFFF AND PUSH32 0xCC16F5DBB4873280815C1EE09DBD06736CFFCC184412CF7A71A0FDB75D397CA5 DUP3 PUSH1 0x40 MLOAD PUSH2 0xDC3 SWAP2 SWAP1 PUSH2 0x1449 JUMP JUMPDEST PUSH1 0x40 MLOAD DUP1 SWAP2 SUB SWAP1 LOG2 POP POP JUMP JUMPDEST PUSH1 0x8 PUSH1 0x20 MSTORE DUP1 PUSH0 MSTORE PUSH1 0x40 PUSH0 KECCAK256 PUSH0 SWAP2 POP SWAP1 POP SLOAD DUP2 JUMP JUMPDEST PUSH0 DUP2 PUSH1 0x4 PUSH0 CALLER PUSH20 0xFFFFFFFFFFFFFFFFFFFFFFFFFFFFFFFFFFFFFFFF AND PUSH20 0xFFFFFFFFFFFFFFFFFFFFFFFFFFFFFFFFFFFFFFFF AND DUP2 MSTORE PUSH1 0x20 ADD SWAP1 DUP2 MSTORE PUSH1 0x20 ADD PUSH0 KECCAK256 SLOAD LT ISZERO PUSH2 0xE65 JUMPI PUSH1 0x40 MLOAD PUSH32 0x8C379A000000000000000000000000000000000000000000000000000000000 DUP2 MSTORE PUSH1 0x4 ADD PUSH2 0xE5C SWAP1 PUSH2 0x1653 JUMP JUMPDEST PUSH1 0x40 MLOAD DUP1 SWAP2 SUB SWAP1 REVERT JUMPDEST DUP2 PUSH1 0x4 PUSH0 CALLER PUSH20 0xFFFFFFFFFFFFFFFFFFFFFFFFFFFFFFFFFFFFFFFF AND PUSH20 0xFFFFFFFFFFFFFFFFFFFFFFFFFFFFFFFFFFFFFFFF AND DUP2 MSTORE PUSH1 0x20 ADD SWAP1 DUP2 MSTORE PUSH1 0x20 ADD PUSH0 KECCAK256 PUSH0 DUP3 DUP3 SLOAD PUSH2 0xEB1 SWAP2 SWAP1 PUSH2 0x1706 JUMP JUMPDEST SWAP3 POP POP DUP2 SWAP1 SSTORE POP DUP2 PUSH1 0x4 PUSH0 DUP6 PUSH20 0xFFFFFFFFFFFFFFFFFFFFFFFFFFFFFFFFFFFFFFFF AND PUSH20 0xFFFFFFFFFFFFFFFFFFFFFFFFFFFFFFFFFFFFFFFF AND DUP2 MSTORE PUSH1 0x20 ADD SWAP1 DUP2 MSTORE PUSH1 0x20 ADD PUSH0 KECCAK256 PUSH0 DUP3 DUP3 SLOAD PUSH2 0xF04 SWAP2 SWAP1 PUSH2 0x1739 JUMP JUMPDEST SWAP3 POP POP DUP2 SWAP1 SSTORE POP DUP3 PUSH20 0xFFFFFFFFFFFFFFFFFFFFFFFFFFFFFFFFFFFFFFFF AND CALLER PUSH20 0xFFFFFFFFFFFFFFFFFFFFFFFFFFFFFFFFFFFFFFFF AND PUSH32 0xDDF252AD1BE2C89B69C2B068FC378DAA952BA7F163C4A11628F55A4DF523B3EF DUP5 PUSH1 0x40 MLOAD PUSH2 0xF68 SWAP2 SWAP1 PUSH2 0x1449 JUMP JUMPDEST PUSH1 0x40 MLOAD DUP1 SWAP2 SUB SWAP1 LOG3 PUSH1 0x1 SWAP1 POP SWAP3 SWAP2 POP POP JUMP JUMPDEST DUP1 PUSH1 0x7 PUSH0 CALLER PUSH20 0xFFFFFFFFFFFFFFFFFFFFFFFFFFFFFFFFFFFFFFFF AND PUSH20 0xFFFFFFFFFFFFFFFFFFFFFFFFFFFFFFFFFFFFFFFF AND DUP2 MSTORE PUSH1 0x20 ADD SWAP1 DUP2 MSTORE PUSH1 0x20 ADD PUSH0 KECCAK256 SLOAD LT ISZERO PUSH2 0xFFA JUMPI PUSH1 0x40 MLOAD PUSH32 0x8C379A000000000000000000000000000000000000000000000000000000000 DUP2 MSTORE PUSH1 0x4 ADD PUSH2 0xFF1 SWAP1 PUSH2 0x190A JUMP JUMPDEST PUSH1 0x40 MLOAD DUP1 SWAP2 SUB SWAP1 REVERT JUMPDEST DUP1 PUSH1 0x7 PUSH0 CALLER PUSH20 0xFFFFFFFFFFFFFFFFFFFFFFFFFFFFFFFFFFFFFFFF AND PUSH20 0xFFFFFFFFFFFFFFFFFFFFFFFFFFFFFFFFFFFFFFFF AND DUP2 MSTORE PUSH1 0x20 ADD SWAP1 DUP2 MSTORE PUSH1 0x20 ADD PUSH0 KECCAK256 PUSH0 DUP3 DUP3 SLOAD PUSH2 0x1046 SWAP2 SWAP1 PUSH2 0x1706 JUMP JUMPDEST SWAP3 POP POP DUP2 SWAP1 SSTORE POP DUP1 PUSH1 0x4 PUSH0 CALLER PUSH20 0xFFFFFFFFFFFFFFFFFFFFFFFFFFFFFFFFFFFFFFFF AND PUSH20 0xFFFFFFFFFFFFFFFFFFFFFFFFFFFFFFFFFFFFFFFF AND DUP2 MSTORE PUSH1 0x20 ADD SWAP1 DUP2 MSTORE PUSH1 0x20 ADD PUSH0 KECCAK256 PUSH0 DUP3 DUP3 SLOAD PUSH2 0x1099 SWAP2 SWAP1 PUSH2 0x1739 JUMP JUMPDEST SWAP3 POP POP DUP2 SWAP1 SSTORE POP CALLER PUSH20 0xFFFFFFFFFFFFFFFFFFFFFFFFFFFFFFFFFFFFFFFF AND PUSH32 0xBB284F7F8CB8B1B8C98EE9A7D765413EFC44BBB17352A0302ADA1D737CDAEF1B DUP3 PUSH1 0x40 MLOAD PUSH2 0x10E6 SWAP2 SWAP1 PUSH2 0x1449 JUMP JUMPDEST PUSH1 0x40 MLOAD DUP1 SWAP2 SUB SWAP1 LOG2 POP JUMP JUMPDEST PUSH1 0x9 SLOAD DUP2 JUMP JUMPDEST DUP1 PUSH1 0x4 PUSH0 CALLER PUSH20 0xFFFFFFFFFFFFFFFFFFFFFFFFFFFFFFFFFFFFFFFF AND PUSH20 0xFFFFFFFFFFFFFFFFFFFFFFFFFFFFFFFFFFFFFFFF AND DUP2 MSTORE PUSH1 0x20 ADD SWAP1 DUP2 MSTORE PUSH1 0x20 ADD PUSH0 KECCAK256 SLOAD LT ISZERO PUSH2 0x1177 JUMPI PUSH1 0x40 MLOAD PUSH32 0x8C379A000000000000000000000000000000000000000000000000000000000 DUP2 MSTORE PUSH1 0x4 ADD PUSH2 0x116E SWAP1 PUSH2 0x1998 JUMP JUMPDEST PUSH1 0x40 MLOAD DUP1 SWAP2 SUB SWAP1 REVERT JUMPDEST DUP1 PUSH1 0x4 PUSH0 CALLER PUSH20 0xFFFFFFFFFFFFFFFFFFFFFFFFFFFFFFFFFFFFFFFF AND PUSH20 0xFFFFFFFFFFFFFFFFFFFFFFFFFFFFFFFFFFFFFFFF AND DUP2 MSTORE PUSH1 0x20 ADD SWAP1 DUP2 MSTORE PUSH1 0x20 ADD PUSH0 KECCAK256 PUSH0 DUP3 DUP3 SLOAD PUSH2 0x11C3 SWAP2 SWAP1 PUSH2 0x1706 JUMP JUMPDEST SWAP3 POP POP DUP2 SWAP1 SSTORE POP DUP1 PUSH1 0x8 PUSH0 CALLER PUSH20 0xFFFFFFFFFFFFFFFFFFFFFFFFFFFFFFFFFFFFFFFF AND PUSH20 0xFFFFFFFFFFFFFFFFFFFFFFFFFFFFFFFFFFFFFFFF AND DUP2 MSTORE PUSH1 0x20 ADD SWAP1 DUP2 MSTORE PUSH1 0x20 ADD PUSH0 KECCAK256 PUSH0 DUP3 DUP3 SLOAD PUSH2 0x1216 SWAP2 SWAP1 PUSH2 0x1739 JUMP JUMPDEST SWAP3 POP POP DUP2 SWAP1 SSTORE POP CALLER PUSH20 0xFFFFFFFFFFFFFFFFFFFFFFFFFFFFFFFFFFFFFFFF AND PUSH32 0x7DBA1BE544024070CD5EEBFA8BDD80A8B198CEA8058C7D3CC1F8DD36E41AB2F7 DUP3 PUSH1 0x40 MLOAD PUSH2 0x1263 SWAP2 SWAP1 PUSH2 0x1449 JUMP JUMPDEST PUSH1 0x40 MLOAD DUP1 SWAP2 SUB SWAP1 LOG2 POP JUMP JUMPDEST PUSH1 0x6 PUSH1 0x20 MSTORE DUP2 PUSH0 MSTORE PUSH1 0x40 PUSH0 KECCAK256 PUSH1 0x20 MSTORE DUP1 PUSH0 MSTORE PUSH1 0x40 PUSH0 KECCAK256 PUSH0 SWAP2 POP SWAP2 POP POP SLOAD DUP2 JUMP JUMPDEST PUSH0 DUP2 MLOAD SWAP1 POP SWAP2 SWAP1 POP JUMP JUMPDEST PUSH0 DUP3 DUP3 MSTORE PUSH1 0x20 DUP3 ADD SWAP1 POP SWAP3 SWAP2 POP POP JUMP JUMPDEST PUSH0 JUMPDEST DUP4 DUP2 LT ISZERO PUSH2 0x12C5 JUMPI DUP1 DUP3 ADD MLOAD DUP2 DUP5 ADD MSTORE PUSH1 0x20 DUP2 ADD SWAP1 POP PUSH2 0x12AA JUMP JUMPDEST PUSH0 DUP5 DUP5 ADD MSTORE POP POP POP POP JUMP JUMPDEST PUSH0 PUSH1 0x1F NOT PUSH1 0x1F DUP4 ADD AND SWAP1 POP SWAP2 SWAP1 POP JUMP JUMPDEST PUSH0 PUSH2 0x12EA DUP3 PUSH2 0x128E JUMP JUMPDEST PUSH2 0x12F4 DUP2 DUP6 PUSH2 0x1298 JUMP JUMPDEST SWAP4 POP PUSH2 0x1304 DUP2 DUP6 PUSH1 0x20 DUP7 ADD PUSH2 0x12A8 JUMP JUMPDEST PUSH2 0x130D DUP2 PUSH2 0x12D0 JUMP JUMPDEST DUP5 ADD SWAP2 POP POP SWAP3 SWAP2 POP POP JUMP JUMPDEST PUSH0 PUSH1 0x20 DUP3 ADD SWAP1 POP DUP2 DUP2 SUB PUSH0 DUP4 ADD MSTORE PUSH2 0x1330 DUP2 DUP5 PUSH2 0x12E0 JUMP JUMPDEST SWAP1 POP SWAP3 SWAP2 POP POP JUMP JUMPDEST PUSH0 DUP1 REVERT JUMPDEST PUSH0 PUSH20 0xFFFFFFFFFFFFFFFFFFFFFFFFFFFFFFFFFFFFFFFF DUP3 AND SWAP1 POP SWAP2 SWAP1 POP JUMP JUMPDEST PUSH0 PUSH2 0x1365 DUP3 PUSH2 0x133C JUMP JUMPDEST SWAP1 POP SWAP2 SWAP1 POP JUMP JUMPDEST PUSH2 0x1375 DUP2 PUSH2 0x135B JUMP JUMPDEST DUP2 EQ PUSH2 0x137F JUMPI PUSH0 DUP1 REVERT JUMPDEST POP JUMP JUMPDEST PUSH0 DUP2 CALLDATALOAD SWAP1 POP PUSH2 0x1390 DUP2 PUSH2 0x136C JUMP JUMPDEST SWAP3 SWAP2 POP POP JUMP JUMPDEST PUSH0 DUP2 SWAP1 POP SWAP2 SWAP1 POP JUMP JUMPDEST PUSH2 0x13A8 DUP2 PUSH2 0x1396 JUMP JUMPDEST DUP2 EQ PUSH2 0x13B2 JUMPI PUSH0 DUP1 REVERT JUMPDEST POP JUMP JUMPDEST PUSH0 DUP2 CALLDATALOAD SWAP1 POP PUSH2 0x13C3 DUP2 PUSH2 0x139F JUMP JUMPDEST SWAP3 SWAP2 POP POP JUMP JUMPDEST PUSH0 DUP1 PUSH1 0x40 DUP4 DUP6 SUB SLT ISZERO PUSH2 0x13DF JUMPI PUSH2 0x13DE PUSH2 0x1338 JUMP JUMPDEST JUMPDEST PUSH0 PUSH2 0x13EC DUP6 DUP3 DUP7 ADD PUSH2 0x1382 JUMP JUMPDEST SWAP3 POP POP PUSH1 0x20 PUSH2 0x13FD DUP6 DUP3 DUP7 ADD PUSH2 0x13B5 JUMP JUMPDEST SWAP2 POP POP SWAP3 POP SWAP3 SWAP1 POP JUMP JUMPDEST PUSH0 DUP2 ISZERO ISZERO SWAP1 POP SWAP2 SWAP1 POP JUMP JUMPDEST PUSH2 0x141B DUP2 PUSH2 0x1407 JUMP JUMPDEST DUP3 MSTORE POP POP JUMP JUMPDEST PUSH0 PUSH1 0x20 DUP3 ADD SWAP1 POP PUSH2 0x1434 PUSH0 DUP4 ADD DUP5 PUSH2 0x1412 JUMP JUMPDEST SWAP3 SWAP2 POP POP JUMP JUMPDEST PUSH2 0x1443 DUP2 PUSH2 0x1396 JUMP JUMPDEST DUP3 MSTORE POP POP JUMP JUMPDEST PUSH0 PUSH1 0x20 DUP3 ADD SWAP1 POP PUSH2 0x145C PUSH0 DUP4 ADD DUP5 PUSH2 0x143A JUMP JUMPDEST SWAP3 SWAP2 POP POP JUMP JUMPDEST PUSH0 DUP1 PUSH0 PUSH1 0x60 DUP5 DUP7 SUB SLT ISZERO PUSH2 0x1479 JUMPI PUSH2 0x1478 PUSH2 0x1338 JUMP JUMPDEST JUMPDEST PUSH0 PUSH2 0x1486 DUP7 DUP3 DUP8 ADD PUSH2 0x1382 JUMP JUMPDEST SWAP4 POP POP PUSH1 0x20 PUSH2 0x1497 DUP7 DUP3 DUP8 ADD PUSH2 0x1382 JUMP JUMPDEST SWAP3 POP POP PUSH1 0x40 PUSH2 0x14A8 DUP7 DUP3 DUP8 ADD PUSH2 0x13B5 JUMP JUMPDEST SWAP2 POP POP SWAP3 POP SWAP3 POP SWAP3 JUMP JUMPDEST PUSH0 PUSH1 0x20 DUP3 DUP5 SUB SLT ISZERO PUSH2 0x14C7 JUMPI PUSH2 0x14C6 PUSH2 0x1338 JUMP JUMPDEST JUMPDEST PUSH0 PUSH2 0x14D4 DUP5 DUP3 DUP6 ADD PUSH2 0x1382 JUMP JUMPDEST SWAP2 POP POP SWAP3 SWAP2 POP POP JUMP JUMPDEST PUSH2 0x14E6 DUP2 PUSH2 0x135B JUMP JUMPDEST DUP3 MSTORE POP POP JUMP JUMPDEST PUSH0 PUSH1 0x20 DUP3 ADD SWAP1 POP PUSH2 0x14FF PUSH0 DUP4 ADD DUP5 PUSH2 0x14DD JUMP JUMPDEST SWAP3 SWAP2 POP POP JUMP JUMPDEST PUSH0 DUP1 PUSH1 0x40 DUP4 DUP6 SUB SLT ISZERO PUSH2 0x151B JUMPI PUSH2 0x151A PUSH2 0x1338 JUMP JUMPDEST JUMPDEST PUSH0 PUSH2 0x1528 DUP6 DUP3 DUP7 ADD PUSH2 0x13B5 JUMP JUMPDEST SWAP3 POP POP PUSH1 0x20 PUSH2 0x1539 DUP6 DUP3 DUP7 ADD PUSH2 0x13B5 JUMP JUMPDEST SWAP2 POP POP SWAP3 POP SWAP3 SWAP1 POP JUMP JUMPDEST PUSH0 PUSH1 0x20 DUP3 DUP5 SUB SLT ISZERO PUSH2 0x1558 JUMPI PUSH2 0x1557 PUSH2 0x1338 JUMP JUMPDEST JUMPDEST PUSH0 PUSH2 0x1565 DUP5 DUP3 DUP6 ADD PUSH2 0x13B5 JUMP JUMPDEST SWAP2 POP POP SWAP3 SWAP2 POP POP JUMP JUMPDEST PUSH0 DUP1 PUSH1 0x40 DUP4 DUP6 SUB SLT ISZERO PUSH2 0x1584 JUMPI PUSH2 0x1583 PUSH2 0x1338 JUMP JUMPDEST JUMPDEST PUSH0 PUSH2 0x1591 DUP6 DUP3 DUP7 ADD PUSH2 0x1382 JUMP JUMPDEST SWAP3 POP POP PUSH1 0x20 PUSH2 0x15A2 DUP6 DUP3 DUP7 ADD PUSH2 0x1382 JUMP JUMPDEST SWAP2 POP POP SWAP3 POP SWAP3 SWAP1 POP JUMP JUMPDEST PUSH32 0x4E487B7100000000000000000000000000000000000000000000000000000000 PUSH0 MSTORE PUSH1 0x22 PUSH1 0x4 MSTORE PUSH1 0x24 PUSH0 REVERT JUMPDEST PUSH0 PUSH1 0x2 DUP3 DIV SWAP1 POP PUSH1 0x1 DUP3 AND DUP1 PUSH2 0x15F0 JUMPI PUSH1 0x7F DUP3 AND SWAP2 POP JUMPDEST PUSH1 0x20 DUP3 LT DUP2 SUB PUSH2 0x1603 JUMPI PUSH2 0x1602 PUSH2 0x15AC JUMP JUMPDEST JUMPDEST POP SWAP2 SWAP1 POP JUMP JUMPDEST PUSH32 0x496E73756666696369656E742062616C616E6365000000000000000000000000 PUSH0 DUP3 ADD MSTORE POP JUMP JUMPDEST PUSH0 PUSH2 0x163D PUSH1 0x14 DUP4 PUSH2 0x1298 JUMP JUMPDEST SWAP2 POP PUSH2 0x1648 DUP3 PUSH2 0x1609 JUMP JUMPDEST PUSH1 0x20 DUP3 ADD SWAP1 POP SWAP2 SWAP1 POP JUMP JUMPDEST PUSH0 PUSH1 0x20 DUP3 ADD SWAP1 POP DUP2 DUP2 SUB PUSH0 DUP4 ADD MSTORE PUSH2 0x166A DUP2 PUSH2 0x1631 JUMP JUMPDEST SWAP1 POP SWAP2 SWAP1 POP JUMP JUMPDEST PUSH32 0x496E73756666696369656E7420616C6C6F77616E636500000000000000000000 PUSH0 DUP3 ADD MSTORE POP JUMP JUMPDEST PUSH0 PUSH2 0x16A5 PUSH1 0x16 DUP4 PUSH2 0x1298 JUMP JUMPDEST SWAP2 POP PUSH2 0x16B0 DUP3 PUSH2 0x1671 JUMP JUMPDEST PUSH1 0x20 DUP3 ADD SWAP1 POP SWAP2 SWAP1 POP JUMP JUMPDEST PUSH0 PUSH1 0x20 DUP3 ADD SWAP1 POP DUP2 DUP2 SUB PUSH0 DUP4 ADD MSTORE PUSH2 0x16D2 DUP2 PUSH2 0x1699 JUMP JUMPDEST SWAP1 POP SWAP2 SWAP1 POP JUMP JUMPDEST PUSH32 0x4E487B7100000000000000000000000000000000000000000000000000000000 PUSH0 MSTORE PUSH1 0x11 PUSH1 0x4 MSTORE PUSH1 0x24 PUSH0 REVERT JUMPDEST PUSH0 PUSH2 0x1710 DUP3 PUSH2 0x1396 JUMP JUMPDEST SWAP2 POP PUSH2 0x171B DUP4 PUSH2 0x1396 JUMP JUMPDEST SWAP3 POP DUP3 DUP3 SUB SWAP1 POP DUP2 DUP2 GT ISZERO PUSH2 0x1733 JUMPI PUSH2 0x1732 PUSH2 0x16D9 JUMP JUMPDEST JUMPDEST SWAP3 SWAP2 POP POP JUMP JUMPDEST PUSH0 PUSH2 0x1743 DUP3 PUSH2 0x1396 JUMP JUMPDEST SWAP2 POP PUSH2 0x174E DUP4 PUSH2 0x1396 JUMP JUMPDEST SWAP3 POP DUP3 DUP3 ADD SWAP1 POP DUP1 DUP3 GT ISZERO PUSH2 0x1766 JUMPI PUSH2 0x1765 PUSH2 0x16D9 JUMP JUMPDEST JUMPDEST SWAP3 SWAP2 POP POP JUMP JUMPDEST PUSH32 0x4E487B7100000000000000000000000000000000000000000000000000000000 PUSH0 MSTORE PUSH1 0x12 PUSH1 0x4 MSTORE PUSH1 0x24 PUSH0 REVERT JUMPDEST PUSH0 PUSH2 0x17A3 DUP3 PUSH2 0x1396 JUMP JUMPDEST SWAP2 POP PUSH2 0x17AE DUP4 PUSH2 0x1396 JUMP JUMPDEST SWAP3 POP DUP3 PUSH2 0x17BE JUMPI PUSH2 0x17BD PUSH2 0x176C JUMP JUMPDEST JUMPDEST DUP3 DUP3 DIV SWAP1 POP SWAP3 SWAP2 POP POP JUMP JUMPDEST PUSH32 0x496E73756666696369656E7420636F6C6C61746572616C000000000000000000 PUSH0 DUP3 ADD MSTORE POP JUMP JUMPDEST PUSH0 PUSH2 0x17FD PUSH1 0x17 DUP4 PUSH2 0x1298 JUMP JUMPDEST SWAP2 POP PUSH2 0x1808 DUP3 PUSH2 0x17C9 JUMP JUMPDEST PUSH1 0x20 DUP3 ADD SWAP1 POP SWAP2 SWAP1 POP JUMP JUMPDEST PUSH0 PUSH1 0x20 DUP3 ADD SWAP1 POP DUP2 DUP2 SUB PUSH0 DUP4 ADD MSTORE PUSH2 0x182A DUP2 PUSH2 0x17F1 JUMP JUMPDEST SWAP1 POP SWAP2 SWAP1 POP JUMP JUMPDEST PUSH0 PUSH1 0x40 DUP3 ADD SWAP1 POP PUSH2 0x1844 PUSH0 DUP4 ADD DUP6 PUSH2 0x143A JUMP JUMPDEST PUSH2 0x1851 PUSH1 0x20 DUP4 ADD DUP5 PUSH2 0x143A JUMP JUMPDEST SWAP4 SWAP3 POP POP POP JUMP JUMPDEST PUSH32 0x53616C646F20696E73756666696369656E746500000000000000000000000000 PUSH0 DUP3 ADD MSTORE POP JUMP JUMPDEST PUSH0 PUSH2 0x188C PUSH1 0x13 DUP4 PUSH2 0x1298 JUMP JUMPDEST SWAP2 POP PUSH2 0x1897 DUP3 PUSH2 0x1858 JUMP JUMPDEST PUSH1 0x20 DUP3 ADD SWAP1 POP SWAP2 SWAP1 POP JUMP JUMPDEST PUSH0 PUSH1 0x20 DUP3 ADD SWAP1 POP DUP2 DUP2 SUB PUSH0 DUP4 ADD MSTORE PUSH2 0x18B9 DUP2 PUSH2 0x1880 JUMP JUMPDEST SWAP1 POP SWAP2 SWAP1 POP JUMP JUMPDEST PUSH32 0x496E73756666696369656E74206C6F616E2062616C616E636500000000000000 PUSH0 DUP3 ADD MSTORE POP JUMP JUMPDEST PUSH0 PUSH2 0x18F4 PUSH1 0x19 DUP4 PUSH2 0x1298 JUMP JUMPDEST SWAP2 POP PUSH2 0x18FF DUP3 PUSH2 0x18C0 JUMP JUMPDEST PUSH1 0x20 DUP3 ADD SWAP1 POP SWAP2 SWAP1 POP JUMP JUMPDEST PUSH0 PUSH1 0x20 DUP3 ADD SWAP1 POP DUP2 DUP2 SUB PUSH0 DUP4 ADD MSTORE PUSH2 0x1921 DUP2 PUSH2 0x18E8 JUMP JUMPDEST SWAP1 POP SWAP2 SWAP1 POP JUMP JUMPDEST PUSH32 0x496E73756666696369656E742062616C616E636520666F7220636F6C6C617465 PUSH0 DUP3 ADD MSTORE PUSH32 0x72616C0000000000000000000000000000000000000000000000000000000000 PUSH1 0x20 DUP3 ADD MSTORE POP JUMP JUMPDEST PUSH0 PUSH2 0x1982 PUSH1 0x23 DUP4 PUSH2 0x1298 JUMP JUMPDEST SWAP2 POP PUSH2 0x198D DUP3 PUSH2 0x1928 JUMP JUMPDEST PUSH1 0x40 DUP3 ADD SWAP1 POP SWAP2 SWAP1 POP JUMP JUMPDEST PUSH0 PUSH1 0x20 DUP3 ADD SWAP1 POP DUP2 DUP2 SUB PUSH0 DUP4 ADD MSTORE PUSH2 0x19AF DUP2 PUSH2 0x1976 JUMP JUMPDEST SWAP1 POP SWAP2 SWAP1 POP JUMP INVALID LOG2 PUSH5 0x6970667358 0x22 SLT KECCAK256 EXTCODEHASH SWAP12 DIV CALL DUP10 0xA9 DUP15 SWAP15 0xA9 0x4E 0xED SLOAD 0xDC 0x4C 0xA9 MCOPY EXP 0xD4 0xC9 NOT SWAP6 JUMPDEST PUSH17 0x6FE0C6D3773E9F376464736F6C63430008 XOR STOP CALLER "
				},
				"gasEstimates": {
					"creation": {
						"codeDepositCost": "1327200",
						"executionCost": "infinite",
						"totalCost": "infinite"
					},
					"external": {
						"addCollateral(uint256)": "infinite",
						"allowance(address,address)": "infinite",
						"approve(address,uint256)": "infinite",
						"balanceOf(address)": "2869",
						"balances(address)": "2825",
						"burn(address,uint256)": "infinite",
						"collateralBalance(address)": "2891",
						"collateralRatio()": "2491",
						"lend(uint256,uint256)": "infinite",
						"loanBalance(address)": "2847",
						"mint(address,uint256)": "infinite",
						"name()": "infinite",
						"owner()": "2597",
						"repayLoan(uint256)": "infinite",
						"symbol()": "infinite",
						"totalSupply()": "2493",
						"transfer(address,uint256)": "infinite",
						"transferFrom(address,address,uint256)": "infinite"
					}
				},
				"methodIdentifiers": {
					"addCollateral(uint256)": "bcc46e83",
					"allowance(address,address)": "dd62ed3e",
					"approve(address,uint256)": "095ea7b3",
					"balanceOf(address)": "70a08231",
					"balances(address)": "27e235e3",
					"burn(address,uint256)": "9dc29fac",
					"collateralBalance(address)": "a1bf2840",
					"collateralRatio()": "b4eae1cb",
					"lend(uint256,uint256)": "9110df85",
					"loanBalance(address)": "9aae66f9",
					"mint(address,uint256)": "40c10f19",
					"name()": "06fdde03",
					"owner()": "8da5cb5b",
					"repayLoan(uint256)": "ab7b1c89",
					"symbol()": "95d89b41",
					"totalSupply()": "18160ddd",
					"transfer(address,uint256)": "a9059cbb",
					"transferFrom(address,address,uint256)": "23b872dd"
				}
			},
			"storageLayout": {
				"storage": [
					{
						"astId": 3465,
						"contract": "contracts/DDE.sol:DDE",
						"label": "name",
						"offset": 0,
						"slot": "0",
						"type": "t_string_storage"
					},
					{
						"astId": 3468,
						"contract": "contracts/DDE.sol:DDE",
						"label": "symbol",
						"offset": 0,
						"slot": "1",
						"type": "t_string_storage"
					},
					{
						"astId": 3475,
						"contract": "contracts/DDE.sol:DDE",
						"label": "totalSupply",
						"offset": 0,
						"slot": "2",
						"type": "t_uint256"
					},
					{
						"astId": 3477,
						"contract": "contracts/DDE.sol:DDE",
						"label": "owner",
						"offset": 0,
						"slot": "3",
						"type": "t_address"
					},
					{
						"astId": 3481,
						"contract": "contracts/DDE.sol:DDE",
						"label": "balanceOf",
						"offset": 0,
						"slot": "4",
						"type": "t_mapping(t_address,t_uint256)"
					},
					{
						"astId": 3485,
						"contract": "contracts/DDE.sol:DDE",
						"label": "balances",
						"offset": 0,
						"slot": "5",
						"type": "t_mapping(t_address,t_uint256)"
					},
					{
						"astId": 3491,
						"contract": "contracts/DDE.sol:DDE",
						"label": "allowance",
						"offset": 0,
						"slot": "6",
						"type": "t_mapping(t_address,t_mapping(t_address,t_uint256))"
					},
					{
						"astId": 3495,
						"contract": "contracts/DDE.sol:DDE",
						"label": "loanBalance",
						"offset": 0,
						"slot": "7",
						"type": "t_mapping(t_address,t_uint256)"
					},
					{
						"astId": 3499,
						"contract": "contracts/DDE.sol:DDE",
						"label": "collateralBalance",
						"offset": 0,
						"slot": "8",
						"type": "t_mapping(t_address,t_uint256)"
					},
					{
						"astId": 3502,
						"contract": "contracts/DDE.sol:DDE",
						"label": "collateralRatio",
						"offset": 0,
						"slot": "9",
						"type": "t_uint256"
					}
				],
				"types": {
					"t_address": {
						"encoding": "inplace",
						"label": "address",
						"numberOfBytes": "20"
					},
					"t_mapping(t_address,t_mapping(t_address,t_uint256))": {
						"encoding": "mapping",
						"key": "t_address",
						"label": "mapping(address => mapping(address => uint256))",
						"numberOfBytes": "32",
						"value": "t_mapping(t_address,t_uint256)"
					},
					"t_mapping(t_address,t_uint256)": {
						"encoding": "mapping",
						"key": "t_address",
						"label": "mapping(address => uint256)",
						"numberOfBytes": "32",
						"value": "t_uint256"
					},
					"t_string_storage": {
						"encoding": "bytes",
						"label": "string",
						"numberOfBytes": "32"
					},
					"t_uint256": {
						"encoding": "inplace",
						"label": "uint256",
						"numberOfBytes": "32"
					}
				}
			},
			"userdoc": {
				"kind": "user",
				"methods": {},
				"version": 1
			}
		}
	}
}